:020000040001F9
:10800000104C00203981010053810100558101008D
:108010000000000000000000000000000000000060
:108020000000000000000000000000005781010077
:108030000000000000000000598101005B81010088
:108040005D8101005D81010069EB0100F1DB010050
:1080500025DC01000000000095AF0100BD89010092
:10806000F1E1010001E2010011E201005D81010086
:108070005D8101005D8101005D8101005D81010084
:1080800061F5010061D101005D8101005D810100A8
:10809000D5DC0100DDDC0100F5DC01005D810100C3
:1080A0005D8101005D810100000000000000000012
:1080B00000000000000000000000000000000000C0
:1080C0000348854600F03CFC004800477DCD020097
:1080D000104C0020401E00BF00BF00BF00BF00BF0B
:1080E00000BF00BF00BF00BF00BF00BF00BFF1D195
:1080F00070470000401E00BF00BF00BF00BF00BFB0
:1081000000BF00BF00BF00BF00BF00BF00BFF1D174
:1081100070470000401E00BF00BF00BF00BF00BF8F
:1081200000BF00BF00BF00BF00BF00BF00BFF1D154
:1081300070470000104400200321094802680A43E8
:108140000260084802680A430260074880470748FF
:108150000047FEE7FEE7FEE7FEE7FEE7FEE700007A
:1081600024050040540500409DE10100C18001004C
:1081700030B50B46014600202022012409E00D46BF
:10818000D5409D4205D31D469540491B2546954047
:1081900040191546521E002DF1DC30BD70B500248B
:1081A0002546002801DA01244042002901DA012590
:1081B0004942FFF7DDFFAC4200D04042002C00D026
:1081C000494270BD10B5431A934209D283188818EA
:1081D00003E0401E01785B1E1970521EF9D210BDDB
:1081E00003460B439B0703D009E008C9121F08C0D0
:1081F000042AFAD203E00B780370401C491C521E7B
:10820000F9D210BDD2B201E00270401C491EFBD26F
:1082100070470022F6E710B513460A460446194691
:10822000FFF7F0FF204610BD421C0178401C0029DA
:10823000FBD1801A704710B5002200E0521C835C0D
:108240008C5CA34201D1002BF8D1D8B2E1B2401A24
:1082500010BD30B504460020034600E05B1C93428D
:1082600003D2E05CCD5C401BF8D030BD30B5054694
:108270000020034600E05B1C934205D2EC5CC85C26
:10828000201A01D1002CF6D130BD0321001D401E63
:10829000037812021A43491EF9D510467047034667
:1082A00003220870000A491C521EFAD5184670476E
:1082B000F0B507460846584087B0C00F0490480004
:1082C0000E46590040084908BC1A884105D2384674
:1082D00031461E4617460B460246580040081043DA
:1082E0004CD0300D039040055900400D490D0590CC
:1082F000401A0290402872DA18030121000B090588
:108300000843019004980092002805D00199524238
:108310000020884100920190029840210A1A019998
:10832000009800F029FA05460C466B4607CB00F092
:1083300044FAC0197141039A0E0D0023D717564015
:108340001A467A40164344D0049A002A2DD0029A45
:10835000012A039A15DC1205C01A9141012636053F
:10836000001C7141D20F059ED20700930192029624
:108370002A46234600F041FA07B0F0BD38463146A0
:10838000FAE71605224A0F46B218C01AB741012172
:108390000905001C4F4100187F411146181879410A
:1083A000E20F10436D19644113E0E2076D081543B5
:1083B0006408C2071443039A01261205C01A9141AA
:1083C0003605001C7141CE07400830434908C018EB
:1083D00051412A46234600F003FACDE7FFE704980F
:1083E00001224000C117121A00238B410498314624
:1083F000C417381AA141EEE730B40124E407634002
:1084000030BC55E730B40124E407614030BC4FE78D
:108410000000E0FFF0B51FB488B00B990998002464
:1084200048400999C00F490049080991C0070B99B4
:108430000090490049080B9109990898A6460843FD
:108440001CD00B990A98084318D0099801244000C1
:10845000420D4800410D099824050003000B2043FC
:1084600009900B980003000B20430B9050181C49F7
:108470004018002201901446104605E000200146F5
:108480000DB0F0BD032801DA034600E003239C464B
:10849000C11A0AAE0AE05F0008ADED5B4F00F75B62
:1084A0007D430027AA187C41491C5B1E6145F2DD13
:1084B000410004AB5A522104120C0A43240C401C04
:1084C0000828DFDB01980290009970460191009026
:1084D000059B049A0799069800F08FF9D0E70000F1
:1084E0000DFCFFFFF0B50C465C4085B0E40FE407DF
:1084F00003944C000026640859009446490802463B
:108500000296224321D062460A431ED06200570DD4
:108510004A000E032303550D012402462C4924056D
:10852000781B1B0B360B40182343264361460090F3
:108530001C46501AB44103D30098401C009002E03E
:10854000921800985B41002803DA0020014605B02C
:10855000F0BD0020012109050746864611E064466A
:108560001D46141BB54106D36546521BB3417446E4
:1085700007430C43A646CD074008490828439218F4
:108580005B4105460D43EAD11046184313D06046BF
:10859000194650407140084306D06046101AB34156
:1085A00006D20122002306E000220123DB0702E0BD
:1085B0000122D2435310009874460105381C6141D2
:1085C000029C039D0019694100F00AF9BFE7000011
:1085D000FD03000070B54B005B0803430BD04B005C
:1085E0005C0D002633466542B341D417AD1AA34152
:1085F00002DB0020014670BD12053018514170BDEC
:108600000EB5C217C10F5040CA0740180021054BD4
:108610000293019200910A460B4600F0EEF803B077
:1086200000BD0000330400000EB505490291002191
:1086300000910A460B46019100F0DFF803B000BD3F
:108640003304000070B5CD0F4A0009030123090B64
:108650001B0519430B4BED070024520D9A4201DA1A
:10866000002070BD074B34339A4203DC9A1A00F0A5
:1086700093F802E00449511888402C43F1D040425D
:1086800070BD0000FF030000CDFBFFFF4A0009039F
:108690000123090B1B051943094B10B5520D9A42D2
:1086A00001DA002010BD064B34339A4203DC9A1ADB
:1086B00000F072F810BD03495118884010BD000049
:1086C000FF030000CDFBFFFF10B5002904DB0124F0
:1086D000E40740428C412146002B04DB1C46012369
:1086E000DB075242A3418B4200D1824210BD000001
:1086F00010B5002904DB0124E40740428C412146E7
:10870000002B04DB1C460123DB075242A3419942A4
:1087100000D1904210BD0000F0B51FB40646002005
:1087200082B005464024019100901BE00199224649
:108730000F46304600F030F8049A059B801A9941A4
:1087400010D310461946224600F016F8361A8F410B
:108750000197224601200021009F00F00DF83818F3
:108760004D4100902046641E0028DFDC019B0098EC
:108770002946324607B0F0BD10B5202A04DB014679
:10878000203A9140002010BD914020239C1A0346BE
:10879000E3401943904010BD10B5202A04DB084681
:1087A000203AD040002110BD0B46D340D0402024B9
:1087B000A21A91400843194610BD10B5202A06DBC5
:1087C000CB170846203A1041C1170B4306E00B4671
:1087D0001341D0402024A21A91400843194610BDED
:1087E00010B5002B08DA0024401C614192185B414F
:1087F0001A4301D14008400010BDF0B51FB482B04B
:1088000005460C0003D0084606F0D8FF02E006F04B
:10881000D5FF20300246009021462846FFF7ACFFE6
:10882000049B059A04460F4618431143084314D08D
:10883000184610431BD0009840210A1A1846059983
:10884000FFF7AAFF05460E46009A05990498FFF720
:1088500093FF084305D0012004E02046394607B0C5
:10886000F0BD0020C11705430E432C433743009948
:108870000E986305401A7905E40A00220C43FD0AAC
:108880000A3002D500200146E9E7010510196941C7
:108890000C9C0D9D00196941FFF7A2FFDFE7FEB5B3
:1088A00000231A461B1A8A4103DB0020014603B04D
:1088B000F0BD4A000D0301212D0B0905520D0D439A
:1088C000D10702D100186D41521E5110FF31FF3106
:1088D0000131002704463E46384600970191024682
:1088E000012100200905FFF757FFC3197141F8184E
:1088F000324684468E464A4161462846611A904176
:1089000004D36046241A954176461F4624190098E0
:108910006D41401C00903428E1DDF919304670416A
:10892000091BA84103D20022D243134601E00022D2
:10893000134601980105381C7141FFF751FFB6E756
:10894000064C0125064E05E0E36807CC2B430C3CA2
:1089500098471034B442F7D3FFF7B6FB204F03001B
:10896000404F030070B58C180578401C6B075B0FF7
:1089700001D10378401C2A1106D10278401C03E083
:1089800006780E70401C491C5B1EF9D12B0705D4DC
:108990000023521E0DD40B70491CFAE70378401CCB
:1089A000CB1A921C03E01D780D70491C5B1C521EF3
:1089B000F9D5A142D8D3002070BD00000448026858
:1089C0000021002A03D00122016002484260704762
:1089D0000071004000700040F0B50E4601468DB0B9
:1089E000FF310746E531154668460C9100F05EF907
:1089F0001C46103C2AD4314608A800F057F908A8B4
:108A00000FC8079304AB07C304A9384600F066F803
:108A100000990498103C484000BA286001990598D4
:108A20001036484000BA686002990698484000BA7B
:108A3000A86003990798484000BAE86008A80FC8E2
:108A400003936B4607C31035002CD4DA08A90C98A1
:108A500000F02CF90DB0F0BDF0B5054600881435D6
:108A6000800032E02C681A4B1A4E610031402246D9
:108A7000E609DF091A403E40921B174EFF43324081
:108A800051400E464A001E403A40F709F61B124F6D
:108A90003E40724017461F400E4B56001E40FB09D9
:108AA000FB1A0D4F3B405E400B46744053407340F1
:108AB00061401826F141594062401023DA414A4092
:108AC0000821CC41544010C5401E0428CADCF0BD2A
:108AD00080808080FEFEFEFE1B1B1B1BF0B50E4639
:108AE00095B00188079109010F18042014378100FF
:108AF000891980393F1FCA6F3B685A40CA67401EB8
:108B0000F5D18FE00423481E1090D81C8007000F79
:108B10003058010E47484068425C991C8907090F8C
:108B200071580902090E415C0491591C8907090F0B
:108B3000715A0904090E455C9907090F715C445C80
:108B40001099059888424FDA0499104648400390DE
:108B500000F030F90499069069400846119100F040
:108B600029F904902846604000F024F90890204636
:108B7000504000F01FF9139004990698484000F007
:108B800019F90B9004990898484000F013F90B99D3
:108B90000A90484000F00EF9844611990B98614004
:108BA00041406046414006986A4041400A98624010
:108BB00042406046424004984240039844400B982B
:108BC00044406046444008984440039845400A9811
:108BD0004540604645401398454008061104084347
:108BE00021020843284306E00499100609040843BB
:108BF0002902084320439A000CA951188039C867FC
:108C00005B1E82D104200CAA81008B18803B3F1F81
:108C1000DB6F3C68891963408039CB67401EF3D114
:108C20000598401C07990590884200DA6AE715B05C
:108C3000F0BD000000200020F0B5C1B003F0F4FD4D
:108C4000194BC11DF93103C3002201216C46FF27D6
:108C5000CE091C37A1544D007E4375406940521C1B
:108C6000FF2AF4D9632500230570FF27F91A615CF8
:108C70000A020A4311095609714096097140D60942
:108C800071405140E25C69405B1C8154FF2BEDD385
:108C9000054900200A684968135CC854401CFF2835
:108CA000FAD941B0F0BD0000002000200A6812BAD5
:108CB00002604A6812BA42608A6812BA8260C96861
:108CC00009BAC16070470000FEB505460C4637483A
:108CD000FF2100901E46F5312846FFF79AFA002E34
:108CE00011D0012E61D10E20288021462846082669
:108CF00010311430FFF7DAFF2146281DFFF7D6FFA9
:108D00006E80374644E00A2028800426F4E7B80045
:108D100001902C5831463846FFF740FA002918D107
:108D20002348E2B20068825C13022204120E825CC5
:108D300012041A4323021B0EC35C1B061343220EAC
:108D4000805C009A18431278140644400098401C36
:108D50000090082E13D1042911D11548220400686F
:108D6000120EE1B2825C415C12020A432102090E3A
:108D7000415C09041143220E805C04060C43B81BBD
:108D80008000401941680198614040197F1C416092
:108D900028888000001DB842B9DC0020FF3501465C
:108DA000E135401C29711028FBDBFEBD9810030043
:108DB0000020002001064000002901DA1B21484064
:108DC000C0B2704770B50A49054689780D20000386
:108DD00009020C18FF3C013C80222946204601F084
:108DE0003FFE204680228030A91801F039FE70BD78
:108DF000D82B002010B5018837290CD0382909D18B
:108E00000A498289CB8B0C309A4207D18188801D18
:108E100006F0C2FF10BD0EF09BFF10BD498D8A42C7
:108E2000FBD18188801D0CF017FD10BD7023002040
:108E3000F8B5044603F09AFC00281ED1224FF87DB5
:108E400001281AD1200018D03C4600250126A03464
:108E500001280DD01D4E022821D003280DD1314606
:108E600014310A78B069022A08D0002A0DD00AE02D
:108E700007F02CF816486570C671F8BD887801288F
:108E800001D103F003FB2570F8BD07F007F90220BC
:108E9000207000F0E9FD0E4920398862F8BD00F02D
:108EA000E3FDF060B168401A0A4930618842F5D3A9
:108EB000F87D0128F2D100F02BFB0028EED008202D
:108EC00000F0EAFAF8BD0000382A0020082000204F
:108ED000D82B002060EA00001FB502A9264863DFF6
:108EE000002803D025A22A490FF0DBFD22486C465A
:108EF0001030A11C63DF002804D025211FA2090126
:108F00000FF0CFFD1C48A11C203063DF002804D0E7
:108F10001F491AA2891D0FF0C4FD1748A11C30304B
:108F200063DF002804D01A4914A209310FF0B9FDFB
:108F3000194900240C7017484C70047044702E219D
:108F40001648FFF766F9154860216038FFF761F9A8
:108F500012481349047068468180022181711149C9
:108F600001A810F0B5F9002804D0094903A20C317A
:108F70000FF097FD1FBD0000A41003002E2E5C73A0
:108F80006F757263655C616E63732E630000000031
:108F90004D020000D82A0020082000207023002065
:108FA00031F4000049A7020070B5164C03F0DEFB57
:108FB00000281ED12046A038C07D012819D1207874
:108FC000002816D0E61D0025F936012806D0022813
:108FD00010D003280DD106F037FF09E000F044FD62
:108FE0007D223169D2008918884202D902F0A2FAA2
:108FF000257070BD00F038FD034AB16889188842B9
:10900000F6D870BDD82A0020983A0000002800DA6F
:109010004042704710B500231A4606E0C40701D04D
:109020005B1CDBB24008521CD2B28A42F6D318460F
:1090300010BD10B514F05AFA10BD10B5FFF7E0FAE4
:1090400016F02CFEFFF7FEFA10BD10B500210D2022
:1090500000F07EF900210C2000F07AF900210B20AD
:1090600000F076F910BD00000848017B022907D006
:10907000017D0A2902D8C07C3C2804D90020704711
:1090800000210175C1740120704700009C27002059
:1090900010B59521012000F05BF9BC210A2000F0F9
:1090A00057F9BC210B2000F053F9BC210C2000F033
:1090B0004FF900210D2000F04BF910BD04490A7B47
:1090C000022A04D00A7D0A2A01D8101808757047B0
:1090D0009C27002010B502F025FB002810D102F0DB
:1090E0002FFB00280CD100F07FF80C49002802D09B
:1090F0000020C88504E0C88DFF212D31884201D2AF
:10910000002010BD00F004FA002802D0072000F073
:10911000C3F902F041F8012010BD000078270020BB
:1091200007490A7B022A09D00A46C43A127F002A5C
:1091300004D1CA7C3C2A01D81018C87470470000BA
:109140009C27002010B5012000F010F800F04CF82A
:1091500000220549002804D0022008740A76CA7546
:1091600010BD0A7410BD00009827002038B50446D1
:109170001A48006900250003C00F69460D70002CD5
:1091800001D1002829D10A460121032000F07AF8F4
:1091900068460078002803D00021032000F0D8F8AA
:1091A000684601780E4A0806002800DA55768B06D4
:1091B0000120002B00DA5076CA0603D5084B642242
:1091C000E03B5A73C90708D0002C06D105498876C0
:1091D0000620C8760A2105F0B1FF38BD0005005011
:1091E00098270020582A00200248407E002800D0FE
:1091F000012070479827002000B5FFF7F5FF0028F1
:1092000003D10448407B052801D9002000BD01207E
:1092100000BD0000B8260020F8B5184C00F024FC72
:109220000146607B002819D001281AD0022818D1E5
:109230000D4608F017FE2074617C26460027E43EA8
:10924000002913D0677402F06DFA01000C4802D0B7
:10925000817D002906D08775207C0AE0204606F033
:1092600063FEF8BD207B022805D005E0717B8842B3
:1092700002D27073F6E725606773F8BD9C27002063
:109280009827002037B50D46174984B003C914004C
:109290000291019004D01548407C002803D005E0DD
:1092A000082007B030BD012001F0E4FF0120034693
:1092B000009004AA092101A814F0BEFF002802D0E2
:1092C0000BA22D210BE0002000902B462246092105
:1092D00001A814F0A9FF0028E3D005A236210FF061
:1092E000E0FB0120DDE70000E4100300B8260020C9
:1092F0002E2E5C736F757263655C626174742E638D
:109300000000000010B502F005F8102014F0C8F8B5
:1093100004494885034801212030417502214174E8
:1093200010BD00007827002000B50246FFF75CFF63
:10933000002808D00449088D801880B2034A0885A7
:10934000904200D90A8500BD78270020181500003A
:109350001FB5104B9A68DB68019202936A4610733E
:109360000D485173407C002802D1012001F082FF9A
:1093700000200090022303AA092101A814F05CFF39
:10938000002804D005A253210FF08BFB012004B06C
:1093900010BD0000E4100300B82600202E2E5C73E0
:1093A0006F757263655C626174742E630000000007
:1093B00010B51F4B002286B000282FD016292DD1C2
:1093C0004178E1290BD0E22904D0E32904D0E42933
:1093D00004D023E0012202E0022200E00322142450
:1093E00069460C820024D100009401940294C918AB
:1093F00003948A8B69460A8001228A708C8004A9B2
:10940000801C02910390988A6946A6DF0849403182
:10941000002806D0074A904200D10C77002006B001
:1094200010BD087F012801D9401E08770120F6E70A
:10943000782A00200430000070B5FEB015460E46B4
:109440000446FFF7F9FB00231A4621466846FFF75A
:109450003BFC6846FFF700FB40232A46314668463E
:10946000FFF7BAFA7EB070BD30B50C468DB0154628
:10947000014610226846FEF7A5FE1022214604A8E8
:10948000FEF7A0FE68464DDF1022284608A9FEF729
:1094900099FE0DB030BD000010B5074C1321A08A15
:1094A00076DF002803D005A2C6210FF0FAFA0220C9
:1094B0004034607710BD0000782A00202E2E5C73A7
:1094C0006F757263655C62746C652E6300000000EA
:1094D00010B50849897900290AD0074C002801D025
:1094E000002000E00120A07701F048FF0520607710
:1094F00010BD0000B8260020B82A00201CB5044684
:10950000684666DF68468088207001201CBD000028
:109510000348407F042801D0002070470120704795
:10952000B82A00200348407F002801D0002070475F
:1095300001207047B82A0020F8B53049024600885B
:109540000C4600252E4E403417281BD01BDC01286A
:1095500029D010282CD0112814D10020C043888293
:1095600001200D4660770CF0E3FE00F04BF802F0AE
:109570008DFFA87D800705D403F0F8F8002801D0FE
:1095800004F0A6FDF8BD192826D0392803D05028AC
:109590001ED05528F6D1FFF7BBFF0028F2D00520DA
:1095A000FFF77AFFF8BD207F117A40182077F8BDC9
:1095B0009088888204200F46607700F055FA386062
:1095C000E57700F051FA306038465C3062DFF8BD74
:1095D00010460BF0BFFFF8BD90790028FBD1607FEB
:1095E0000528F8D1A07F022806D0B079002803D042
:1095F0000020FFF76DFFF8BD6577F8BD782A0020E1
:10960000B826002006480021017641768181C1817B
:1096100081760448C1794906490EC171704700003E
:10962000782A0020B826002038B51E4C0CF080FEA9
:1096300020465C3062DF0121684681701F21C943EA
:1096400001802246123269460120A0DF002827D17E
:10965000012115480FF0B6FC13480221401C0FF001
:10966000B1FC11480321801C0FF0ACFC0E48042112
:10967000C01C0FF0A7FC0C480521001D0FF0A2FC38
:1096800009480621401D0FF09DFC07480721801D59
:109690000FF098FC04480821C01D0FF093FC002037
:1096A00038BD0000782A0020E1FF000010B5104806
:1096B00004464034617F0B0006F097F8050F040F55
:1096C0000F120F00C08A002801D007F0C5FEA07F4E
:1096D000002803D00020FFF7FBFE10BD0120FAE7B1
:1096E00002F020F80028F8D000F004F810BD0000C7
:1096F000782A002070B500F0B7F90546364C03F023
:1097000035F8002807D0354920684018A84260D2B3
:1097100004F0DEFC5DE0A07E0A2803D9022001F0FF
:10972000C1FE56E02E4920684018A84205D2FFF736
:1097300069FF022001F0B6FE04E0A089002801D1F3
:1097400000F05EF82748C079000642D5E089A1897B
:10975000884205D20120C00300F07AFB00280DD119
:10976000607E217E884225D2208A01263603FF288A
:1097700006D8304600F0A2FA002801D0012070BDC2
:10978000607E401CC0B26076217E88420DD20020EF
:1097900020820122052114A001F088F8A060002891
:1097A00008D0304600F08AFAE8E7012205210EA031
:1097B00001F07CF87D216068C9004018A84208D2F9
:1097C000022001F06FFE00F033FA6560A07E401CBD
:1097D000A076002070BD0000782A002030750000BF
:1097E000204E0000B826002065706F6368000000FE
:1097F0000248007F002800D001207047B82A0020CE
:1098000070B50D4D0120C002A8810024EC81052116
:109810000AA000F06DFE0006000E28766C7606D0D9
:109820000022052105A001F041F8A8602C8205481E
:109830000477447770BD0000782A002065706F635C
:1098400068000000D8280020F0B59BB006460F46FF
:109850003022374902A8FEF7B5FC354930223031B5
:109860000EA8FEF7AFFC334C0525E8000019D02107
:10987000D4220346095812588033DA65996580303E
:109880005A6A196A6D1E99622D06C2622D0EECD1BC
:1098900020468030C762866240384178002909D06E
:1098A00000214170D8200651803430463946E765A2
:1098B0001BB0F0BD002000900EAE0190E800011931
:1098C000A82252588031CB6A311803C9FEF7A2FD95
:1098D000019B009AFEF7ECFC6D1CEDB2019100902B
:1098E000062DEBD300252E460127F8000119D822BA
:1098F00052588031CB6D02A9091803C9FEF78AFDC1
:109900002A463346FEF7D4FC7F1CFFB205460E46BE
:10991000062FEAD3019B009AFEF774FDD82210515E
:109920008034E165FEF78EFE00B2FEF769FEBFE708
:1099300098130300282E0020164830B50146012256
:1099400040310A704A700021CA0012180023936443
:10995000D36493671546D3678035AB62EB62803280
:10996000491CAB65C9B2D3650629EDD3C11D3022B0
:10997000F9310A724A720021C31DF933064A19618E
:109980005A61DA6199610A46034918461A624162CE
:1099900030BD0000282E00200000F03FF0B59BB045
:1099A00006460F4630222E4902A8FEF70BFC2C4932
:1099B000302230310EA8FEF705FC2A4C0525E800C0
:1099C0000019426F016FC2678167426C016C6D1EA6
:1099D000C2642D0681642D0EF1D12046E76440302B
:1099E000A6640178002907D000210170E76730469E
:1099F0003946A6671BB0F0BD002000900EAE019066
:109A0000E8000119CB6C8A6C311803C9FEF702FD1E
:109A1000019B009AFEF74CFC6D1CEDB20191009089
:109A2000062DEDD300252E460127F8000119CB6F36
:109A30008A6F02A9091803C9FEF7ECFC2A463346CF
:109A4000FEF736FC7F1CFFB205460E46062FECD310
:109A5000019B009AFEF7D6FCE167A067CAE7000009
:109A600038130300282E002010B504F059F910BD5A
:109A700070B5214A017813469C3B0902198144784C
:109A80001E4D091989B200241981A9420DD1146013
:109A900054608178C01C9972002903D0012903D138
:109AA0000EF01CFC00F096F870BD144D6D1CA94220
:109AB0000FD114605460C178090219600279114312
:109AC0000902196042791143196081799972002263
:109AD0000DE00A4A921C914202D0521C9142E3D1FD
:109AE000C1780A0201791143427909020A43811DB2
:109AF00018460DF041FF70BDAC290020E5FF0000C5
:109B0000F8B520480090051D80792F46401CA870AC
:109B1000FF20E870E2202871A8786871803707205C
:109B200078620020A871E871072129722E46A036BC
:109B3000F8617073B8622C4630700B2219340255EC
:109B400001216A702970009801700F48827B0A55C4
:109B5000C27B03213173022002550B49E01C042211
:109B6000091DFEF72FFB07203073284610222146DF
:109B70000930FEF727FB10207073F861009802216E
:109B80000170F8BD34280020582A002070B5104B11
:109B900010221846FF3081308178AC24491C817036
:109BA00089218900CA50FF21C170E1210171012280
:109BB0000146225400261B25193175544570027048
:109BC000031F02241C70401DFEF7FCFA70BD00004C
:109BD000B8260020F8B5154E10213446FF348134E4
:109BE000A0782746401CA070892080008151FF206A
:109BF000E070E1202071A0372546012219353A7323
:109C000000214955F11D681C0922261FFEF7DAFACA
:109C10000A223A7300206070012020700220307008
:109C20002946601DFEF7CEFAF8BD0000B8260020D8
:109C300070B51F484721C90045181E4944182879A6
:109C4000002833D1FF202070E12060701620A07022
:109C5000174800268030016C090EE170016C090C78
:109C60002171016C090A6171006C1149A0710A6CC3
:109C7000486C8018020EE271020C2272020A6272B3
:109C8000A072E6722673C86C0009020A6273A073A0
:109C9000886C0009010AE17320740748C079607478
:109CA00004F06EFBA074E6740120287170BD000002
:109CB000B826002042020000382E0020F0B593B0F4
:109CC000064601A8009005A80B9001A80A905E4CDA
:109CD00005A80D902079002802D16079002802D0D3
:109CE000012013B0F0BD0F225848920185180722B9
:109CF000D201A17980180E90002923D000271CE002
:109D0000288A00010C90B0421AD20E980422816C6D
:109D10000C98081801A900F085FE01980422400063
:109D2000400801900E98816C0C98081801A900F069
:109D3000D3FE288A401C28827F1C2089B842DFD8A5
:109D40000020A071288A0701B74201D30020C8E78C
:109D50000120208116E00E981022806C0099C01915
:109D600000F060FE00980078FF2806D001980028D7
:109D700003DA40004008019006E0288A401C80B2C7
:109D800028820701B742E6D3B7424CD2288A0501A0
:109D900046E00E981022806C0B99401900F042FEAC
:109DA0000B980078FF283ED0059800283BDA400049
:109DB000400801990590884235D90D98017A0A9892
:109DC000007A81422FD10D98417A0A98407A8142D7
:109DD00029D10D98817A0A98807A814223D10D98F1
:109DE000C17A0A98C07A81421DD10D98017B0A98E8
:109DF000007B814217D10D98C1880A98C0888142A2
:109E000011D10D98417B0A98407B81420BD10D986E
:109E1000817B0A98807B814205D12089401C20816A
:109E20001035B542B5D32389012B01D9092201E0B0
:109E30000023082220460A300A9907F0DFFC01209F
:109E4000207160714CE70000F0280020B826002047
:109E5000F0B591B0064601A8079008A80C9001A89B
:109E60000690574C08A80D902079002802D16079FF
:109E7000002802D0012011B0F0BDA079514D00287A
:109E80001ED0002717E0E8890001B04216D2042254
:109E90001303C01801A9009000F07CFD0198042272
:109EA00040004008019001A9009800F0D9FDE88920
:109EB000401CE8817F1C2089B842E4D80020A071B2
:109EC000E8890701B74201D30020D4E701202081AF
:109ED00015E0102290023818079900F05BFD0798F2
:109EE0000078FF2806D00198002803DA40004008D7
:109EF000019006E0E889401C80B2E8810701B74282
:109F0000E7D3B7424BD2E889050145E01022900221
:109F100028180C9900F03EFD0C980078FF283ED0E0
:109F2000089800283BDA40004008019908908842D0
:109F300035D90D98017A0698007A81422FD10D9873
:109F4000417A0698407A814229D10D98817A069803
:109F5000807A814223D10D98C17A0698C07A8142D5
:109F60001DD10D98017B0698007B814217D10D9879
:109F7000C1880698C088814211D10D98417B06980E
:109F8000407B81420BD10D98817B0698807B81427A
:109F900005D12089401C20811035B542B6D32389D4
:109FA000012B01D9092201E00023082220460A30B2
:109FB000069907F023FC0120207160715AE7000028
:109FC000F0280020782A002010B5002406F0ECFCD0
:109FD000002803D0641CE4B2052CF7D310BD0000A8
:109FE000F0B5044610460022084E0AE02578070A1C
:109FF0007D406D00755B00024540521CA8B292B2D4
:10A00000641C8A42F2D35840F0BD000030140300B3
:10A0100010B50C460DF0F6FC0448017A02464900E2
:10A02000103254520121417210BD000084240020DE
:10A0300003481321C08A8903C001081A7047000031
:10A040006424002070470000F8B52B4CA07923460B
:10A05000203B85011E468446E179DA8A30360DE0E0
:10A060004800305A254FB84207D140104F00F053F6
:10A070006818521C80B2DA8230E0491C4029EFD3C4
:10A080001320C001824235D0607A002804D01A49DA
:10A090006046103100F00CFD174E0027203E26E0F0
:10A0A000A079884226D2401C1349C0B24035A07125
:10A0B000ADB2103100F09CFC104800210E4A4B005C
:10A0C0001032D25A82420ED10B4A0D484B00103248
:10A0D000D0526818F28A80B2521CF282491CE17197
:10A0E00001216172F8BD491C4029E7D37F1CF1684A
:10A0F000B942D5D80020F8BD84240020FF7F00009D
:10A10000FF3F000010B50DF07DFC03480249007AC6
:10A1100040001031085A10BD84240020F0B51A4CBC
:10A12000A1B0A18BA068FEF723F800252646E082A7
:10A130003036164F17E06946284600F059FC1248A1
:10A14000802269463030FEF73DF800204100715A08
:10A15000B94202D0E18A491CE182401C80B2402809
:10A16000F4D36D1CADB2E068A842E4D8064D0024DB
:10A1700020352946AC711031204600F039FCEC71D5
:10A180006C7221B0F0BD000064240020FF7F00004D
:10A19000F0B5C1B0354C6946002000F013FC8020BA
:10A1A00020836D4620A9032000F00CFC3FA802305C
:10A1B00001F088FA2E49002788424ED128463630D1
:10A1C00001F085FA2B490002884246D102A80330EB
:10A1D00001F078FA218B88423FD105A8023001F0C6
:10A1E00071FAE06068462646007C2036307301280C
:10A1F00033D16846407BA08304A8013001F062FAA5
:10A20000E08304A8033001F05DFA208403A8023043
:10A2100001F058FA60840120218B0004FDF7A8FFAB
:10A220000546208CA84218D3A18B401BFDF7A0FF48
:10A23000A0840220B072A560608C2060E08B0028B2
:10A240000CD068086060A08C218B4000401E08186C
:10A25000FDF78EFFE168884202D9002041B0F0BDD1
:10A260000020C0432061A7820120F7E7642400207A
:10A2700055AA00000046415410B530210248FDF7B0
:10A28000C8FF00F003F810BD64240020F0B55F4C57
:10A29000A7B02046203002212690229081726D4680
:10A2A00080212846FDF7B5FF2946012000F0F1FB8B
:10A2B0002946022000F0EDFB8026268366830120DC
:10A2C000A0831320C0012084042060840002E08366
:10A2D00041100F20C001A0841E20E06022980127B9
:10A2E000077304202060A16080016060F02280215B
:10A2F00028462592FDF78DFF0B2245A12846FDF744
:10A3000061FF6946CE72002008734F7304228A737E
:10A31000C8730F7448748A74CE7409220A75259A1A
:10A320004A753F220A764876FF228A76C8760877F1
:10A3300048778877C87711F0E5FF08A9C871020A45
:10A340000A72020C4A72000E8872A08969468875EA
:10A35000000AC87508A90E712920887128461322A1
:10A360002EA12B30FDF72EFF2946002000F091FB97
:10A37000218B2846FDF74DFF552018A98877AA2084
:10A38000C8772946032000F084FB00207F26249014
:10A3900035E0FF2280212846FDF734FF01202E54AE
:10A3A000801C8028FBD3FF212598C94301432970D5
:10A3B0001F4A010A11436970010C12121143A9705E
:10A3C000000EFF210843E8702946002000F070FBD2
:10A3D00001270EE0FF2280212846FDF713FF012010
:10A3E0002E54801C8028FBD32946384600F060FBA1
:10A3F0007F1CE068B842EDD82498401C2490269831
:10A40000017B24988142C4D827B0F0BD6424002089
:10A41000EBFE904D53444F53352E30004E4F204E9F
:10A42000414D45202020204641542020202020005E
:10A43000FFFFFF0010B50548417A002904D0034909
:10A440008079103100F034FB10BD0000842400201E
:10A45000F1B50026A8B0354600F0ACF802F022FEB7
:10A46000074600212898002F016001D0002415E044
:10A47000002029B0F0BD20A9204602F0CDFD002823
:10A480000AD0761CB6B26946204602F0D9FD68466D
:10A49000FDF7CAFE45190835641CA4B2BC42EAD3D4
:10A4A000289805603046E4E770B5A8B0064600F08D
:10A4B00081F802F0F7FD050018D0002414E020A96F
:10A4C000204602F0A9FD00280CD06946204602F083
:10A4D000B7FD31466846FDF7AEFE002802D12046A2
:10A4E00002F07CFD641CA4B2AC42E8D328B070BD7D
:10A4F000F3B5A9B0299800260F46002824D0002FD4
:10A5000022D000F057F802F0CDFD05001CD001A8C4
:10A510000024009016E0A0B221A902F07DFD0028E1
:10A520000FD0A0B201A902F08BFD002006E0009937
:10A530000A5C2999095C8A4203D1401CB842F6D3CF
:10A54000761C641CAC42E6D330462BB0F0BD000054
:10A5500010B504002BD0E07C002828D1A07C002876
:10A5600002D020460DF0C6FFE08902F077FDE289B7
:10A570000146104602F0C6FD218AE08902F0AAFDDC
:10A580000B48017B0A04817B11430A02C17BE089ED
:10A59000114302F0ABFDE089216802F0E5FCFFF712
:10A5A00049FF02F0BBFD0020207502F061FD10BDE7
:10A5B0007827002010B50548007D002805D0034805
:10A5C000FFF7C6FF002002F005F910BD142500209A
:10A5D000002803D00068002800D001207047000048
:10A5E000F0B5CDB00D4624A9019104A90091014612
:10A5F000802204A8FDF7E6FDFFF7DCFF334C0026C0
:10A60000E574012D26D0FFF789FDFFF711FD052127
:10A61000C90288424DD3FFF717FD050049D0FFF767
:10A6200013FD69460881020045D02946009802F0D2
:10A63000A7FC411C41D0711E2182A674208169466D
:10A6400009896181A1812660E081012020751F4870
:10A650004DB0F0BD02F026FD07002AD0002510E025
:10A66000A8B244A902F0D8FC002809D0A8B20199E8
:10A6700002F0E6FC00990198FDF7DDFD002802D00C
:10A680006D1CBD42ECD3BD4213D2A8B2E08103AA37
:10A6900002A902F00DFD20828020A074E0892081B3
:10A6A000684600896081A0810398206060602675FB
:10A6B000CDE70020CCE7284604E02846FFF7C2FC9F
:10A6C00068460089FFF7BEFCF3E700001425002070
:10A6D000F8B516460F46050007D02868B04200D2EC
:10A6E000C6B2A87C802802D004E00020F8BD28462D
:10A6F0000BF026FEA87C1C498219802A09D2411839
:10A7000032463846FDF75EFDA87C34468019A874B1
:10A710001EE08022121AD4B2411822463846FDF7B4
:10A7200051FD381900901BE0301BC7B2802F00D3B9
:10A7300080273A460C490098FDF744FDE019C4B261
:10A740000098C0190090802F0AD0AF74B442EBD3A8
:10A750002868A04200D2C4B2001B28602046F8BD81
:10A7600028460BF0EDFDF1E7AC250020F8B51646C4
:10A770000F46050014D02A8A3146384603F018FBEC
:10A780002882A87C1F498219802A0BD240183246A1
:10A790003946FDF717FDA87C34468019A87427E0D8
:10A7A0000020F8BD8022121AD4B240182246394641
:10A7B000FDF708FD381900908020A87428460DF098
:10A7C00099FE002812D113E0301BC7B2802F00D3AE
:10A7D00080273A460B480099FDF7F4FCE019C4B213
:10A7E0000098C0190090802F04D0AF74B442EBD30E
:10A7F0002046F8BD8020A87428460DF07BFE002876
:10A80000F4D1F5E72C250020F7B5A8B00E460024BA
:10A81000FFF7D0FE02F046FC0746002542E06946FD
:10A82000284602F0F9FB00283AD02898844235D116
:10A83000019808AF010E2A98315401982A9C000C07
:10A84000641C30550198641C000A3055641C019842
:10A85000305568460089641C000A305568460089F6
:10A86000641C305539462846641C02F0E9FB384622
:10A87000FDF7DAFC401C85B27F20001B80B28542C8
:10A8800000D90546002078553555641C30192A46F4
:10A890003946FDF797FC60192BB0F0BD641CA4B2DB
:10A8A0006D1CADB2BD42BAD32A98F5E7F7B5AAB090
:10A8B0000020009001200F460190FFF77BFE02F080
:10A8C000F1FB050024D002AE00241FE0A0B222A9B3
:10A8D00002F0A2FB002818D0A0B202A902F0B0FB3F
:10A8E000002005E02A99325C095C8A420DD1401CA7
:10A8F000B842F7D32C9800280DD0019800280AD030
:10A90000A0B202F06BFB00200190641CAC42DDD3CE
:10A9100000982DB0F0BD01213046FFF761FE002800
:10A9200005D081890122C901120489180091FFF71D
:10A930000FFEEDE770B5A8B00646FFF73BFE02F04C
:10A94000B1FB050014D0002410E0A0B220A902F051
:10A9500063FB002809D0A0B2694602F071FB3146C2
:10A960006846FDF768FC002805D0641CAC42ECD3B7
:10A97000002028B070BD0120FBE7000010B51821B1
:10A980000348FDF746FCFFF7C9FB02F0D7FB10BDFB
:10A990001425002070B50D460446C1091646042052
:10A9A00000F0BCF8002807D013208003201832469E
:10A9B000294601F0B3F970BDFF2280212846FDF73A
:10A9C00021FC70BD70B504460D462146002000F004
:10A9D000A5F8002805D0E0018022294601F09EF963
:10A9E00070BDFF2280212846FDF70CFC70BD0000E1
:10A9F00070B504460D462146012000F08FF800286E
:10AA000008D007488022006829460019C00101F0DB
:10AA100085F970BDFF2280212846FDF7F3FB70BD4C
:10AA20006424002010B501F079F910BD70B504461A
:10AA30000D462146022000F071F8002808D0074892
:10AA40008022406829460019C00101F067F970BDF5
:10AA5000FF2280212846FDF7D5FB70BD642400202D
:10AA600070B50E460446C109A0B01546042000F09A
:10AA700055F800280BD02A4631466846FDF7A2FB60
:10AA80001320800320182A46694601F064F920B09B
:10AA900070BD70B504460D462146002000F03EF81A
:10AAA000002804D0E0018022294601F054F970BD4D
:10AAB00070B504460D462146012000F02FF800280D
:10AAC00007D004488022006829460019C00101F01F
:10AAD00042F970BD6424002030B5A1B0054614468B
:10AAE0006846FDF76FFB22466946284601F033F9B8
:10AAF00021B030BD70B504460D462146022000F05D
:10AB00000DF8002807D00448802240682946001923
:10AB1000C00101F020F970BD6424002010B50300CD
:10AB200004F063FE0504070A0D10210004290DD26C
:10AB300019E0FC290AD216E0FF2907D813E00F20FC
:10AB4000C00101E00120400281420CD300F0EAFD87
:10AB5000002801D0002000E0012000F00EF803F0F2
:10AB600099FA002010BD012010BD1321890310B5F2
:10AB70004018032101F0D9F810BD70B5054600F06A
:10AB800014F80446284600F003F8001980B270BD9E
:10AB9000014610B50020002906D013211024890396
:10ABA000204605F053FF204610BD10B54C2400216F
:10ABB000204605F04BFF204610BD000070B504464E
:10ABC0000D4621460320FFF7A9FF002808D00748BB
:10ABD0008022806829460019C00101F09FF870BDED
:10ABE000FF2280212846FDF70DFB70BD6424002064
:10ABF00070B504460D4621460320FFF78FFF00285D
:10AC000007D004488022806829460019C00101F05D
:10AC1000A2F870BD64240020F0B50023224E1A462D
:10AC200019461C46455C002D36D02F46203F5E2F2E
:10AC300010D8702B0BD3521C0023D2B2D50706D1EB
:10AC40001D253719AD017D19641CA973E4B20833C1
:10AC5000DBB20BE02D090E2D08D145186F78BF0926
:10AC6000022F03D1AD78AD09022D01D0491C10E0AF
:10AC7000682B0BD3521C0023D2B2D50706D11D2559
:10AC80003719AD017D19641CA973E4B21033DBB22E
:10AC9000C91CC9B28029C5D3002B01D0521CD2B225
:10ACA000521C5008F0BD0000B8260020024610B526
:10ACB00000200146535C002B16D01C46203C5E2C25
:10ACC00002D8083080B20BE01B090E2B08D15318B4
:10ACD0005C78A409022C03D19B789B09022B04D039
:10ACE000491CC9B28029E5D310BD103080B2C91CFF
:10ACF000F7E7FFB591B000260F46044635460F969C
:10AD00000C96019001F032FD002877D1B85D202823
:10AD10000BD000285CD0014620395E2948D8139911
:10AD2000082907D010291AD04EE0B919497800290E
:10AD30004ED0F0E717239B03C000C018FF38062150
:10AD400004AA013801F030F901980622401904A93B
:10AD5000FDF738FAAD1D0C98EDB2801D25E0149971
:10AD600008398D420CDD00211A910F99491CC9B296
:10AD70000F91022942D20199FF3101310025019141
:10AD800004AA102106F092FD01980822401904A996
:10AD90000290FDF717FA0298082206A98030FDF705
:10ADA00011FA08350C98EDB20830C0B20C900BE0E7
:10ADB00000090E2808D1B81941788909022903D160
:10ADC0008178890902291AD0761CF6B2802E9DD38B
:10ADD0001A98002867D0204680308022511B4910E5
:10ADE0000B061B0E5FD0139900257F34082931D044
:10ADF0007F30E61AC71A0021D21A49E03DE01499C3
:10AE000010398D420CDD00211A910F99491CC9B2ED
:10AE10000F91022947D20199FF310131002501919B
:10AE200004AA202106F04EFD01981022401904A921
:10AE30000390FDF7C7F90398102208A98030FDF7A9
:10AE4000C1F91035F61C0C98EDB21030C0B2F6B254
:10AE50000C90BBE7E11A0020D21A05E00B78401CE9
:10AE60002370491EC0B2641E8242F7DC03E0401C1E
:10AE70002570C0B2641E8028F9D314E033782370A3
:10AE80003B780370491C401E641E761EC9B27F1EAB
:10AE90008A42F3DC05E025700570491C401EC9B2EA
:10AEA000641E8029F7D30C9815B0F0BDFEB5384F5D
:10AEB00004463D462846A030A8350A46009063293E
:10AEC00001D3632226E0092A24D80807000E3E1881
:10AED0002046082231463430FDF774F931462046C9
:10AEE00008310822B430FDF76DF9204608213C30C6
:10AEF000FDF78FF920460821BC30FDF78AF920467E
:10AF0000082244300099FDF75DF9082220462946C1
:10AF1000C43039E00A211046FDF72AF90907000775
:10AF2000090E000E0191391820460E4608223030D5
:10AF3000FDF748F93146204608310822B030FDF7C8
:10AF400041F9019920467E18082231463830FDF734
:10AF500039F93146204608310822B830FDF732F978
:10AF6000204608214030FDF754F920460821C03022
:10AF7000FDF74FF92046082248300099FDF722F9E5
:10AF8000204608222946C830FDF71CF9FEBD000006
:10AF9000F4110300F8B50024FF25013501262746EA
:10AFA0000094284613F088FA002808D031484068F9
:10AFB000304204D0304800212818344301602D1D50
:10AFC00076007F1CADB2042FEBD3FF207D3013F051
:10AFD00073FA002807D02948002101604007044384
:10AFE000274800690090274E200712D0012700252E
:10AFF00027420AD02448AA00111808690969C00428
:10B00000C00E8903B258890F90477F006D1C042D34
:10B01000EED3002C1DDA3046203014214156491C55
:10B0200017D0077DBC06A40E20460EF05BFD800005
:10B030003558002D0DD0BE090121A140134AA000B2
:10B0400080180068009A8003800F114202D0022805
:10B0500002D0F8BD0328FCD1032E05D1022807D069
:10B060000221204613F0F8F931462046A847F8BDE2
:10B070000321F6E700630040006000407C6100406F
:10B0800000050050503B00200065004000070050C4
:10B090007047000010B500220221104607F030F87A
:10B0A00003221146012007F02BF80121022007F0AE
:10B0B00035F82A48022404600121042007F02EF804
:10B0C000264808300460001D0460001D0460001D57
:10B0D00004600021092007F021F820481C3004609A
:10B0E000001D0460001D0460032211460D2007F0BE
:10B0F00007F800210E2007F011F8184830300460DE
:10B100000121102007F00AF80121112007F006F8AC
:10B1100012483C30046003221146132006F0F0FF71
:10B120000E4844300460001D04600121162006F022
:10B13000F5FF0A4850300460001D0460001D0460E3
:10B14000064864300460032211461D2006F0D8FF33
:10B1500002486C300460001D046010BD0C070050F4
:10B1600001200449C00748600321062033DF062080
:10B170002EDF70470063004010B500F0EDF90020AD
:10B18000FDF7F4FF03488079002801D003F048F868
:10B1900010BD0000B826002010B52149002088719C
:10B1A000FDF753FF012000F049F802F043FD1D496F
:10B1B000022008601B4908310860091D0860091D4C
:10B1C0000860091D0860091D0860091D0860091D47
:10B1D0000860091D0860091D0860091D0860091D37
:10B1E0000860091D0860091D0860091D0860091D27
:10B1F0000860091D08600B4954310860091D08608A
:10B20000091D0860091D0860091D086005497031A5
:10B210000860091D0860091D0860091D086010BD4F
:10B22000B82600200007005010B5FDF731FF024995
:10B230000120887110BD0000B82600201CB5002830
:10B2400012D0012810D10949094C086949690191B6
:10B250000090607C002807D0684612F0D5FE0020E0
:10B2600060740120FDF7E5FE1CBD0000A412030080
:10B27000B82600201CB5002811D001280FD108499C
:10B28000084C8868C96801910090607C002806D14C
:10B29000684612F0D1FE01206074FDF7CAFE1CBDA5
:10B2A000A4120300B826002000B587B0002820D0E3
:10B2B0001149002303C90490CD20C00405910290D8
:10B2C00014200090122001900320694608731A464A
:10B2D00004A812F0E5FE002803D008A2D7210DF043
:10B2E000E0FB04A812F0A8FE094901204874FDF70C
:10B2F000A0FE07B000BD0000A41203002E2E5C7358
:10B300006F757263655C6770696F2E630000000083
:10B31000B82600201CB504498869C96900900191CC
:10B32000684612F09DF81CBDA412030070B50546D6
:10B33000FEF79AFB0646002402F0BCF90121092021
:10B3400006F0ECFE09E004F06BF948DFFEF78CFB39
:10B35000841BAC4203D8962C01D8AC42F3D3002115
:10B36000092006F0DBFE70BD10B5002801D00121D8
:10B3700000E00021092006F0D1FE10BD10B5062026
:10B3800004F092FC04F066FE044873DF002804D049
:10B390007D20C000FDF74DFE35DF10BD08240020E4
:10B3A0007FB5054613F0ACFE7D24E400002803D0F1
:10B3B0002046FDF73EFE35DF002D01D0012000E0E4
:10B3C00000206946087303A80FF052FE002803D03E
:10B3D0002046FDF72EFE35DF01A805210130FCF7E0
:10B3E00018FF6946487901221043E1210840DF2116
:10B3F0000C30084069464871072088711020C871D8
:10B40000064800900A7106480FF066FF002803D036
:10B410002046FDF70EFE35DF7FBD0000A9130200B8
:10B42000302000207047000010B5FFF733FE03F016
:10B43000D3FB002013F05CFC0120FFF735FF01F087
:10B440009FFE04F08FFE154A002115480DF08CFB7D
:10B45000002804D07D20C000FDF7EBFD35DF002281
:10B460001146104602F0F6FBFFF7DEFE01F0DEFAB1
:10B4700000F078FC02F082FCFFF772FE02F030FA76
:10B48000FDF760FE00F08EF84B20C000FDF7D1FD07
:10B4900002F06EFFFFF7FEFD10BD00002DFD010064
:10B4A000E4110300F1B582B01F4CFEF7DDFA064649
:10B4B00001F05CF9002805D11C481D4A0168891873
:10B4C000B14201D90020FEBD254601274035AF77A6
:10B4D000066010216846018020214180042181807E
:10B4E000C821C1800022019900980DF039FE002882
:10B4F00018D10D484038C07D01280BD002280BD050
:10B5000000200EF0E7FE684602990DF0DBFD0028F2
:10B5100004D007E00220F4E70120F2E72046EF77AD
:10B520005C3062DF0120FEBD782A0020B8260020B2
:10B530008813000010B50648818A06480DF046FFC2
:10B54000002804D07D20C000FDF773FD35DF10BD5D
:10B55000782A00202024002070B511480F4D006982
:10B5600000244008C007C00F00D001242878A04262
:10B5700010D0FEF779FAA1002C704919486028789C
:10B58000002807D100F0CEF8002804D0282106209A
:10B5900003F0D4FD70BD02F08DF870BD9C2F00202B
:10B5A0000005005070B50948074D006900244008A7
:10B5B000C007C00F00D001246C702C70FEF754FA45
:10B5C000A1004919486070BD9C2F00200005005063
:10B5D00010B50EF09FFB026A044607499047626966
:10B5E000064920469047044901201039C870044894
:10B5F00013F04EFB10BD00009C200020B5C00200DF
:10B60000C0410300F1B5294C82B0E51DF935687AD7
:10B610002872274A274BE969A869FCF749FE2A46A0
:10B6200051611061287AFCF7FFFF0F4606460022A1
:10B63000214BFCF73DFE02460B4630463946FCF7EF
:10B6400051FF2A465162106206460F46287A029937
:10B650000090081AFCF7D4FF32463B46FCF7DAFEAE
:10B6600006460F460098FCF7DFFF32463B46FCF7E4
:10B670001FFE0022114BFCF71BFEFDF707F8687256
:10B680002846436A026A00200D49FCF7B5FEFF22F6
:10B69000FF231132153312591B59FCF7BBFEFF2251
:10B6A000193210512C46E161687AFEBD282E002027
:10B6B0002D431CEBE2363A3F000070400000E03FB3
:10B6C0000000F03F41780078090208437047C178D4
:10B6D0000A02817811430A02417800781143090275
:10B6E0000843704710B5074C0020FFF73EFA0120D1
:10B6F0000003FFF73AFA0020207620606060A06027
:10B7000010BD0000502A002010B5054C0C22214627
:10B710000020FFF73FF90020E0752076A07510BDEE
:10B72000502A002004480549008B884201D101209D
:10B730007047002070470000382A0020A57F0000D5
:10B740000148007B70470000582A0020F0B591B0F6
:10B75000FE4CFEF789F90746022002F0AFFC1D22DD
:10B76000FB4852018618217E0722D20185180B0062
:10B7700004F03BF8110A375D7988C0D1F0EFEEEDA7
:10B78000ECEBEAE9E8E7EB00F148C079810606D581
:10B79000F04D0120AF6120762020607507E0410662
:10B7A00011D5EC4D0520AF612076402014E001F06A
:10B7B0003BF8FF30FF300230E860803028614030D5
:10B7C000A86011B0F0BD800708D5E24DE248AF6136
:10B7D000E8610D20207602207073E8E70020707386
:10B7E000EFE701203073AF62DA4DFF202870AF61C0
:10B7F000A86802F0BBFBA868D8491430286203F09F
:10B80000C9FF0A22A968E868FCF7DCFCE8680621A1
:10B810000A3005F055FFE9682C20887207F04EFACF
:10B82000EA6828691146FDF71FFE022002E1C94DB2
:10B830001022A96819312962E86803F08DFFA96810
:10B840000A220A31E868FCF7BDFCE86806210A30E4
:10B8500005F036FFE9682C2088720A462869FDF752
:10B8600003FE0320E6E0BB4D2C20A968392250548A
:10B870003A3129621022E86803F06EFF0420207636
:10B88000002043E1022002F09DFB002825D004F0B7
:10B8900051FF0021B2A0FEF7A3FEAE4D00905A2248
:10B8A000A968FEF763FF0098FEF752FE022002F03F
:10B8B00005FC002020766F61A5492870CA79DF2336
:10B8C0001A40CA71A880707B202889D10120A075F8
:10B8D000801EE060FEF714F973E79E4881884A1CD9
:10B8E00082807D20C0008142F6D90B2020760E2078
:10B8F000E07566E7012030739548AF62C079400675
:10B90000EAD50620207600209249FF2288704A70EE
:10B9100088808F6155E7022002F054FB002849D04F
:10B920008C4D0026AE8093A0FFF704F8012812D0BA
:10B930000B2020766E700320E075022002F0BEFB23
:10B940003FE751E142E125E1E2E057E1BAE073E08F
:10B9500068E051E03BE0012186A0FEF741FE06468B
:10B9600040686228304603D0FEF7F2FD042010E064
:10B970006222A968FEF7ACFE3046FEF7E9FDA86832
:10B980002021095C2C2903D14121095C2C2904D0F8
:10B990000520E0750B202076CFE72022E96803F030
:10B9A00075FE07F08BF9EA6828691146FDF744FD3A
:10B9B0000720F0E767488188491C89B281807D2093
:10B9C000C000814288D90B2020760F2090E7614D7E
:10B9D0001022E968A868FCF7F5FBA868202221304E
:10B9E000E96803F053FE07F069F9EA68286911462F
:10B9F000FDF722FD08201DE0564D1022A868E968D9
:10BA00000A30FCF7DFFBA86820224230E96803F027
:10BA10003DFE07F053F9EA6828691146FDF70CFD71
:10BA2000092007E04B481022C16880682030FCF7ED
:10BA3000C9FB0A202076C4E6464E1421B0680CF0FB
:10BA400079F9B0682C21017515272021425C2C2A38
:10BA500006D0C2557F1C491CC9B2FFB22D29F5D3AF
:10BA6000F780B068403002F081FAB16814220846CD
:10BA70004031FCF7FBFB0004000C05D03648E861C0
:10BA80000920E0750B20D5E7002001237F1EF0611F
:10BA9000F9B2B5680EE06A5C303A0B2A04D30A2189
:10BAA000E1750B21217607E05A4310180A2253430F
:10BAB000491EC9B21529EED2F061207E0B28BAD0FA
:10BAC0000D20B7E7234D00262E706E70022002F085
:10BAD00079FA002804D1A8887D21C900884214D9A8
:10BAE000022002F0EBFA1A492676C8799D2210400E
:10BAF000C8712E706E70AE800420A075401FE0608B
:10BB0000FDF7FEFF04F016FE5BE6401CA88058E639
:10BB1000012030730E48AF628030006C28620D48FF
:10BB20000B49C069E86119482883194868830E20C9
:10BB30002076C879BD221040C87102F0E9FF0120CB
:10BB400000F018FF02F0E8FF3BE60000502A00205A
:10BB5000B826002040200020FFFFFF7FC412030012
:10BB600073656375726974795F6465766963652E60
:10BB70007478740073656375726974795F73657244
:10BB8000766963652E74787400000000A57F00005C
:10BB9000341200000F202076707B40280ED002283F
:10BBA00012D00420A075E869E060FDF7A9FFFDF759
:10BBB0005BFF144988610020307302E60220A07503
:10BBC000104900204870EEE70320EBE728461830C4
:10BBD00007C86B4607C30C2269460020FEF740FFEA
:10BBE00010203074AF62ECE50749A86A4018B842EB
:10BBF0008AD202F06DFA00203074E2E50B20207644
:10BC0000112075E6402000208813000010B5312077
:10BC100006F08CF90148407810BD0000C6360020BF
:10BC200010B5472120200BF051FC0120FDF701FA4F
:10BC3000092121200BF04AFC402122200BF046FC78
:10BC4000002123200BF042FC482124200BF03EFC75
:10BC5000082132200BF03AFC012133200BF036FC96
:10BC6000262006F063F92A2130200BF02FFC31202A
:10BC700006F05CF90A20FDF7DCF9002010BD000099
:10BC800010B52F2006F052F902484078C006C00EC9
:10BC900010BD0000C636002010B5002132200BF088
:10BCA00015FC002133200BF011FC472120200BF064
:10BCB0000DFC002121200BF009FC042122200BF0B7
:10BCC00005FC182123200BF001FC482124200BF057
:10BCD000FDFB99212E200BF0F9FB002125200BF014
:10BCE000F5FB0A20FDF7A5F9002010BD10B50446AC
:10BCF000282006F0FBF8062202492046FCF762FAEB
:10BD000010BD0000C736002010B50F2006F00EF958
:10BD10000148407810BD0000C6360020134610B51B
:10BD20000A46194600F040F910BD10B5032905D0A8
:10BD3000022907D0012908D0002909D000F072F8A3
:10BD4000002010BD00F03CF8FAE700F09DF8F7E79E
:10BD500000F00CF8F4E7134610B50A46194600F057
:10BD6000DBF810BD10B500F0C1F810BD7CB5114C6A
:10BD700000252078002802D0257000F091F900F00D
:10BD8000A1F90D49C7200870162001900B4B012224
:10BD90000095002010F067F90CF086FA00F0E6FC40
:10BDA000002806D12078002803D10120207000F05F
:10BDB000E9F87CBD64200020BC360020C636002097
:10BDC0007CB5154D044628780026002802D02E7038
:10BDD00000F066F900F076F9104852210170210C4C
:10BDE0004170210A8170C470162001900C4B04220E
:10BDF0000A490096002010F036F90CF055FA00F0D0
:10BE0000B5FC002806D12878002803D1012028702D
:10BE100000F0B8F87CBD000064200020BC36002093
:10BE2000C63600207CB5154D04462878002600282B
:10BE300002D02E7000F034F900F044F910482021AF
:10BE40000170210C4170210A8170C470162001908C
:10BE50000C4B04220A490096002010F004F90CF063
:10BE600023FA00F083FC002806D12878002803D1AB
:10BE70000120287000F086F87CBD000064200020BE
:10BE8000BC360020C63600207CB5154D0446287807
:10BE90000026002802D02E7000F002F900F012F9FE
:10BEA0001048D8210170210C4170210A8170C470A2
:10BEB000162001900C4B04220A490096002010F035
:10BEC000D2F80CF0F1F900F051FC002806D12878E6
:10BED000002803D10120287000F054F87CBD000038
:10BEE00064200020BC360020C63600200EB500F0CD
:10BEF00049F8074901200870684600F08BF8694648
:10BF000004480978817469464978C1740EBD0000FF
:10BF100064200020D8260020F7B50F46184E0446AE
:10BF2000C51930786D1E002803D00020307000F055
:10BF3000B7F8200A290A00020902884203D13946CB
:10BF40002046029A0DE0FF21201A01310D1AA9B2F4
:10BF50002046029A09F040FC029A791B6019521996
:10BF600089B209F039FC00F001FC002806D13078D4
:10BF7000002803D10120307000F004F8FEBD00005D
:10BF8000642000201CB50649B92008701621002045
:10BF90000191044B01220090014910F064F81CBD8E
:10BFA000BC360020C6360020F0B5184D044628786F
:10BFB000C3B017460E46002803D00020287000F0BA
:10BFC0006FF8134803210170210C4170210A817020
:10BFD000C470301D162180B20191009002AB042282
:10BFE0000B49002010F03FF8324603A93846FCF711
:10BFF000E9F800F0BBFB002806D12878002803D11F
:10C0000001202870FFF7BEFF43B0F0BD6420002080
:10C01000BC3600207CB5134C05462078002803D0A0
:10C020000020207000F03CF80F4990200870162185
:10C030000620019100900D4B01220B49002010F0C9
:10C0400012F80A48017929704079687000F08EFB77
:10C05000002806D12078002803D101202070FFF7A6
:10C0600091FF7CBD64200020BC360020C636002035
:10C070001CB5094805210170AA2141700220162132
:10C08000024601910090054B034900200FF0EBFFA1
:10C09000024840781CBD0000BC360020C636002097
:10C0A0001CB50649AB200870162100200191044BF5
:10C0B0000122009001490FF0D6FF1CBDBC360020C4
:10C0C000C63600201CB50B4800240178002902D098
:10C0D0000470FFF7E5FF084906200870162001905C
:10C0E000064B0122009400200FF0BDFF0CF0DCF89D
:10C0F0001CBD000064200020BC360020C636002095
:10C10000F0B50E46C3B0014602A8009023A82290C5
:10C110001F488078002802D0421E8A4206DA1DA1FC
:10C12000304603F037FBC0B243B0F0BD401A401EAA
:10C1300000060D21000C090340188022019000998F
:10C14000FEF728FC6946087A4C7A801CC7B27F2C1F
:10C1500000D37F248020C51BA54204DB0098224623
:10C16000C11930460EE00198802280302299FEF7F6
:10C1700011FC00982A46C1193046FCF723F8621BCF
:10C18000A8192299FCF71EF8002030552046CBE76D
:10C19000D82B00204E6F206D657373616765210099
:10C1A00070B50E4601461448A0B080786D46002850
:10C1B00002D0421E8A4206DA10A1304603F0EAFAA3
:10C1C000C0B220B070BD401A401E00060D21000C08
:10C1D0000903401880222946FEF7DCFB68460478F4
:10C1E000402C00D340242246A91C3046FBF7EAFF2E
:10C1F000002030552046E4E7D82B00204E6F206DFC
:10C20000657373616765210070B506460D48CF21DF
:10C210008078A0B0000209026D46401880222946AD
:10C22000FEF7B8FB68460478402C00D34024224631
:10C23000A91C3046FBF7C6FF00203055204620B031
:10C2400070BD0000D82B002003488178102901D947
:10C2500010218170C8B27047D82B002010B5084C4F
:10C260002078052807D002F0A5FD002805D1A07987
:10C270000A38092801D8012010BD002010BD000097
:10C28000F82D0020F8B50446A178E27800786778A8
:10C29000891878290AD8002609190E71002806D0B5
:10C2A000012801D0022801D100F0F0F8F8BD0B4DB3
:10C2B000A878102807D30D200003FEF756FC322083
:10C2C000FCF7B7FEAE70A878401CA870A01CFCF765
:10C2D00079FD384600F052F8F8BD0000D82B002058
:10C2E00010B509480021C1760321817741770121EA
:10C2F000203041708C210170044904208876044963
:10C30000052002F01BFF10BD782F0020F82D002023
:10C31000B80B000010B50A480021C17603218177CF
:10C320000222427701222030427028220270FF3818
:10C33000A13881760349052002F000FF10BD0000FE
:10C34000782F0020B80B000010B50A480021C176F4
:10C350000221817703224277012220304270282275
:10C360000270FF38A13881760349052002F0E6FE0D
:10C3700010BD0000782F0020B80B000010B5044657
:10C38000032001F0E9FA002819D1022001F0E4FAB3
:10C39000002814D10C49C8760120012C10D0487710
:10C3A000CC7702228A7708492822203148700A7007
:10C3B000FF39A13988760549052002F0BFFE10BD7E
:10C3C00003224A77ECE70000782F0020B80B00002A
:10C3D000F8B5FDF749FB074600F0C8F9294C0028DD
:10C3E000607802D0002848D1F8BD002801D001F0C3
:10C3F00061F911232449DB01CE18232362789B01C4
:10C40000CD180220130003F0F0F9060405090F18F7
:10C410002A38E9E7607000202877F8BD7765207832
:10C42000FEF784FF032018E00020FEF79DFF0420A4
:10C4300060707765E87E401C1DE0716DFF319131C1
:10C44000B942EAD2E97EAA7F914206D30520607004
:10C45000287F401C28777765F8BD6070F8BD7D2285
:10C46000716D12018918B942F8D2297F6A7F914211
:10C4700003D260700020E876F8BD00206070FEF7FF
:10C4800073FFF8BD982F0020B826002010B503498F
:10C4900000204870FEF768FF10BD0000982F0020B4
:10C4A0008307FF22DB0E9A408907090E9940002876
:10C4B0000BDA0007000F0838830808489B0018189B
:10C4C000C36993430B43C3617047830804489B00CF
:10C4D0001B181868904308431860704700ED00E08F
:10C4E00000E400E08307FF22DB0E9A408907090E73
:10C4F000994000280BDA0007000F08388308084825
:10C500009B001818C36993430B43C36170478308AA
:10C5100004489B001B181868904308431860704734
:10C5200000ED00E000E400E070B505460024204680
:10C53000B030C0B20AF0EAFF10200AF0E7FF002096
:10C540000AF0E4FF294680200AF0ACFF641CE4B244
:10C550008035042CEBD370BD10B50446AE200AF034
:10C56000D5FFD5200AF0D2FFC1200AF0CFFFA820C6
:10C570000AF0CCFF1F200AF0C9FFAD200AF0C6FF69
:10C5800000200AF0C3FF20200AF0C0FF02200AF0BA
:10C59000BDFFD3200AF0BAFF00200AF0B7FF402009
:10C5A0000AF0B4FF8D200AF0B1FF8D200AF0AEFF33
:10C5B00014200AF0ABFFA0200AF0A8FFC8200AF060
:10C5C000A5FFDA200AF0A2FF12200AF09FFF204602
:10C5D00000F024F8D9200AF099FF22200AF096FFF3
:10C5E000DB200AF093FF00200AF090FFA4200AF05D
:10C5F0008DFFA6200AF08AFF10BD0000012002492D
:10C600004004C86070470000000500500120024946
:10C6100040048860704700000005005010B50446D3
:10C6200081200AF073FF20460AF070FF10BD10B59C
:10C63000002801D0AF2000E0AE200AF067FF10BD57
:10C64000034806210171024900201C398870704797
:10C65000142E002010B5094C01F02CF8FCF762FFF5
:10C66000002802D00120FCF733FF2079002801D0F8
:10C67000002010BD0120207110BD0000142E0020EC
:10C68000F8B5324CFDF7F0F906462079002801D0C4
:10C6900001F010F820790125030003F0A6F8084402
:10C6A000050C1A1F44454F44FDF7DEF92060FFF7E3
:10C6B000ADFF022036E02068301A672833D9012503
:10C6C000234E6D04F5600220FCF7B3FCB560032037
:10C6D00028E0F020FFF740FF042023E01B4F1C3F21
:10C6E000BD70FDF7C1F91B491B4E4863FD743D75D4
:10C6F000707C401E03280BD80020B8760146052028
:10C7000002F00CFD1548417C3173807C7073B57369
:10C71000114820304078002803D00021052002F085
:10C72000FDFC05202071F8BD0020FFF780FFFFF71A
:10C7300065FFFDF799F920600720F3E7FDF794F90D
:10C740002168401A6728EED90020EBE7142E00205C
:10C7500000050050B82B0020782F002078270020FB
:10C760000149012008717047382E00200248007AE4
:10C77000002800D001207047182E002010B50BA013
:10C78000FEF7D8F800280CD00CA0FEF7D3F801284B
:10C7900008D00CA0FEF7CEF8012802D00BA0FEF7BF
:10C7A000C9F810BD0AF0D0FF10BD00006F74615FC2
:10C7B00073746172742E7478740000006170702E4E
:10C7C00062696E0073642E62696E000063792E6286
:10C7D000696E000010B506490028087207D00548A8
:10C7E000407B5A2803D90021062002F0A7FC10BD87
:10C7F000182E0020B826002010B508490848FBF77D
:10C8000008FD084964208881FF310020413108710A
:10C810000720FF39E139C876087610BD040500000D
:10C82000B02F0020F032002000487047B02F0020C9
:10C830000148C07E70470000503200200648007951
:10C84000022805D0012805D10448007E0A2801D31A
:10C850000120704700207047303400205032002003
:10C86000F7B5404E0746306886B0401C0025306062
:10C8700003F010FF301D3C4900910190394602A899
:10C88000089B079A06F094F902AB07CB344664364E
:10C8900007C670340023703E03F08CFF61680029E6
:10C8A00010D021686160401AC0100818206004F0A0
:10C8B000ABFC002808D02D4900200225087503F0A4
:10C8C00013FF06E06060F1E726488030808D322853
:10C8D0000ED808F0E7FD3846089A079903F086F964
:10C8E0002048D430014620310EC90EC0A80702D519
:10C8F000284609B0F0BD0AF091FF002810D00123AE
:10C900003846089A079903F0A9FE16480121E0303D
:10C9100001700AF06FF816484168491C416005E053
:10C9200000233846089A079903F098FE08F0D6FCD1
:10C93000002810D00D48A038817E00290BD1C07E80
:10C940000325002804D00948C038C16B491CC163C5
:10C95000012000F00FF8B36F3846089A07990BF0E2
:10C96000F1F8C5E7B02F00200E130300F0320020CD
:10C970006820002030B5124900281BD01148124D04
:10C98000C47C082232200623002C03D0012C03D0C3
:10C99000022C07D08D6001E00C4C8C600A7048704E
:10C9A0008B7030BD0A4A8A6009220A7048700720DD
:10C9B000887030BD074888600A20087030BD0000CC
:10C9C00068200020F827002088900000B888000028
:10C9D000E8800000D084000070B5074C0120254697
:10C9E00020356872FDF740F86062FDF73DF8E062BF
:10C9F00000202870E06170BD282E002010B50A4C80
:10CA00000B2012F0EFF90021082012F045FA002166
:10CA1000092012F041FA00210A2012F03DFA00200C
:10CA20002034607210BD0000282E00203EB5AA21DF
:10CA300068460170BB210171CC210172124C6A461B
:10CA40000121002012F0EAF9012101AA084612F0A2
:10CA5000E5F902AA0121022012F0E0F9FFF7CEFF6A
:10CA6000FCF76AFF0020A0754620E0756076FCF7B1
:10CA7000FBFFE06000202A2122182032401CC0B2B7
:10CA800011760828F8D33EBD282E002010B5134893
:10CA9000427AC1798C1A531A5A2A01D25A290BD3D5
:10CAA000914206D9E0B20A2806D34007400F101879
:10CAB00007E0D8B2102801D2084603E04007400F33
:10CAC000101AC0B23C2807D28A4201D9D8B200E07D
:10CAD000E0B24007400F3C3010BD0000382E00206F
:10CAE000FEB54E4CFFF742FE00281ED1FCF7BCFFFE
:10CAF00006464B48A17D406D002917D0002502292C
:10CB000017D027462037032920D004290DD161688A
:10CB1000411A019142498039496F401A0090FCF74F
:10CB200063FB002845D03D726575FEBD0420A075ED
:10CB3000FEBDA66003216060A17512F00BF912F032
:10CB4000E7F82563A586E5862576FEBD00F0B2FDF3
:10CB5000207D002824D02575A068351A7D20C000CE
:10CB6000854212D9607D00280DD020682D49301AE9
:10CB7000884208D905F0DEFC002806D1FFF73EFF09
:10CB80000420A07501E009F02DF92748854207D956
:10CB900005F0D0FC002803D1FFF730FF0420A0757A
:10CBA000387A0028D1D1787A0028CED1FFF726FF35
:10CBB000BCE705F0BFFC0221002807D1184820304F
:10CBC0008279002A02D1C07E002809D01348103093
:10CBD000027E002A02D1407E002801D0A175FEBD50
:10CBE000E120009AC000824201D24B20C000019A8D
:10CBF0008242F4D30A486038007F0028EFD008480A
:10CC0000084A8038806B8218B242E8D8074A8018F8
:10CC1000B042E4D3A175FFF7DFFEFEBD282E002051
:10CC20003827002088130000A861000080EE36003D
:10CC3000F1B5214CBAB0A07B002836D1FF2020737B
:10CC40006073E07B002831D00320802219A9800383
:10CC5000FDF7A0FE194B00221D7C0123AB40DFB283
:10CC600019A809A913460EE046780578B4468678D7
:10CC7000C01C3D4205D065460D70521C4E70D2B2AC
:10CC8000891C5B1CDBB2E57B9D42EDD8002A0CD0F1
:10CC90003A98904200D30020430009AAD15C9A1828
:10CCA0005278182901D23C2A02D300203BB0F0BDB3
:10CCB00021736273FAE70000782F002078270020A4
:10CCC000F0B5A1B000200090284CFF20207301ADEA
:10CCD0006073FEF727FD002808D02548244E807C8D
:10CCE000803E002806D0307C042803D90020A071A3
:10CCF000207137E0E07B0028F8D00320802201A9D2
:10CD00008003FDF747FE317C01208840C0B2864693
:10CD10000021E27B1FE0AF782B786878ED1CBC46E1
:10CD20001828E3D267463C2FE0D277463B4210D02A
:10CD3000009B002B04D1012300932073634663738F
:10CD4000737C834203D1B37C634507D301E0834204
:10CD500004D3491CC9B28A42DDD8C7E70121A171B9
:10CD600020716046607121B0F0BD0000782F002076
:10CD7000F82700200948407C01060DD540060749E8
:10CD8000400E60390B7C01210A469A40D2B2104213
:10CD900002D00348C171017270470000D8270020FB
:10CDA000782F0020F3B50446A1B000200090284859
:10CDB00001AD017C01208840C7B203208003FDF74C
:10CDC000D4FE3220FCF735F92298224E0028207834
:10CDD00003D00321FBF7CCF900E04008F073C0B2A8
:10CDE000202801D92020F073FF2030737073F07B6E
:10CDF000641C002827D080212846FBF70AFA00206F
:10CE000018E02299002902D02178641C00E07F21DB
:10CE10002378627829706B70AA70A41CED1C3942CB
:10CE200006D00099002903D1012100913373727358
:10CE3000401CC0B2F17B8142E3D8032001A98022CB
:10CE40008003FDF70DFE0520707423B0F0BD0000D7
:10CE500078270020782F0020F8B5FCF705FE05465E
:10CE6000FFF784FC002837D13C4C607C002801D0BF
:10CE700000F020FC607C394E0027403E030002F0A9
:10CE8000B4FC0504343A48596900A0797D26344D34
:10CE9000F600002810D033482279417C91420BD310
:10CEA000807C6179884207D301206074A772E772A1
:10CEB000A0732774032009E003F0A4FB00280CD022
:10CEC00001206074A772E772A07308206072AF76C9
:10CED0003146052002F032F9F8BD20482030407874
:10CEE0000028F9D1FEF740FAF8BDC8203564FEF7F6
:10CEF0001DFA02201CE0306CC830A842F4D2002099
:10CF0000FEF732FA032060743564A07A401CA072E8
:10CF1000F8BD306CFF309130A842F9D2A07A0228D7
:10CF200005D304206074E07A401CE072F8BD012053
:10CF30006074F8BD7D21306C09014018A842F8D218
:10CF4000E07A617A884201D30520F1E7012060741C
:10CF5000A772F8BDFFF7B4FE6774F8BD782F002004
:10CF6000F82D00207827002010B50C460AF068FD47
:10CF7000024801684C600121817210BDAC2600207E
:10CF8000F8B5154C0E460746E08801218902154682
:10CF9000884202D30020C043F8BD0AF051FD216849
:10CFA00000200860216848602168C87321688D816D
:10CFB00021684E8121688877216820208873216844
:10CFC0007F20C8770120A072206839464089FDF78C
:10CFD0000FFE0620205EF8BDAC26002010B50D4CDB
:10CFE000E188814215D30AF02BFD20688089002852
:10CFF00001D0FDF727F820684089FDF723F8206865
:10D00000C17F7F2905D13F21C1770120A07200F0A7
:10D0100085F810BDAC26002010B50C460AF010FDB6
:10D0200006490968C87F7F2801D0002010BD202252
:10D030002046FBF7C7F8012010BD0000AC260020F9
:10D0400010B50C460AF0FCFC0348214600684089F4
:10D05000FDF7B4FD012010BDAC26002010B50AF08C
:10D06000EFFC02480068C07B10BD0000AC26002029
:10D0700070B500200A4C0126E0800546B60228461D
:10D080000AF0DEFC2068C07FFF2806D0E0886D1C17
:10D09000401CADB2E080B542F1D3E08870BD000025
:10D0A000AC2600200148C08870470000AC26002054
:10D0B00070B514460D460AF0C3FC0548016889891D
:10D0C00029800168496821600068008970BD0000FE
:10D0D000AC26002010B50C460AF0B2FC02480168EC
:10D0E0000C810121817210BDAC26002010B50C46C8
:10D0F0000AF0A6FC024801680C600121817210BD93
:10D10000AC26002010B50C460AF09AFC02480168D3
:10D11000CC730121817210BDAC26002010B5064CE5
:10D12000A07A002807D02089214680088039FDF7A1
:10D13000E1FC0020A07210BDAC26002010B507490C
:10D140000020FDF773FC054908468030016000218E
:10D15000818001818172FFF78BFF10BD2C2600209A
:10D1600010B506490020086048608860C86003491F
:10D1700040390860486013F04BF810BD4011014081
:10D1800010B50023134A052118460BF003FD0028B3
:10D1900004D0FF2110A2B0310BF083FC124A012110
:10D1A00012480BF0E1FC002804D0FF210AA2B6319E
:10D1B0000BF077FC0D480E4A0121001D0BF0D4FC4A
:10D1C000002804D0FF2104A2BC310BF06AFC00202F
:10D1D00010BD0000F43400202E2E5C736F75726356
:10D1E000655C5254432E630039D70100F8130300E5
:10D1F00061C7010010B50548052100220904006837
:10D200000BF010FD00F056FA002010BDF8130300DB
:10D21000F8B50446284908200856E121890048430A
:10D2200005B20026204600F053F8002807D06279A6
:10D230002249002A0ED00020214B224E08E0304621
:10D24000F8BD870701D0C91800E08919401CC0B299
:10D250008242F6D8002092070CD0237900221A4E81
:10D260005B1E04E0B75C3818521C80B2D2B2934205
:10D27000F8DC0CE0144E237900220C3E5B1E04E027
:10D28000B75C3818521C80B2D2B29342F8DC0F4A15
:10D2900050434118E0781822401E5043A27880186D
:10D2A0003C225043627880183C2250434018217839
:10D2B0004018401BF8BD00007827002080436D38DF
:10D2C0008033E1010085E2011C140300805101005C
:10D2D000FEB504466A460721042000F047F9684677
:10D2E0008079002807D169464979012903D1694627
:10D2F000C97801293BD0694609780A230A074906FB
:10D30000490F120F59438E18694649780A270A07B0
:10D310004906490F120F59438D18694689780A0743
:10D320008906890F120F59438B186946C9780A0775
:10D330008906890F120F79438A1869464979267040
:10D340000F073F0FBC461027394009090A277943C8
:10D35000070761443F0FBC46657000090A27A370A8
:10D360007843E2706044217160710120FEBD0020AD
:10D37000FEBD00000A4B10B5084A5943126C074B1A
:10D38000521A403308215956E1239B00594309B2F0
:10D3900052180146104600F04DF810BD3827002005
:10D3A000805101000A4B10B5084A5943126C074BD3
:10D3B0005218403308215956E1239B00594309B2C2
:10D3C00052180146104600F035F810BD38270020ED
:10D3D0008051010030B509493C250A6C40318C7CF4
:10D3E000CB7C6C43E318497CE12424016143C918D8
:10D3F000034B58434018101A30BD00003827002056
:10D40000805101000348016C4030C07C3C30081A58
:10D41000704700003827002010B5054B08229A56A7
:10D42000E1239B005A43801800F004F810BD00006F
:10D4300078270020F8B50C4606462E49FAF798FEE4
:10D4400005462C48E1216843371A2B4820800126E5
:10D45000A670E67009013846FAF78AFEC0B2E121EB
:10D46000607109014843381A3C21FAF781FEA07126
:10D470003C213846FAF77CFEE1710721E81CFAF7F7
:10D4800077FE2171FF2300216F335F1E22889007F2
:10D490001DD03846854206D3521C491C2D1AC9B2EC
:10D4A0002280C829F2D32078800712D013490020A7
:10D4B0000A5CAA4208D8A278521CA2700A5C401CDE
:10D4C000AD1AC0B20C28F3D37019E070F8BD18463D
:10D4D000E0E70A4900200C390A5CAA42F4D8A27895
:10D4E000521CA2700A5C401CAD1AC0B20C28F3D3C7
:10D4F000EAE7000080510100B20700001C1403009D
:10D5000010B586B0012168460170202141700221CA
:10D5100000F09AF903A8FFF77BFE0D4C216C8142C5
:10D5200001D2206407E0E122081A1201904202D9D8
:10D53000084600F059F80649206C4C31FFF76CFFA3
:10D5400003484030C17B4172817C817206B010BDBE
:10D550003827002010B504480069400FC007C00FED
:10D5600001D100F0E9F810BD0005005037B50D46B7
:10D57000174984B08868C96814000291019004D0EA
:10D580001448407C002803D005E0082007B030BDD7
:10D590000120FDF76FFE01200346009004AA5121EF
:10D5A00001A810F049FE002802D00BA232210BE0A6
:10D5B000002000902B462246512101A810F034FE95
:10D5C0000028E3D004A23B210BF06BFA0120DDE739
:10D5D000F8130300B82600202E2E5C736F7572635B
:10D5E000655C5254432E63007CB53149FFF714FF4C
:10D5F0002F4C04206A4610700C3CE57C0A2128461A
:10D60000FAF7B6FD01460A204843281A09010843E3
:10D610006A465070A57C0A212846FAF7A9FD0A211E
:10D620004143691A000101436A469170657C0A21F1
:10D630002846FAF79DFD0A214143691A000101437A
:10D640006A46D170E57B0A212846FAF791FD0A2146
:10D650004143691A000101436A461171207C401C54
:10D66000C0B2072800D100205071A57B0A212846AE
:10D67000FAF77EFD0A214143691A000101436A4617
:10D680009171A0896421FAF773FD0C460A212046A6
:10D69000FAF76EFD02460A2050431101201A084392
:10D6A0006A46D0710821684600F0CEF87CBD0000C3
:10D6B0008427002010B5FCF7D7F90B49C865084648
:10D6C0004030017E00290ED1012101760848002258
:10D6D000064940680BF0A6FA002804D0FF2105A2F5
:10D6E000EE310BF0DEF910BD382700208F0200006C
:10D6F000F81303002E2E5C736F757263655C5254D1
:10D70000432E630010B5FCF7AFF909497D22C96DBE
:10D710001201891881420AD205484030017E002951
:10D7200005D000210176034840680BF0B9FA10BD1E
:10D7300038270020F8130300FEB53E4D686C002822
:10D7400011D001A80BF008FA6A46696C01980BF039
:10D75000FDF90098C60BF0030090696C08180002F0
:10D76000000A686405E0334844300BF0F5F9686C52
:10D77000C60B304C4034A08D8019A085F0B2FBF769
:10D78000D3FD686D274680196865286C203780199D
:10D790002864B87C802801D28019B874E08DFF21FC
:10D7A0002D31884201D28019E08500F0E9FD002882
:10D7B00005D02149887F3C2801D2801988771D49EE
:10D7C000286C4C31FFF728FEA07CA17A0125884205
:10D7D0001DD03D70A0721748C030417A002909D091
:10D7E000617C827B914205D3C27B914202D2817AD5
:10D7F000491E8172FCF738F91049C96B401A10496B
:10D800000090884201D901F0E9FAFFF7B3FAE07B12
:10D81000617A884204D0BD7060720A49052048745C
:10D82000E17A607C814203D00C2800D17D70E072E7
:10D83000FEBD000038270020582A0020B82B002009
:10D84000E0930400782F0020FEB50F4C0746656971
:10D85000206901900D480295407C0E46002802D1B7
:10D860000120FDF707FD0020009033463A46512184
:10D8700001A810F0E1FC002804D005A254210BF00F
:10D8800010F90120FEBD0000F8130300B8260020A7
:10D890002E2E5C736F757263655C5254432E630069
:10D8A0001CB500200C4C00900190207F002802D075
:10D8B000684600F025F809480069C007C00F06D087
:10D8C000FEF7A4F9217F002902D005F04FF91CBD15
:10D8D00004F04CFC1CBD0000D826002000050050C0
:10D8E00010B50A20FBF7A5FBFEF7D6F9FEF70CFAF8
:10D8F0000249087400F014F810BD0000D82600207A
:10D900001CB5028869460A8042884A8080888880DF
:10D910000199009802F0AEFD09F048FE1CBD000020
:10D9200010B50C4CFCF7A0F80121206021710020FB
:10D93000E08020816081A0812061A07320756075E6
:10D94000A075E175A076E076207661762077607725
:10D95000A07710BD502F002003490979814201D1E1
:10D960000120704700207047502F0020F8B5994CD7
:10D9700000270220FFF7F0FF0025002804D1032034
:10D98000FFF7EAFF00280AD018216156782901DD47
:10D990000120A076904805720020FEF7EBFF0320DF
:10D9A000FFF7DAFF8D4E31468031E036496D0028B1
:10D9B0000AD0606A081AE1214901884205D901208C
:10D9C000A0763576F57500E061622079022801D0F5
:10D9D000032804D1E17D02290DD003290BD00128B1
:10D9E00002D1E07D012806D065752079022806D095
:10D9F000032804D00AE0607D401C6075F5E715221D
:10DA0000A256142A02DB0120A07506E0012804D1E9
:10DA1000152161560A2900DBA5752179E17500F011
:10DA2000AFFC002803D025760120607602E0207E3E
:10DA3000401C2076A07D002824D0207F4006000EC8
:10DA40002077617F012902D1084320776577207F05
:10DA5000C306DB0E844600210846012282401A429A
:10DA600001D0491CC9B2401CC0B20528F5D3032916
:10DA700000D3A5756046800704D01821615600299F
:10DA800000DDA57518216156052904DD0120FFF789
:10DA900063FF00280DD1182161565A290ADD0220A2
:10DAA000FFF75AFF002804D10320FFF755FF002895
:10DAB00000D065760120FFF74FFF00280CD0E07EF4
:10DAC000002805D0012801D0022803D0032715E043
:10DAD000052713E0012711E00220FFF73DFF002892
