:020000040003F7
:10A00000502F00208DC90300A7C90300A9C9030070
:10A010000000000000000000000000000000000040
:10A02000000000000000000000000000ABC90300B9
:10A030000000000000000000ADC90300AFC903002C
:10A04000B1C90300B1C9030009AE030067B1030041
:10A050009BBF030000000000C5AE0300B1C90300B0
:10A06000B1C90300B1C90300B1C90300B1C90300FC
:10A07000B1C90300B1C90300B1C90300B1C90300EC
:10A08000B1C90300CBC40300B1C90300B1C90300C7
:10A09000E1C40300B1C903003DC90300B1C9030015
:10A0A000B1C90300B1C903000000000000000000B6
:10A0B00000000000000000000000000000000000A0
:10A0C0000348854602F034FD004800470DA4030014
:10A0D000502F0020401E00BF00BF00BF00BF00BFC8
:10A0E00000BF00BF00BF00BF00BF00BF00BFF1D175
:10A0F00070470000401E00BF00BF00BF00BF00BF90
:10A1000000BF00BF00BF00BF00BF00BF00BFF1D154
:10A1100070470000056885F308884068FF2464B232
:10A12000EFF30585002D01D1A646004725460646DA
:10A1300021273FBAF0B40024002500260027F0B400
:10A14000F92040B200470000F549C861F548C169EF
:10A150000129FCD10021C161704700B50346007898
:10A16000012203E0FFF7F0FF985C521C0028F9D1B0
:10A1700000BD10B5EC4803228C0024182260002298
:10A180009C0020180260E648C1604361E7494162D3
:10A1900004210160E649012088600860E14882608E
:10A1A00010BD18B5002415231E2218211F2000946D
:10A1B000FFF7DFFFDF48446018BDCEE70A4610B561
:10A1C0000146DD4801F068FF10BD10B501F0C6FB87
:10A1D00010BDF0B5D948A1B000680090D748D84F5D
:10A1E000001D0468EE20387000262246D5A101A883
:10A1F00002F0C0FCC0B201A90818D8A102F0BAFC54
:10A2000001A8FFF7AAFF31E0FF2C01D8204601E0AA
:10A21000FF20013085B23A462946009800F0BCFB89
:10A22000CFA0FFF79AFF0221CE48CA010170334642
:10A230003946001D01F0FEFB020005D02346CAA1ED
:10A24000684602F097FC6CE048DF002803D000224B
:10A25000114601F021FF01F0B9FFC2480078002843
:10A26000F2D1009876194019641B0090002CCBD1D4
:10A27000BAA0FFF772FFB148C6A10468001D0568C7
:10A28000684602F077FCC0B26844B4A102F072FCE8
:10A290006846FFF762FF2946204600F0C5FC0446E9
:10A2A0000246C6A1684602F065FCC0B26844ABA194
:10A2B00002F060FC6846FFF750FFC8A1684602F054
:10A2C00059FCC0B26844A5A102F054FC6846FFF7EF
:10A2D00044FF03202946C00300F0D4FC0546024693
:10A2E000C8A1684602F046FCC0B268449BA102F0D7
:10A2F00041FC6846FFF731FFAC420ED1C9A1684668
:10A3000002F038FCC0B2684494A102F033FC684605
:10A31000FFF723FF012021B0F0BDCCA1684602F079
:10A3200029FCC0B268448DA102F024FC6846FFF706
:10A3300014FF0020EFE710B500208A4B012901D05F
:10A34000032900D11870100003D00022114601F03B
:10A35000A3FE10BD30B5810AA3B0800500D0491C12
:10A36000C1488D0200690090FF2001300190280A49
:10A37000029001F017FB7B496846091D01F03EFB86
:10A38000040012D0B9A103A802F0F4FBC0B203A9E3
:10A39000081872A102F0EEFB03A8FFF7DEFE002210
:10A3A0002046114601F078FE0CE0BFA103A802F0A0
:10A3B000E1FBC0B203A9081868A102F0DBFB03A807
:10A3C000FFF7CBFE67490320C003091D4860012049
:10A3D000091F087063482946001D01F062FBB8A1FF
:10A3E00003A802F0C7FBC0B203A908185BA102F0E2
:10A3F000C1FB03A8FFF7B1FE23B030BD0068B5492B
:10A40000884201D10120704700207047A0B000F0C1
:10A410009BFCB1481D2140694903884204D00022B9
:10A420001146104601F038FE0120000700690121A5
:10A430008902884204D000221146104601F02CFE09
:10A44000A6480090A64B05220321002002F06FF8D9
:10A45000002803D00022114601F01EFEFFF7A1FEE6
:10A46000A0A1684602F086FBC0B268443BA102F09E
:10A4700081FB6846FFF771FE012000F07AF99F4AE0
:10A480001421082001F016FE002803D000221146F6
:10A4900001F002FEFF208002FFF7B0FF00283DD050
:10A4A00097A1684602F066FBC0B268442BA102F097
:10A4B00061FB6846FFF751FE00229649104600F006
:10A4C000DBFA1E48001D0068FFF744FF254C48DFFB
:10A4D000002803D00022114601F0DEFD01F076FED7
:10A4E00020780028F3D100F0EEF9FFF772FE012882
:10A4F0000DD089A1684602F03DFBC0B2684417A1A7
:10A5000002F038FB6846FFF728FE35DF24E1FF2024
:10A5100000F030FB002000F06AFA1DE110E10000BD
:10A5200000250040002100400007005000E0D70156
:10A530000020004000230040EFBEADDE04FC03001D
:10A54000982400207374617274207570646174695A
:10A550006E67202564206279746573000D0A00001F
:10A560002A000000002000207073746F726167651C
:10A570002073746F7265206572726F723A25642061
:10A580002872656D61696E696E673A256429200DD0
:10A590000A0000007374617274696E6720676574E5
:10A5A00074696E672073706920666C6173682061DE
:10A5B0007070206372633136000000007370692090
:10A5C000666C61736820617070206372633136203D
:10A5D0003D203078253034780000000073746172BB
:10A5E00074696E6720636163756C6174696E67205E
:10A5F0006D637520666C6173682076657269667933
:10A60000000000006D637520666C617368206170E6
:10A6100070206372633136203D20307825303478E5
:10A6200000000000766572696679206D63752066AA
:10A630006C6173682077726974652063726320733C
:10A64000756365737366756C6C790000206D637556
:10A6500020666C6173682077726974652063726329
:10A66000206661696C6564006CD00300536F6D6592
:10A670007468696E672077656E74207665727920DC
:10A6800077726F6E67207768656E20726567697391
:10A69000746572696E6720666F72207073746F7272
:10A6A000616765200A0000005053544F52414745EE
:10A6B000207265676973746572204F4B000000005B
:10A6C0005053544F5241474520636C656172204F8F
:10A6D0004B0000005444505500100010E7C7030021
:10A6E000C02000205B424F4F544C4F414445525DC7
:10A6F000207665723A20312E323000004823002047
:10A70000417070204F544120417661696C61626CE8
:10A710006500000069AA03004F5441206661696C1E
:10A7200065642C2072657374617274206465766947
:10A730006365202E2E2E0D0A0D0A0D0A0000000062
:10A7400023A1684602F016FAC0B268442BA102F0B9
:10A7500011FA6846FFF701FD0320C00302F05EF81E
:10A76000BFF34F8F27492648C860BFF34F8F00BF04
:10A77000FDE71FB5244C00281ECC03946C460EC484
:10A7800007D0684618DF002803D00022114601F0E8
:10A7900083FC1D20400313DF002803D00022114654
:10A7A00001F07AFC194B482219490E2002F0AAF850
:10A7B000002803D00022114601F06EFC154802F07B
:10A7C000B5F8002803D00022114601F065FC1FBD3A
:10A7D0004E6F204F5441207570646174652C207356
:10A7E00074617274206D61696E206170706C696350
:10A7F0006174696F6E202E2E2E0000000D0A00007D
:10A800000400FA0500ED00E06CD003007BC90300F2
:10A8100000230020CBA1030000B58B4985B0B920EF
:10A82000087000201621894A019204910290039039
:10A83000034600900122844900F06DF905B000BD87
:10A8400000B5814985B0AB200870002016217F4AF1
:10A8500001920491029003900346009001227A49EC
:10A8600000F059F9EAE7F0B5794D0646287800245A
:10A8700085B0002802D02C70FFF7E2FF72499020CB
:10A8800008704C708C70CC700C714C7116200621C5
:10A890006E4F0023039104900294012201970094CB
:10A8A0006949184600F037F900F00FF9387930702F
:10A8B000787970702878002803D101202870FFF77C
:10A8C000ABFF05B0F0BD00B56149A3B00120087031
:10A8D000FFF7B6FF6846FFF7C6FF68464378027881
:10A8E0005CA103A802F046F9C0B203A908185DA153
:10A8F00002F040F903A8FFF760FC23B000BD10B5DB
:10A90000514886B005210170AA214170002016210E
:10A9100002224E4C0491029003460194039200904F
:10A92000494900F0F8F800F0D0F8607806B010BDA2
:10A9300070B5474800240178002903D00021017038
:10A94000FFF77EFF7D252D01FFF7D9FFC00705D05A
:10A95000012000F00BF9641CAC42F5D370BD10B5BA
:10A960003B480024017886B0002902D00470FFF72C
:10A9700067FF3549062008701620344900230191ED
:10A98000049002940394012200942F49184600F089
:10A99000C2F8FFF7CDFFC9E7F7B52D4D044628787B
:10A9A000002686B00F46002802D02E70FFF748FF21
:10A9B000254803210170210C4170210A8170C47067
:10A9C0000898042201AC85C4162100230491009646
:10A9D0001D49184600F09FF800F077F82878002805
:10A9E00003D101202870FFF717FF09B0F0BD70B543
:10A9F000174E04463078002586B0002802D0357006
:10AA0000FFF71EFFFFF7ABFF0F4820210170210C5D
:10AA10004170210A8170C47016200C4900230191F5
:10AA2000049002950395042200950749184600F00A
:10AA300072F8FFF77DFF3078002803D101203070D5
:10AA4000FFF7EAFE06B070BD98250020A225002081
:10AA50000C20002049443A20253032782C20253023
:10AA6000327800000D0A000001B568460078012820
:10AA700001D13549087008BD70B586B014460E4640
:10AA8000054618223149684601F0FEFF002D05D128
:10AA900017200190192002901E200390002C01D055
:10AAA000012000E0002069460875284600F090FB70
:10AAB000040003D00022114601F0EEFA3146284688
:10AAC00002F0C7FA204606B070BD70B51E4DA0B0AA
:10AAD000287800281CD10024FF26F536642000F0D9
:10AAE00045F82878002803D1641CA4B2B442F5D3F9
:10AAF000224617A1684602F03DF8C0B268441AA188
:10AB000002F038F86846FFF758FB2878002800D094
:10AB1000012020B070BDFFB585B00FACF0CCFFF7C1
:10AB2000D4FF09490020087001A8F0C00E980090D9
:10AB300005A80FC800F0C3FB002803D0002211466F
:10AB400001F0AAFA09B0F0BD0D20002088D0030062
:10AB50005B5350495D2077616974206379636C654C
:10AB60003A202564000000000D0A000010B500F036
:10AB700093F910BD10B504461849A0B00120087023
:10AB8000204628DF0246234615A1684601F0F2FF61
:10AB9000C0B2684418A101F0EDFF6846FFF70DFB55
:10ABA00000F00EF820B010BD10B5002305E00478C9
:10ABB0005B1C0C70401C9BB2491C9342F7D310BD28
:10ABC00070B5064D00242878002806D00220FFF733
:10ABD000CDFF641CA4B2642CF5D370BD0E20002000
:10ABE00053595320666C6173682065726173653ACE
:10ABF0002025642C202564000D0A000070B5034652
:10AC000010460022074C09E01D78060A75406D00C9
:10AC1000655B00024540521CA8B25B1C8A42F3DB14
:10AC200070BD0000A0D00300F0B5074648022C4ECE
:10AC3000050CA1B00C4648061FD06D1CADB21CE03F
:10AC4000802C01D9802000E0204681B26A46384637
:10AC5000FFF7A2FE802C01D9802100E02146324678
:10AC60006846FFF7CBFF0646802C01D9802000E024
:10AC700020466D1EC719ADB2803C002DE0D1304694
:10AC800021B0F0BDF0B507464802154E050CA1B045
:10AC90000C4648061FD06D1CADB21CE0802C01D9BB
:10ACA000802000E0204682B269463846FFF77CFFEC
:10ACB000802C01D9802100E0214632466846FFF70A
:10ACC0009DFF0646802C01D9802000E020466D1EA5
:10ACD000C719ADB2803C002DE0D13046D0E700006E
:10ACE000FFFF00001CB5002810D001280ED121491B
:10ACF000214C03C9019100902078002806D16846B4
:10AD000001F013F901202070FFF730FF1CBD1FB5C3
:10AD1000184B9A68DB68019202936A4610731648D2
:10AD200051730078002802D10120FFF7DBFF0020DB
:10AD30000090022303AA092101A801F026F90028A6
:10AD400000D0012004B010BD10B595210120FFF7FF
:10AD5000DEFFBC210A20FFF7DAFFBC210B20FFF742
:10AD6000D6FFBC210C20FFF7D2FF00210D20FFF7FA
:10AD7000CEFF10BDA0D203000F2000201CB541491A
:10AD80000120C8604049487003206A4610708968F5
:10AD9000684688471CBD70B5022401223B4D394EE0
:10ADA0003949030001F0FAFE05040C2619200B00B6
:10ADB0004878012818D0022801D10320487070BDBE
:10ADC0004878002802D00328F9D104E00420286044
:10ADD00032604A7070BD4C7070BD4878012806D052
:10ADE000022804D00328F7D100F042F870BDFFF725
:10ADF000C5FF70BD48780128FBD14878022800D0F3
:10AE0000B2608878E861E6E7FEB5214CA0681E4D87
:10AE1000204E002700280ED0706840070BD5A76091
:10AE20001A4880690422C0B2A88069460A70087175
:10AE3000A96868468847E069002806D0706800065F
:10AE400003D5E7610320FFF7A6FF606A00280ED054
:10AE5000706880050BD567620C4980390868086006
:10AE600002216A4611700190A96868468847FEBDB4
:10AE700005490020487003490122CA604A6003491D
:10AE8000086070470020004014200020002500408A
:10AE9000002100400023004031B5054C04E0401E75
:10AEA00000902046FFF716F900980028F7D138BD2A
:10AEB000E703000048490969C140C807C00F00D036
:10AEC00001207047F8B50024FF25013501262746EB
:10AED0000094284600F066F8002808D03F484068F3
:10AEE000304204D03E4800212818344301602D1D13
:10AEF00076007F1CADB2042FEBD3FF207D3000F035
:10AF000051F8002807D0374800210160400704436A
:10AF1000314800690090344E200712D001270025E7
:10AF200027420AD03148AA00111808690969C004EB
:10AF3000C00E8903B258890F90477F006D1C042D05
:10AF4000EED3002C1DDA3046203014214156491C26
:10AF500017D0077DBC06A40E204600F037F880000D
:10AF60003558002D0DD0BE090121A140204AA00076
:10AF700080180068009A8003800F114202D00228D6
:10AF800002D0F8BD0328FCD1032E05D1022807D03A
:10AF90000221204600F00DF831462046A847F8BDB2
:10AFA0000321F6E70E4940180068012800D0002070
:10AFB000704782000E481018026803231B049A434E
:10AFC0000260026809040A430260704706490918D2
:10AFD0001420085670470000000500500063004030
:10AFE000006000407C610040AC250020006500400E
:10AFF00000070050F8B515460E46040004D10022A3
:10B000001146104601F048F8606B002808D0FC4853
:10B0100000680090684606704580616B009888471C
:10B02000F8BDF8B51C4615460E46070004D10022AF
:10B030001146104601F030F8002E04D100221146CE
:10B04000104601F029F8002D04D1002211461046C7
:10B0500001F022F8002C04D100221146104601F024
:10B060001BF800203860306028802080F8BD70B563
:10B07000040004D100221146104601F00DF8208E84
:10B08000401C208625462035687E0126002805D1F3
:10B090006E76228E00212046FFF7ACFF2068052146
:10B0A000090240188069C2B2608D238C984203D295
:10B0B000608D401C60850CE0606A002809D0A08D7E
:10B0C000238D984205D2A08D636A1B18401CA08571
:10B0D0001A70608BE28D904221D2A068002809D0BE
:10B0E000E08AA289904205D2E08AA2681218401C28
:10B0F000E0820BE0206900280AD0208BA28A9042CF
:10B1000006D2208B22691218401C2083107800E0A0
:10B11000002022685118C861608B401C6083208E1B
:10B12000E18D88421ED3A87C8640B6488660E08ABE
:10B13000218B224640180C3286B223461433111D4F
:10B14000101FFFF76EFF2346283320462A46191F9B
:10B150001C30FFF766FF0220287632460121204688
:10B16000FFF748FF70BD10B5A748816801290AD1D3
:10B17000A6494968490706D500218160084600F0C4
:10B180000FF9FFF774FF10BD7FB514000D4606469A
:10B1900003D11146104600F07FFF26602571002084
:10B1A0002061A060A081A082E0822083606220856F
:10B1B000A085E061208460852086E08521462031DD
:10B1C00088746063087648766846007B88767FBD21
:10B1D000F8B50D00064604D000F0E2F8040007D1EF
:10B1E00001E00E20F8BD00221146104600F054FF89
:10B1F000002E0AD1E87D002801D0012300E00023C1
:10B20000224603218248FFF7BFFF686803218200BE
:10B21000804812181160EA68920012181160A9683B
:10B22000002789000818076068682168052636022B
:10B2300089198860E86821688919C860A868216848
:10B24000891908612868216889194862A87D697D83
:10B25000400089000843297D084321688919486511
:10B260002068FF30013087600420205632DF00283C
:10B2700003D00022114600F00FFF0420297C205645
:10B2800033DF002803D00022114600F005FF67637A
:10B2900021680420032212028918486020562EDFFC
:10B2A000002803D00022114600F0F6FE216801209C
:10B2B000891908600220203420760020F8BDFFB5EF
:10B2C00083B0109E00F06CF8040004D100221146F7
:10B2D000104600F0E1FE00206946009008710F99C9
:10B2E0000E982546401880B202900C990598401897
:10B2F00087B22035A87E002802D001A836DF02E000
:10B30000042020562FDF002803D00022114600F031
:10B31000C3FE287E022801D011202DE00298B842F9
:10B3200000D90746002F26D001212976002020864B
:10B330006876E785049AA260059AA281069A22613E
:10B340000C9AA282E0822083E0610E9A22840D9AF8
:10B3500062620F9A22856085A0852A48B14081608B
:10B360002C4F0322B300DB191A60C160AE74204673
:10B3700000F01CF801E007200090A87E002803D010
:10B380006846007937DF02E0042020562EDF0028CF
:10B3900003D00022114600F07FFE009807B0F0BDF8
:10B3A000002801D0002070471B48704710B50400EA
:10B3B00004D100221146104600F06EFE0022628386
:10B3C000A16805200002002909D0E18AA3899942D9
:10B3D00005D2E18AA3685B18491CE1820BE0216970
:10B3E00000291BD0218BA38A994217D2218B236974
:10B3F0005B18491C2183197823681B18D96110E058
:10B40000B0D203000005005000310040003300407E
:10B410000030004000070050E42500202168091892
:10B42000CA61618B491C6183618BE38D994223D290
:10B43000A168002909D0E18AA389994205D2E18A4D
:10B44000A2685218491CE1820BE0216900290DD045
:10B45000218BA38A994209D2218B22695218491C57
:10B460002183117822681018C16102E02168081850
:10B47000C261608B401C608310BD000018225043E5
:10B48000F64A0021801801718160416102228161C8
:10B490000261C160704738B50C46E2680978032A3A
:10B4A0000CD0EE4B1201F4339D58ED4A526A0092D3
:10B4B000024620460C306369A84738BDE84A283266
:10B4C0001568F2E7F8B5E5481822017801245143E0
:10B4D0000D182407AA682069182683B2DF48E04FB8
:10B4E00001782D1D714309184E69C86889693018A3
:10B4F0009A420CD923699BB2D31A2269C01812044C
:10B50000920CC91800F040FB206980B203E0920859
:10B5100000F03AFB68683862F8BDFEB5CF481822E3
:10B520000178012451430D1828696F6901010290C7
:10B53000CA48F43008188668C16801914068240739
:10B54000009020692D1D81B2384601F087FA00294C
:10B550002FD0002201986968464300989446361817
:10B56000A86800230A18D519BD4A53616246002A0B
:10B5700007D0226992B291421DD0B54201D1002874
:10B5800019D00299032916D02169C01989B201F096
:10B5900065FAB34F88083861206981B2284601F006
:10B5A0005DFA002910D00020B5422AD000280DD025
:10B5B00027E00122CEE7206981B2384601F04EFA39
:10B5C000A749886103201DE00120EDE7206981B2D1
:10B5D000304601F043FA0090206981B2284601F01C
:10B5E0003DFA01460098884201D1701B07E02069AE
:10B5F00081B2284601F032FA206980B2401A8008F0
:10B600007861022000F018F8FEBD10B593481822AA
:10B61000017851430818924A8168516200790128E3
:10B6200006D0032801D0042801D1FFF776FF10BD12
:10B63000012000F001F810BD10B5894900280870FC
:10B6400009D0012811D0022812D0032802D188691C
:10B6500000F05CFA10BD0020C86108627F484078A5
:10B660000028F7D0FFF7D1FF10BDFFF72BFF10BD6B
:10B6700000F058FA10BD10B5784C182120784843D6
:10B6800001190020091DFFF706FF2078FFF7F6FEDD
:10B690006078401E60702078401CC0B220700A287C
:10B6A00001D1002020700020FFF7C6FF10BD10B5AB
:10B6B0000121090748690A69096992B2504389B2B0
:10B6C00001F0CCF900F022FA10BD10B501210907F4
:10B6D00048690A6992B250430A6909691204920CD6
:10B6E0005F4B89B29B69594300F04EFA10BD10B50B
:10B6F0005B48806900F00AFA10BD70B557481822FF
:10B70000017801255143081882684169C068101802
:10B7100044182D07286981B2204601F09FF9686915
:10B720002A6992B250434E4A41182046526900F0AD
:10B730002BFA70BD10B5012000074169026900694C
:10B7400092B25143464A80B2936912695B1E5843D4
:10B7500000F01AFA10BDF8B5404C069E65780A2D27
:10B7600019D027787D190A2D00D30A3D18277D436B
:10B770002D192871AA6103C9EE60AB606961286167
:10B780006078401C607036480078002801D1FFF7CF
:10B790003CFF0020F8BD0420F8BD10B52F4818224A
:10B7A00001785143081882684169C068491E101821
:10B7B000401801210907096989B201F04FF9284AA7
:10B7C0009169814206D3814202D15069002801D09B
:10B7D000002010BD012010BD70B5214C6568280700
:10B7E0002ED41E48182201785143081882684169F6
:10B7F000C068491E1018401801210907096989B25B
:10B8000001F02CF961690026002908D0A169814264
:10B8100005D1012005432661002065600AE0FFF79D
:10B82000BCFF002802D00220266103E060690028E6
:10B8300003D0032000F06FF970BD00F0AAF970BDCD
:10B8400000F0B7F970BD10B505480079000702D4C3
:10B8500000F09FF910BD00F0ACF910BD20260020CB
:10B860002020002010B5E14C207900071FD4A069EA
:10B87000401CA0612069002801D0042004E0FFF7EB
:10B880008CFF002803D0022000F045F910BD60694C
:10B89000002809D06068C10701D00320F4E7012126
:10B8A000084360600020EFE700F073F910BD00F07E
:10B8B00080F910BD10B5CD4841680A0708D48A0741
:10B8C00002D5012211434160022000F024F910BD8D
:10B8D00000F06FF910BD10B5C4480079000703D41B
:10B8E000012000F018F910BD00F063F910BD10B58B
:10B8F000BE4C217820464068012906D0022927D075
:10B90000032910D1000715D511E000070FD4B8485E
:10B9100018220178514308188168226A891A8160C7
:10B9200002D0FFF7CFFD10BDFFF7A5FE10BD00F060
:10B9300047F910BDA069401CA061FFF72EFF002849
:10B9400003D02078FFF778FE10BD00F022F910BD7B
:10B950006078A84980000858804710BD10B5A349F9
:10B9600002460878002811D004280FD0022A16D0E9
:10B97000032A0BD10A79120711D4CA69521CCA6171
:10B98000032A08D0022802D0FFF756FE10BD4878DF
:10B9900000F0C1F810BD0D2000F0ABF810BDFFF7AE
:10B9A000A6FF10BD70B50024914825460470447070
:10B9B0002846FFF763FD6D1C0A2DF9D38B48012241
:10B9C0001207846051691269891E92B251438461E1
:10B9D000C160874A0021F4320B01D4509B189C604F
:10B9E000491CDC600229F7D3804928310C600470BF
:10B9F000C461042104624160002070BD7B4A127959
:10BA0000520701D40820704700280BD0002909D024
:10BA10000268002A06D0754A28321368002B03D02A
:10BA2000042070470E20704703230B6000681060ED
:10BA300000207047F8B504466C481F46007915464B
:10BA40000E46400701D40820F8BD002E05D0002C7A
:10BA500003D02068032820D101E00E20F8BD002D7E
:10BA60001BD0084600F03FF8002818D0284600F008
:10BA70003AF8002813D0384600F035F800280ED0E8
:10BA8000606800F030F8002809D02B463246214685
:10BA900001200097FFF75FFEF8BD0720F8BD1020DA
:10BAA000F8BD38B5044651480D460079400701D429
:10BAB000082038BD002C04D02068032803D00720BC
:10BAC00038BD0E2038BD606800F00DF8002808D0A1
:10BAD0000020024600902B4621460320FFF73BFE44
:10BAE00038BD102038BD800701D0002070470120EC
:10BAF000704710B53E4918230A785A435118091D5A
:10BB0000FFF7C9FC0420FFF797FD10BD10B528DF33
:10BB100000F060F810BD354948703649800014398E
:10BB200008580047F8B5314C1822606845086D0088
:10BB30002F486560017851430E187069009001200C
:10BB40000007006981B2009800F088FF0746A061F5
:10BB5000012000070069B26881B20098401E1018E9
:10BB600000F07CFF0221874201D10D4300E08D43AC
:10BB70002846084065602169084303D00020FFF78C
:10BB8000CAFFF8BD0220FAE710B529DF00F022F85D
:10BB900010BD10B5164818220178514308180079D5
:10BBA000042802D0FFF767FD10BD0120FFF744FD18
:10BBB00010BD0E4808224168914341604078AAE7D1
:10BBC00010B50A4808224168914341600078FFF7A8
:10BBD00033FD10BD002807D0112800D089E70348A5
:10BBE0000822416811434160704700002020002076
:10BBF00020260020C8D20300F0B442791C23FF4C59
:10BC00005A4312195278FF4E9500FD4A53590022AB
:10BC1000755911E0D6009E5D8E420CD1D100C91835
:10BC20004B7842791C256A431219537049680029E0
:10BC300004D0F0BC0847521C9542EBD8F0BC7047CA
:10BC400070B5054640791C214843EC4944182868E2
:10BC5000FF30FF3002300168890889000160608A86
:10BC6000218A401C241D884202D1607800280ED011
:10BC700001262868FF30FF3002300168314301603F
:10BC8000207C20212174296801220A5070BD0226DF
:10BC9000FF20053060822868618A0022425068795E
:10BCA000D74980000839085800280BD02A686169F4
:10BCB0000320000212189160022161612A68616903
:10BCC0001018416004212846FFF796FFD1E741791B
:10BCD0001C225143C94A89180268CB68498A595CB9
:10BCE00005231B02D218D161AAE730B441791C2286
:10BCF0005143C24A891802680B7A0B24E4011219D5
:10BD0000936002680123136208220A75FF221D3224
:10BD1000CA820268CB8A0024D4504279B84B920080
:10BD2000083B9A58091D002A0BD003684A6903246E
:10BD300024021B199A6080224A610268496912191B
:10BD4000516030BCC3E77BE730B441791C225143DA
:10BD5000AA4A036889180A7A0B24E4011B199A601D
:10BD600002680123136200220A75FF230933CB8284
:10BD70000368CC8A1A514279A14B9200083B9A5829
:10BD8000091D002A0BD003684A69032424021B19E9
:10BD90009A6004224A61026849691219516030BCF4
:10BDA0004EE730B441791C225143944A8918026805
:10BDB00005231B02D2189269CB684C8A1A554A8A0D
:10BDC000521C4A824A8A098A8A4201D230BC37E729
:10BDD00030BC704741791C225143884A89184A8AED
:10BDE000521C4A824A8A098A8A4200D26FE7704707
:10BDF00010B541791C225143804A8918FF2205322F
:10BE0000CA820268CB8A0024D45042797C4B9200CB
:10BE1000083B9A58091D002A0BD003684A6903247D
:10BE200024021B199A6002224A61026849691219A8
:10BE300051600268012111620068416110BD4079C2
:10BE40001C2148436D4940180121C1717047FEB55E
:10BE500005466C791C267443684E0898A419A77986
:10BE6000241D002F01D01120FEBD0127A7702171D4
:10BE7000A381A2600021E181607009982070E170C7
:10BE8000207800280AD02846FFF7B6FE68795C497A
:10BE9000800008390858002802D044E00121F2E768
:10BEA0002078002801D0022000E00320009068796B
:10BEB0001C2148435149002647183F1D798A2868AC
:10BEC00000F071F80190FF212531286800F06BF82F
:10BED00001464D48761C864201D3012000E0002037
:10BEE000084301990143E9D00121484006D1FF21CF
:10BEF000253128680022425005200090618A286878
:10BF00000022425028460099FFF776FEE07800288C
:10BF100003D00020A0700320FEBDE089A1898842E3
:10BF2000C5D30020A0700020FEBD10B5FF2305334F
:10BF300002680021D15002681B1DD150FF23026806
:10BF40001D33D150FF2302682533D15042792C4B49
:10BF50009200083B9A58002A06D001230324026865
:10BF60005B02240212195360052302681C02121995
:10BF70001360437902241C225343204AD45440794D
:10BF80001C2358438018417010BD7CB5069C0125C8
:10BF900001950094FFF75BFF7CBD10B500211B48A5
:10BFA00000F006F810BD4058002800D0012070476E
:10BFB000F3B585B0054606981C2148430F4944183F
:10BFC000FF2125312846241DFFF7EDFF618A074632
:10BFD0002846FFF7E8FF0026FF2125316E50FF219C
:10BFE0001D316E50FF2109316E50091F6E503843CC
:10BFF0004CD0002F0CD0052110E000003427002089
:10C0000054200020ECD20300FF0F0000004000404D
:10C010002078002801D0022100E003210698870043
:10C020001B48C059FFF7E8FDE0781949091F0028AF
:10C0300016D0A67017484DC8009001A84CC0A06843
:10C040000190E08902900920C0012A18506C5064C8
:10C05000800701D5022000E004206A46107312E038
:10C06000E089A289904211D3009601960296039628
:10C07000A6702078002800D001206A461070A068C1
:10C080000190E0890290C9591046884707B0F0BD79
:10C090005020002000D30300BFF34F8F0449034812
:10C0A000C860BFF34F8F00BFFDE700000400FA0532
:10C0B00000ED00E030B5CB0008339DB293070024BB
:10C0C000002B01D0072030BD574B9A605219DA601F
:10C0D0005C701C7058809980002030BDF7B5524CC0
:10C0E00082B060880F4681426ED800206946087091
:10C0F0004F494E4E4868C005C00D18D0103840B2A8
:10C10000002807DA0207120F083A92089200511825
:10C11000C96904E08108474A8900891809688007CD
:10C12000C00EC1400806850F012D01D10AE004258B
:10C13000684636DF02280CD0002803D000221146C2
:10C14000FFF7AAFF22786078A188884203DA401CB2
:10C1500002E072B6F6E70020C0B2904207D06678DF
:10C160006078884201DA401C00E000206070012DF8
:10C170000BD062B66846007837DF022805D0002869
:10C1800003D000221146FFF787FF2848864219D0C6
:10C19000A068F50004994151029900290CD0002FA4
:10C1A0000AD060883A464643E068301800F06CFCDC
:10C1B000A0682818878002E00021281881800020CC
:10C1C00005B0F0BD0420FBE70920F9E70EB504E057
:10C1D00068468188029A0098904702AA01A9684699
:10C1E00000F003F80028F3D00EBD70B50E4B052407
:10C1F0001D785E78AE4215D01D781C789E88B442BA
:10C2000001DA641C00E000241C705C88DE686C436A
:10C21000A41904609B68E800C418A4880C8018580E
:10C2200000241060204670BD68200020FFFF000041
:10C2300000ED00E000E400E08307FF22DB0E9A40FF
:10C240008907090E994000280BDA0007000F08380B
:10C250008308F8489B001818C36993430B43C361D4
:10C2600070478308F4489B001B18186890430843E4
:10C270001860704770B50124F04960040860F04907
:10C2800040108860EE4940398860EE4D6C602F2088
:10C29000FDF730FFAC60EC4D00242F206C61FDF702
:10C2A00029FF2C7170BDF0B5E74F2421BC684143D4
:10C2B0000D1939694A1C09D024224A4316196B68A2
:10C2C0007268934204D8D21A726029623861F0BD54
:10C2D0000A4602E00A46396A9B1B4E1C0BD02426F4
:10C2E0004E4337197E689E42F4D324264E433619B6
:10C2F0007768FF1A77606B60296224214A4311191D
:10C300000862F0BD70B5D04C2269A568134611468D
:10C3100006E0814207D00A46242671434919096A7A
:10C320004E1CF6D170BD002EFCD08A420CD12420C8
:10C3300043435819006A2061401C05D1C14B0120BC
:10C3400098600023636160712420414348192423CD
:10C3500041685A43006A52191062421CE2D02422FA
:10C360005043401942685118416070BDF8B5B64C51
:10C370002569681C35D0B548002640686169401AB7
:10C3800007023F0A19E024204543A0682A18506894
:10C39000B84214D8A3693F1A8619156A002B09D030
:10C3A000D16990699847002807D000221146FFF70D
:10C3B00073FE02E09169D0698847681CE3D1A178D7
:10C3C000E078814206D1401CC0B2E070022801D161
:10C3D0000020E0709C490006800D1C310E5000F0DA
:10C3E000F9F8F8BDF8B504469748002701690091AF
:10C3F00046785CE09448F100C2688D1851E0601CFA
:10C4000007D0914A24209268604321468018046A2C
:10C4100024E02878182141436A68401CC0B25218B1
:10C420002870A978884200D12F70874B516824204A
:10C430009B684843C0181378012B34D1037D002B2F
:10C4400031D193688360D368C36013690361526913
:10C45000C2617D4A5279002A00D087607A4B826897
:10C460005B6996469C46D31A1A02794B120A9A4285
:10C4700002D2C368D21808E0724663469A1A1202C2
:10C48000C368120A934202D99A1A426000E04760D8
:10C4900087600122C7600275921E02620846FFF79C
:10C4A00002FF601CABD1287869788842A7D130465A
:10C4B000761EF6B200289DD163480169009881423A
:10C4C00001D00120F8BD0020F8BD624900200860BD
:10C4D00048608860C8605F4940390860486045E747
:10C4E000FEB50020C043584D02906869019068462F
:10C4F0002E6900F075F8074600F08FF80446002F0B
:10C5000008D002AA0199009800F0E4F80298FFF719
:10C5100069FF06E00298FFF765FF002801D1002CB3
:10C5200002D0304600F0FFF800206871FEBDFFB574
:10C530009807002481B01E4615460F4600280BD1EF
:10C54000002E09D0FFF796FE3F490A9888610F70C8
:10C55000324600208E6008E0072005B0F0BD24239D
:10C560004343D4549B181C75401CB842F7DB24206D
:10C570004743BB19032048700F461846CB60194645
:10C580001830002218232E465E43D3005B181C701F
:10C590005C709D7058603018521C032AF5DB002037
:10C5A000C0433861BC70FC7001242B482405046032
:10C5B00003211420FFF740FE204880380460234CFC
:10C5C0000198A06003211120FFF736FE60687861B2
:10C5D0000020C2E70120194900058031086070473A
:10C5E00010B5194900238A78CC78A24212D0521C87
:10C5F000D2B28A70022A00D18B708A78124B9200D4
:10C600001C339A580260486910180002000A4861F9
:10C61000012010BD0360002010BDF8B50A48016973
:10C620000091457848E00848E900C0680E18347861
:10C630003FE0000000ED00E000E400E080E100E009
:10C6400040130140001001407820002000150140F7
:10C65000FFFF7F004011014080E200E018206043AE
:10C660007168641C0818B178E4B2A14200D10024BA
:10C670000178022902D003291BD113E04D4A4068FA
:10C680002421926841438F18397D002911D0FFF78A
:10C6900039FE002038750CE024277843C018027555
:10C6A000006A03E0434900228B680869471CF3D104
:10C6B00008617078A042D1D128466D1EEDB20028E5
:10C6C000B1D13C4801690098814201D00120F8BDF8
:10C6D0000020F8BDF7B5374C0025A76823691EE098
:10C6E00024215943C9194E68864202D9301A48603C
:10C6F00017E0801B751900264E600E750E699C466A
:10C700000B6AB646002E0AD0019E76193602360A0A
:10C710008E607646CE6016680E6261461160591CC6
:10C72000DED12361FEBDF8B5224801694A1C3DD027
:10C7300024225143826889184E681F494C68476912
:10C740000079E11B0D022D0AED1C002814D10120F7
:10C750001A4A00045060194A403A50601849400093
:10C760000860184908601849012008602F20FDF76B
:10C77000C1FC104901200871B54200D23546E819C4
:10C7800000020D49000A403108600B494968001B4E
:10C79000091B0902090A0002000AC91C814204D9C6
:10C7A00001200749400480390860F8BDFFF762FDA9
:10C7B000F8BD000078200020001501404013014022
:10C7C00080E200E000E100E00010014010B5044606
:10C7D000082904D0002211461046FFF75DFC2168AD
:10C7E0006068884710BD1CB501910090024A08217D
:10C7F0006846FFF773FC1CBDCDC7030010B51B488E
:10C800000378012B03D1012901D10221017010000D
:10C8100003D000221146FFF73FFC10BD70B511DFB9
:10C82000002803D000221146FFF736FC10490020F3
:10C830000A680F4B012180330C468440144204D017
:10C84000C506ED0E0C46AC401C60401C2028F3D3FE
:10C850000324E403204613DF002803D000221146FE
:10C86000FFF71AFC204600F005F870BD9C20002060
:10C8700000E100E010B5FDF74DFC10BD10B5084615
:10C880001146FDF79BFC10BDF8B5344C207800280C
:10C8900037D02069002807D00026E068002805D09E
:10C8A0000025002E04D013E00126F6E70125F8E765
:10C8B000684651DF052806D0002806D00022114620
:10C8C000FFF7EAFB04E0012602E0216900988847AF
:10C8D000002D12D1608869460880A06861DF0528B4
:10C8E00006D0002806D000221146FFF7D5FB04E051
:10C8F000012502E0E168A0688847002ED8D0002D0D
:10C90000CFD0F8BD70B5002901D08C0701D0072029
:10C9100070BD124C0125A16062801149636010DF77
:10C920000028F5D1257016202EDF70BD002803D019
:10C930000A490861002070470E20704710B507486B
:10C940004068002807D08047002803D00022114605
:10C95000FFF7A2FB10BDFFF797FF10BDA820002036
:10C960007DC8030010B5002904D0002211461046EE
:10C97000FFF792FBFFF788FF10BD10B50021024AB8
:10C980000846FFF7ABFB10BD65C90300032109484A
:10C9900002680A430260084802680A4302600748C6
:10C9A000804707480047FEE7FEE7FEE7FEE7FEE7B1
:10C9B000FEE700002405004054050040C5C90300FF
:10C9C000C1A0030010B500F01DF8002805D01F49D4
:10C9D0001D484860C8131E4988611E48018CC9B2B1
:10C9E00001290ED1818C09070BD1018D0906090F90
:10C9F000042906D1808D0006000F02D116490120BE
:10CA0000886010BD1348018CC9B2012917D1818CEF
:10CA1000090714D1018D09060A0F03D1828D120670
:10CA2000120F0ED0090F012903D1828D1206120FA9
:10CA300007D0032903D1808D0006000F01D000200C
:10CA40007047012070470000DFFF07C0000500406D
:10CA5000006C0040C00F00F00006004030B50B46EF
:10CA6000014600202022012409E00D46D5409D42C8
:10CA700005D31D469540491B25469540401915464E
:10CA8000521E002DF1DC30BD03460B439B0703D043
:10CA900009E008C9121F08C0042AFAD203E00B7883
:10CAA0000370401C491C521EF9D27047F0B51FB4E8
:10CAB0000646002082B005464024019100901BE00C
:10CAC000019922460F46304600F020F8049A059B53
:10CAD000801A994110D310461946224600F03AF8C0
:10CAE000361A8F410197224601200021009F00F055
:10CAF00031F838184D4100902046641E0028DFDCD4
:10CB0000019B00982946324607B0F0BD10B5202A97
:10CB100004DB0846203AD040002110BD0B46D3402C
:10CB2000D0402024A21A91400843194610BD0000AD
:10CB3000064C0125064E05E0E36807CC2B430C3C70
:10CB400098471034B442F7D3FDF7BEFA98D30300E8
:10CB5000B8D3030010B5202A04DB0146203A9140E7
:10CB6000002010BD914020239C1A0346E340194346
:10CB7000904010BD0FB410B504A9074B02AA03984A
:10CB800000F028F8044602A9002000F05DFA2046D3
:10CB900010BC08BC04B0184749D0030030B4744638
:10CBA000641E2578641CAB4200D21D46635D5B00A9
:10CBB000E31830BC184702E008C8121F08C1002A59
:10CBC000FAD170477047002001E001C1121F002A0E
:10CBD000FBD17047FFB591B00F460546002606E031
:10CBE00025280AD0149A139990476D1C761C287832
:10CBF0000028F5D1304615B0F0BD00240094012185
:10CC0000F34A029400E004436D1C2B780846203B55
:10CC100098401042F7D128782A280ED0022128788F
:10CC20000246303A092A15D8009A0A235A43303A64
:10CC300080180C436D1C0090F1E701CF0090002894
:10CC400005DA01204003044300984042009002208E
:10CC500004436D1C28782E2815D1042004436878DD
:10CC60006D1C2A280AD101CF6D1C02900BE002999D
:10CC70000A225143303940186D1C02902878014631
:10CC800030390929F3D928786C2810D006DC4C28D3
:10CC90001AD068280ED06A2817D104E0742813D05F
:10CCA0007A2812D110E00120400504430CE0012154
:10CCB000090501E0032109050C436978814203D18C
:10CCC0000120000524186D1C6D1C287803906E2827
:10CCD0001ED00CDC632831D004DC00288AD0582810
:10CCE00011D1B2E064287BD069280CD178E0732898
:10CCF0002DD004DC6F2870D0702804D1A7E07528EF
:10CD00006CD078286BD0149A13999047761C62E007
:10CD10006002400F022807D003280AD00428386890
:10CD20000AD006603F1D56E03868F1170660416082
:10CD3000F8E738680680F5E70670F3E73878694663
:10CD400008740020487404A80390012003E03868A8
:10CD500003900020C0433F1D61070FD5002101E073
:10CD60000199491C029A0191914213DA8142F7DB41
:10CD7000019A0399895C0029F2D10BE0002101E0BE
:10CD80000199491C01918142FADB019A0399895C5E
:10CD90000029F5D101990098139A401A0090214674
:10CDA000149B00F03BF901998019461807E003989D
:10CDB00003990078491C0391149A1399904701989C
:10CDC000401E0190401CF2D12146149B139A0098FA
:10CDD00000F014F986196D1C09E741E033E034E0F6
:10CDE0000A200021049005916002410F022905D01C
:10CDF00001CFC2179446032905D007E0FF1DFF08A5
:10CE0000FF0003CF06E000B2C2179446042902D106
:10CE100040B2C1178C4600226146944506DA0A46A4
:10CE20000021404291418C462D2102E0210504D58C
:10CE30002B216A461176012103E0E10701D0202170
:10CE4000F7E7019154E00A200BE0102009E01020E0
:10CE5000049000210420044308200591029003E07F
:10CE600008200021059104906002410F022905D09D
:10CE700001CF00229446032906D006E0FF1DFF08DB
:10CE8000FF0003CF8C4603E080B2042900D1C0B27A
:10CE90000021019121072BD50399702906D0049A0E
:10CEA0001021059B4A401A4305D00EE040216A46F6
:10CEB0001176012108E06146014306D030216A461F
:10CEC00011760399517602210191049A0821059B5C
:10CED0004A401A430CD16146014301D1610707D58D
:10CEE00030216A461176012101910299491E029171
:10CEF0000399582904D037A103910FA90F910DE090
:10CF000039A1F9E76146059B049AFFF7CFFD039B22
:10CF10008C469B5C0F9A521E0F9213706146014320
:10CF2000F0D10F9807A9081A20300390600704D5A4
:10CF3000012000048443029801E00120029003993B
:10CF4000884201DD401A00E000204118029001985B
:10CF500009180098401A0090E00306D42146149B5B
:10CF6000139A009800F05AF886190020049008E0FF
:10CF700006A9085C149A139990470498401C761CE3
:10CF8000049001998842F3DBE0030CD52146149B01
:10CF9000139A009800F042F8861904E0149A3020A1
:10CFA00013999047761C0299481E02900029F5DCDF
:10CFB00008E00F980F990078491C0F91149A139963
:10CFC0009047761C0399481E03900029F1DCFBE68C
:10CFD000092801003031323334353637383961624F
:10CFE0006364656600000000303132333435363713
:10CFF000383941424344454600000000F8B5044634
:10D0000000251E461746880404D405E03946202032
:10D01000B0476D1C641EF9D52846F8BDFFB504461F
:10D02000002581B01E46C80301D5302700E0202727
:10D03000880404D505E038460399B0476D1C641E8A
:10D04000F9D5284605B0F0BD0A68531C0B60107076
:10D05000704770B50D46FEF7A3F9040004D1002215
:10D0600011461046FFF718F8656370BD0200000016
:10D0700000000000000000000000000037A30300D3
:10D08000000000000000000000000080FFFFFFFF24
:10D09000FFFFFFFFFFFFFFFF030000000100000094
:10D0A00000002110422063308440A550C660E77024
:10D0B000088129914AA16BB18CC1ADD1CEE1EFF1CC
:10D0C0003112100273325222B5529442F772D66274
:10D0D000399318837BB35AA3BDD39CC3FFF3DEE31C
:10D0E0006224433420040114E664C774A4448554C4
:10D0F0006AA54BB528850995EEE5CFF5ACC58DD56C
:10D100005336722611163006D776F6669556B44613
:10D110005BB77AA719973887DFF7FEE79DD7BCC7BB
:10D12000C448E5588668A778400861180228233863
:10D13000CCC9EDD98EE9AFF9488969990AA92BB90B
:10D14000F55AD44AB77A966A711A500A333A122AB3
:10D15000FDDBDCCBBFFB9EEB799B588B3BBB1AAB5B
:10D16000A66C877CE44CC55C222C033C600C411C03
:10D17000AEED8FFDECCDCDDD2AAD0BBD688D499DAB
:10D18000977EB66ED55EF44E133E322E511E700E53
:10D190009FFFBEEFDDDFFCCF1BBF3AAF599F788FFB
:10D1A0008891A981CAB1EBA10CD12DC14EF16FE1DB
:10D1B0008010A100C230E320045025404670676013
:10D1C000B9839893FBA3DAB33DC31CD37FE35EF32B
:10D1D000B1029012F322D232354214527762567263
:10D1E000EAB5CBA5A89589856EF54FE52CD50DC57B
:10D1F000E234C324A01481046674476424540544B3
:10D20000DBA7FAB79987B8975FE77EF71DC73CD7CA
:10D21000D326F2369106B016576676761546345602
:10D220004CD96DC90EF92FE9C899E9898AB9ABA91A
:10D230004458654806782768C018E1088238A32852
:10D240007DCB5CDB3FEB1EFBF98BD89BBBAB9ABB6A
:10D25000754A545A376A167AF10AD01AB32A923AA2
:10D260002EFD0FED6CDD4DCDAABD8BADE89DC98DBA
:10D27000267C076C645C454CA23C832CE01CC10CF2
:10D280001FEF3EFF5DCF7CDF9BAFBABFD98FF89F0A
:10D29000176E367E554E745E932EB23ED10EF01E42
:10D2A0000040004004000000004000400400000076
:10D2B00002000000AFB60300CBB60300EFB60300D8
:10D2C000FBB6030035B70300D7B80300B5B80300B9
:10D2D00065B8030047B80300D9B703001800000081
:10D2E0001A00000000009801030000000200000086
:10D2F000050000000400000003000000030000001F
:10D30000020000000000000000000000000000001B
:10D3100000010000EBBC03000102000049BD030056
:10D3200002010000D5BD03000102000049BD030059
:10D3300000010000CFBC0300040300000000000057
:10D3400005040000F1BD03000102000047BD030019
:10D3500003020000A3BD030004030000000000005E
:10D3600005040000F1BD030003000000A3BD03009D
:10D3700002000000D5BD0300050000003FBE030011
:10D38000030000003FBE0300020000003FBE030098
:10D39000050000003FBE0300B8D3030000200020BA
:10D3A000C0000000B6CB030078D40300C0200020EA
:10D3B000900E0000C6CB030000000000000000003B
:10D3C000000000000001000000000000010000005B
:10D3D000FFFF00000000000000000000000000004F
:10D3E000000000000000000000000000000000003D
:10D3F000000000000000000000000000000000002D
:10D4000000000000000000000000000010D3030036
:10D4100020D3030048D3030068D3030080D3030064
:10D4200000000000000000000000000000000000FC
:10D4300000000000000000000000000000000000EC
:10D4400000000000000000000000000000000000DC
:10D4500000000000000000000000000000000000CC
:10D4600000000000000000000000000000000000BC
:08D47000000000000024F4009C
:020000041000EA
:0410140000A0030035
:040000050003A0C193
:00000001FF
