:020000040002F8
:10000000688F0020E9040200F1040200B504020038
:10001000F5040200F7040200F904020000000000E9
:1000200000000000000000000000000015040200B5
:10003000FD04020000000000590402000105020056
:10004000F566020003050200C19A0200A57A0200CB
:10005000B57A020003050200293302002172020072
:100060000305020003050200030502000305020068
:100070000305020003050200030502000305020058
:1000800003050200596D020003050200030502008A
:100090000305020003050200C57A02000305020001
:1000A0000305020003050200030502000305020028
:1000B000030502000305020000000000000000002C
:1000C0000305020003050200030502000305020008
:1000D0000305020003050200030502000000000002
:1000E0000000000000000000000000000000000010
:1000F0000000000000000000000000000000000000
:1001000000000000000000000000000000000000EF
:1001100000000000000000000000000000000000DF
:10040000DFF80CD000F00CFC00480047916B0300B3
:10041000688F0020264B19680868B0E8F04F80F319
:100420000988BFF36F8F4FF0000080F31188704789
:10043000000000000748006880F3088862B661B6D3
:10044000BFF34F8FBFF36F8F4FF4F07080F31188BD
:1004500000DF000000000200EFF30980BFF36F8FA0
:10046000134B1A681EF0100F08BF20ED108A20E908
:10047000F04F106008B44FF0200080F31188BFF3F4
:100480004F8FBFF36F8F1DF0DBFA4FF0000080F34A
:10049000118808BC19680868B0E8F04F1EF0100F0A
:1004A00008BFB0EC108A80F30988BFF36F8F7047E4
:1004B000A0210020094B1EF0040F1CBFEFF30980A0
:1004C0001847EFF308800649064A884201D890424F
:1004D00002D88D464FF0000018470000F13A0200A4
:1004E000688F00206887002006488047064800473C
:1004F000FEE7FEE7FEE7FEE7FEE7FEE7FEE7FEE7D4
:10050000FEE7FEE7D98402000104020010B5431A99
:10051000934209D28318881803E010F8011D03F8EC
:10052000011D521EF9D210BD40EA01039B0703D002
:1005300009E008C9121F08C0042AFAD203E011F822
:10054000013B00F8013B521EF9D210BDD2B201E0CE
:1005500000F8012B491EFBD270470022F6E710B5C8
:1005600013460A4604461946FFF7F0FF204610BD21
:10057000421C10F8011B0029FBD1801A704710B5EE
:10058000002200E0521C835C8C5CA34201D1002B52
:10059000F8D1D8B2E1B2401A10BD30B504460020FF
:1005A000034600E05B1C934203D2E05CCD5C401B41
:1005B000F8D030BD034611F8012B00F8012B002ABA
:1005C000F9D11846704730B505460020034600E0D3
:1005D0005B1C934205D2EC5CC85C201A01D1002C54
:1005E000F6D130BD2DE9FE4F804681EA0300C00FF1
:1005F0000C46009021F0004123F00045B8EB0200CA
:10060000A94105D24046214690461C460B4602466B
:1006100023F00040104347D0270DC7F30A00C3F36F
:100620000A510290401A019040286BDAC3F313007C
:1006300040F4801B0098924620B10023D2EB030ABD
:1006400063EB0B0B01985946C0F14002504600F095
:1006500008FA06460D4650465946019A00F020FA1F
:1006600010EB08006141002487EA115284EAE77325
:100670001A4340D0009A62B3019A012A4FEA075206
:1006800015DC001B61EB02014FF0004202EA075249
:10069000CDE90042001C41F5801132462B4600F0A6
:1006A00020FA03B0BDE8F08F40462146F9E7001B71
:1006B00061EB0201001C41F5801300185B4120181A
:1006C000A2F5001747EB030140EAD570B6196D415A
:1006D00011E06D084FEA360645EAC0754FEA075249
:1006E000001B61EB0201001C41F5801149084FEA33
:1006F00030000019514132462B4603B0BDE8F04F9F
:1007000000F0E0B90098012240000023D0EB020283
:1007100063EBE073009821464FEAE074B8EB000009
:1007200061EB0401E9E783F000435BE781F00041FE
:1007300058E72DE9FE4F81EA030404F0004421F05C
:10074000004100944FF0000B23F0004350EA0104F5
:100750005ED052EA03045BD0C3F30A54C1F30A55D6
:100760002C44A4F2F3340194A0FB0254C1F313010E
:1007700041F48011C3F3130343F4801301FB0244DB
:1007800000FB034E840A970A44EA815447EA8357E0
:10079000A4FB076802958D0A05FB07854FEA932C99
:1007A00004FB0C542705029D4FEA065847EA16370A
:1007B000B5EB08056EEB070C870E920E47EA811722
:1007C00042EA8312A7FB0201B6EB0B0164EB0004C3
:1007D0002B0D43EA0C335E1844EB1C50DA465146AD
:1007E000E7FB0201C5F313044FEA0B3343EA14534A
:1007F0004FEA0432019C43EA0603A4F10C0402947C
:10080000009CCDE900B400F06CF903B0BDE8F08FB6
:1008100000200146F9E72DE9F04D81EA030404F0D8
:10082000004B21F0004514464FF0000A23F0004130
:1008300050EA050220D054EA01021DD0C5F30A5740
:100840000246C5F31303C1F31300C1F30A5640F483
:10085000801543F48013A7EB0608101BD64608F258
:10086000FD3873EB050002D308F1010801E092188E
:100870005B41B8F1000F03DA00200146BDE8F08DBE
:1008800000204FF48011064684460EE0171B73EBE0
:10089000050705D3121B63EB050306434CEA010C65
:1008A00049084FEA300092185B4150EA0107EDD148
:1008B00052EA030012D082EA040083EA05010843E9
:1008C00005D0101BAB4106D20122002306E0002216
:1008D0004FF0004302E06FF0010253101AEB0600E4
:1008E0004CEB085110EB0A0041EB0B01BDE8F04D59
:1008F00000F0E8B80EB5C10F80EAE0700844CA07FE
:10090000002140F233438DE80E000A460B4600F00A
:10091000E8F803B000BD0EB540F23341029100216A
:10092000CDE900110A460B4600F0DBF803B000BD2C
:1009300070B5C1F30A5201F000450024C1F3130160
:1009400040F2FF3341F480119A4201DA002070BD79
:1009500040F233439A42A2F2334203DC524200F0A7
:100960008FF800E090402C43F1D0404270BDC1F3BD
:100970000A5210B5C1F3130140F2FF3341F4801164
:100980009A4201DA002010BD40F233439A42A2F2AB
:10099000334203DC524200F073F810BD904010BDAA
:1009A00030B5041E71F1000404DB4FF000444042F6
:1009B00064EB0101141E73F1000405DB1C464FF0CB
:1009C0000043524263EB04038B4208BF824230BDB6
:1009D00030B5041E71F1000404DB4FF000444042C6
:1009E00064EB0101141E73F1000405DB1C464FF09B
:1009F0000043524263EB0403994208BF904230BD6A
:100A00002DE9F05F0546002092469B468846064643
:100A1000814640241BE0284641464746224600F0D6
:100A20002FF853465A46C01A914110D31146184622
:100A3000224600F016F82D1A67EB01084F462246B1
:100A40000120002100F00DF817EB00094E41201E97
:100A5000A4F10104DFDC484631462A464346BDE89E
:100A6000F09F202A04DB203A00FA02F100207047B0
:100A70009140C2F1200320FA03F3194390407047DC
:100A8000202A04DB203A21FA02F00021704721FAE3
:100A900002F3D040C2F1200291400843194670474A
:100AA000202A06DBCB17203A41FA02F043EAE07332
:100AB00006E041FA02F3D040C2F12002914008431F
:100AC0001946704710B5141E73F1000408DA401C73
:100AD00041F1000192185B411A4301D120F001005D
:100AE00010BD2DE9F04D92469B4611B1B1FA81F24D
:100AF00002E0B0FA80F220329046FFF7B2FF0446DF
:100B00000F4640EA0A0041EA0B0153465A460843A1
:100B100013D0114653EA010019D0C8F140025046E3
:100B2000FFF7AEFF05460E46504659464246FFF7D0
:100B300098FF084305D0012004E020463946BDE86F
:100B4000F08D0020054346EAE0762C4337430A98AF
:100B50006305E40AA0EB08000022FD0A44EA4754BA
:100B60000A3002D500200146E9E701051019694164
:100B7000DDE9084500196941BDE8F04DA2E72DE91E
:100B8000F04D00231A461B1A8A4103DB0020014660
:100B9000BDE8F08DC1F30A52C1F3130141F4801591
:100BA0004FF0000BD10702D100186D41521E0027F3
:100BB000044640F2FF11384601EB620A3E46804689
:100BC000024600204FF48011FFF75AFFC21971410D
:100BD000BB1846EB0100B4EB030C75EB000C04D31F
:100BE000E41A65EB000517460E46241908F10100CA
:100BF0006D4180463428E3DDF91946EB0600091BF8
:100C0000A84103D24FF0FF32134601E00022134601
:100C10001BEB070046EB0A51BDE8F04DFFF752BF52
:100C2000064C074D06E0E06840F0010394E8070039
:100C300098471034AC42F6D3FFF7E6FB7C1404006F
:100C40009C14040070B58C1810F8015B15F00703B4
:100C500001D110F8013B2A1106D110F8012B03E055
:100C600010F8016B01F8016B5B1EF9D12B0705D45D
:100C70000023521E0DD401F8013BFAE710F8013BA6
:100C8000CB1A921C03E013F8015B01F8015B521EC2
:100C9000F9D5A142D8D3002070BDF0B58CB006467E
:100CA0000F4614461D4606F5F27104A800F0EAF955
:100CB000103D6CE0394608A800F0E4F908A80FC818
:100CC0008DE80F006946304600F0BAF804990098A4
:100CD0004840010E049A0098504000F47F0041EA19
:100CE00010210098504000F47F4041EA0021009814
:100CF000504041EA00602060059901984840010E8B
:100D0000059A0198504000F47F0041EA10210198B3
:100D1000504000F47F4041EA00210198504041EAF0
:100D200000606060069902984840010E069A029899
:100D3000504000F47F0041EA10210298504000F436
:100D40007F4041EA00210298504041EA0060A060E3
:100D5000079903984840010E079A0398504000F401
:100D60007F0041EA10210398504000F47F4041EA9F
:100D700000210398504041EA0060E06008A80FC8D5
:100D8000CDE90623CDE9040110371034103D002DC4
:100D900090DA08A906F5F27000F074F90CB0F0BD15
:100DA0002DE9F0410646341D1034B6F800C04FEA74
:100DB0008C0740E0256805F080304FEA450C0CF0C8
:100DC000FE3CA0EBD01808F01B388CEA080000F0BD
:100DD00080314FEA400C0CF0FE3CA1EBD11808F03A
:100DE0001B388CEA080101F080324FEA410C0CF00C
:100DF000FE3CA2EBD21808F01B388CEA080285EA08
:100E0000020380EA010C8CEA0202584059404FEA82
:100E1000002C4CEA106C8CEA02024FEA014C4CEABE
:100E2000114C8CEA02024FEA036C4CEA132C8CEA58
:100E3000020520C47F1E042FBCDCBDE8F081000049
:100E40002DE9F34F8AB00B460A980088019001986B
:100E5000401C81000A98001D00EB810000900422D4
:100E60000BE0501E53F820100098001F00900068FF
:100E70004840511E43F82100521E002AF1D10020A3
:100E80000290A8E004228FE0D01C00F0030053F889
:100E90002000000E544909680C5C901C00F003000F
:100EA00053F82000C0F307404F4909680D5C501CFF
:100EB00000F0030033F82000C0F307204A49096816
:100EC0000E5C02F0030013F82000474909680F5C2C
:100ED0000198401E029988425ADD84EA050000F01C
:100EE000A7F9059085EA060000F0A2F9814686EA96
:100EF000070000F09DF9049087EA040000F098F9DB
:100F00000390059981EA090000F092F9824604995C
:100F100089EA010000F08CF983468AEA0B0000F0B0
:100F200087F9804685EA0601794081EA0A0181EA6B
:100F3000080105984140059184EA0601794081EA5B
:100F40000B0181EA080181EA090984EA0501794077
:100F500081EA0A0181EA080104984140049184EA87
:100F60000501714081EA0B0181EA080103984140C3
:100F700003910598000640EA0941049841EA0020DF
:100F800003990843511E0DF1180C4CF821000AE09A
:100F9000200640EA054040EA06203843511E0DF184
:100FA000180C4CF82100521E002A7FF46DAF042269
:100FB0000CE0501E06A951F820100098001F009068
:100FC00000684840511E43F82100521E002AF0D10B
:100FD0000298401C0290DDE901108842FFF652AFF2
:100FE0000CB0BDE8F08F0000BC23002070B5C0B08D
:100FF00005F080FA214908600846006800F5807015
:101000001F490860002501240AE0E0B20DF8050040
:10101000E00940F21B11484380EA440044406D1C43
:10102000FF2DF2D96320154909680870002516E0E4
:10103000C5F1FF001DF8004044EA0424200980EABD
:10104000541080EA941080EAD410444084F0630085
:10105000C6B21DF80500094909680E546D1CFF2D24
:10106000E6D3002506E005480068405D044A1268A2
:1010700015546D1CFF2DF6D940B070BDB82300206B
:10108000BC2300200A68120E0B6803F47F0342EAB7
:1010900013220B8803F47F4342EA03220B7842EACF
:1010A000036202604A68120E4B6803F47F0342EA4F
:1010B00013228B8803F47F4342EA03220B7942EA2E
:1010C000036242608A68120E8B6803F47F0342EA6F
:1010D00013220B8903F47F4342EA03220B7A42EA8C
:1010E00003628260CA68120ECB6803F47F0342EA8F
:1010F00013228B8903F47F4342EA03220B7B42EAEB
:101100000362C260704700002DE9F05F0446894623
:101110009A46DFF814B14FF4FA712046FFF71DFA32
:10112000BAF1000F03D0BAF1010F0ED103E00A208B
:10113000208004270BE00E202080082709F11001F1
:1011400004F11400FFF79EFF01E0BDE8F09F00BF2F
:101150004946201DFFF796FF67803D4655E0681E13
:10116000211D51F8206095FBF7F007FB105000BBE4
:10117000F0B22E490968085C4FEA00282B48006845
:10118000C6F30721405C48EA004828480068C6F3D7
:101190000741405C48EA00682448006800EB16609C
:1011A000007840EA08089BF8000088EA00660BF126
:1011B000010B082F20D195FBF7F007FB10500428F6
:1011C0001AD1F0B21949096811F80080174800686F
:1011D000C6F30721405C48EA002814480068C6F3BB
:1011E0000741405C48EA00481048006800EB166080
:1011F000007848EA00684646E91B201D50F82100A7
:101200007040211D41F825006D1C2088401C800085
:10121000A842A4DC002503E0002084F8E4016D1C52
:10122000102DF9DB00BF90E708F10300B823002080
:10123000014601F0800018B11B2080EA410000E067
:101240004800C0B27047000038B504460849096834
:1012500000230122C86804211DF090FA00200346F3
:1012600002460321009020461DF0D4FD38BD000049
:10127000B023002038B5044608490968002301223C
:10128000C86802211DF07AFA0020034602460321B5
:10129000009020461DF0BEFD38BD0000B0230020A8
:1012A00010B50449096800230122C86804211DF013
:1012B00065FA10BDB023002010B504490968002369
:1012C0000122C86802211DF059FA10BDB023002088
:1012D0000146002901DB084670474842FCE730B56B
:1012E000024614460020002307E004F001050DB17A
:1012F000451CE8B264085D1CEBB28B42F5DB30BDE7
:1013000070B504464FF47A7060434FF47A71B0FBC5
:10131000F1F528461CF0E6F970BD10B52DED048BF3
:1013200004462046FFF7E6FA41EC190BB0EE490AF5
:10133000F0EE690A09F042FAB0EE408AF0EE608AF7
:1013400051EC180BFFF7F4FABDEC048B10BD000054
:101350000A49087B022804D100200875C8740120BE
:101360007047087D0A2801DD0020F9E7C87C3C2889
:1013700001DD0020F4E70120F2E70000C86A002048
:1013800000B585B002F0A0FC10B1002005B000BD92
:1013900002F09CFC08B10020F8E700F04FF928B1FA
:1013A00000212548A0F8CE100020EFE72248B0F831
:1013B000CE00B0F5967F01DA0020E7E700F0A4FA4E
:1013C000B8B100BF00BF1C4890F8B31090F8B2202D
:1013D00090F8B100CDE901210090174890F8AF30A6
:1013E00090F8AE20B0F8AC1014A009F0C3F900BF1B
:1013F00000BF00BF00BF1048B0F8CE10427C90F88C
:10140000B33090F8B200CDE90232049101900A485D
:1014100090F8B1000090084890F8AF3090F8AE20F6
:10142000B0F8AC10144809F0A5F900BF00BF02F0F5
:1014300098F80120AAE70000046A002025642D2501
:10144000642D25642C2025643A25643A2564205BAC
:101450005254435D20646973636F6E6E6563742CD0
:1014600020756E617574686F72697A656420646551
:10147000766963650D0A0000700F040010B5024C18
:10148000012000F031F810BDC86A0020014609486B
:10149000027B022A00D17047064AC43A92F83C20E7
:1014A00002B1F8E7C27C3C2A02DCC27C0A44C27466
:1014B00000BFF0E7C86A002010B5012000F014F862
:1014C00000F0BCF848B10221064880F8D010002195
:1014D00080F8D81080F8D71003E00021014880F888
:1014E000D01010BD046A002030B585B0044603203A
:1014F00000BF4FF0A042114600BFD1F81025C240F6
:1015000002F0010215460020049014B90DB105B097
:1015100030BD04AA0121032000F0BAF800BF00BFCB
:101520009DF810302F4890F8B31090F8B22090F842
:10153000B100CDE90213CDE900022A4890F8AF309E
:1015400090F8AE20B0F8AC1027A009F013F900BF56
:1015500000BF9DF8100018B10021032000F0DCF856
:101560009DF8100000F0800018B100211D4880F89F
:10157000D9109DF8100000F0200018B10121194881
:1015800080F8D9109DF8100000F0100010B164210F
:10159000144841749DF8100000F00100F8B10121D9
:1015A000104880F89613062180F8971300BF00BFFB
:1015B00090F8B31090F8B22090F8B100CDE9012175
:1015C0000090084890F8AF3090F8AE20B0F8AC101A
:1015D0000FA009F0CFF800BF00BF15F01FFC00BF3F
:1015E00095E70000046A002025642D25642D2564FC
:1015F0002C2025643A25643A256420424154543A0B
:1016000020696E74202D203078253032780D0A0044
:1016100025642D25642D25642C2025643A25643A03
:101620002564205B424154545D20627574746F6E72
:1016300020636C69636B6564200D0A00034890F8B1
:10164000D90008B9002070470120FCE7046A002097
:1016500000B5FFF7F3FF08B1002000BD0348407C50
:10166000052801DD0020F8E70120F6E7046A0020E4
:1016700070B5064C00F05CFB05462946204609F093
:101680007FFB2946204609F04FFB70BDC86A002049
:101690002DE9F04786B007460D461646102D00D8B6
:1016A0001EB9012006B0BDE8F0874FF000084046A3
:1016B00008F1010802A90F5402F040FA044620463E
:1016C000216888478246CDE90065434602AA514613
:1016D0002046D4F814C0E04781462046A1698847D7
:1016E00000BFDFE700B50146FFF7A8FF80B109485A
:1016F000B0F8C800084482B20648A0F8C820B0F884
:10170000C80041F21852904202DD0248A0F8C820F9
:1017100000BD0000046A00202DE9F0438BB00646AE
:101720000F46002528466D1C07A90E5428466D1C3F
:101730000F5402F003FA0446204621688847814688
:10174000002003A9CDE900102B4607AA49462046F0
:10175000D4F814C0E04780462046A16988470BB002
:10176000BDE8F0832DE9F04385B004460D4660786E
:10177000217840EA0126DFF894804FF000090CB18F
:10178000162D03D0002005B0BDE8F083A81E87B257
:1017900000BF00BF1E4890F8B31090F8B22090F838
:1017A000B100CDE901210090194890F8AF3090F8D0
:1017B000AE20B0F8AC1017A008F0DCFF00BF00BFEF
:1017C000204908783B46A21C314612F0BFFA00BF00
:1017D00000BF98F81B100E4890F8B32090F8B200A4
:1017E000CDE90316CDE90102094890F8B100009057
:1017F000074890F8AF3090F8AE20B0F8AC1012481F
:1018000008F0B8FF00BF00BF0120BCE7A06D0020BA
:10181000046A002025642D25642D25642C20256470
:101820003A25643A2564205B42544C455D20706142
:10183000636B65742073746172742073656E7420B9
:101840000D0A0000C0230020B40F0400F8B50546BF
:101850000E46174602F016F80446002007490870A5
:101860002046A1688847064800903B4632462946F4
:101870002046D4F804C0E047F8BD0000C82300208B
:1018800019160300F8B505460E46174601F0FAFF93
:1018900004460020074908702046A168884706488A
:1018A00000903B46324629462046D4F800C0E04727
:1018B000F8BD0000C82300201916030070B50546C6
:1018C0000D4CFFF7BBFE40B9FFF7C2FE28B102F096
:1018D000FBF910B10020207770BD0848807A00B96C
:1018E000FAE715B10020607701E00120607705205C
:1018F000207700BFF0E70000A06D0020046A002000
:1019000001460120704700000349087F042801D1E7
:10191000012070470020FCE7A06D0020074800214F
:10192000017641768181C1818176A0F56771C97A9E
:1019300021F08001A0F56772D1727047A06D002080
:101940003EB5234C207F06283ED2DFE800F003049A
:101950001213143C39E0E08A08B10AF061FE607F9E
:1019600018B90120FFF7AAFF02E00020FFF7A6FF49
:101970002BE02AE029E002F0A7F918B300BF00BF6E
:10198000144890F8B31090F8B22090F8B100CDE967
:10199000012100900F4890F8AF3090F8AE20B0F8D9
:1019A000AC100DA008F0E6FE00BF00BF00F030F85C
:1019B000012807D11CF052FF054600230122022115
:1019C0001CF0DCFE01E000E000BF00BF3EBD0000F7
:1019D000A06D0020046A002025642D25642D256457
:1019E0002C2025643A25643A2564205B42544C45FA
:1019F0005D203A2042544C455F73747265616D6995
:101A00006E675F617574686F72697A65640D0A004C
:101A10007FB500F08DF905464D4C04F037FD50B10F
:101A200047F2305120680844A84201D206F0BCFCBD
:101A3000002004B070BDA07E0A2801DD0020F8E778
:101A400044F6206120680844A84202D2FFF766FFEE
:101A500003E0A08908B900F0B7F83E48C07A00F06A
:101A60008000C8B900BF00BF3A4890F8B31090F8A2
:101A7000B22090F8B100CDE901210090354890F8EE
:101A8000AF3090F8AE20B0F8AC1033A008F072FE82
:101A900000BF00BF0020CCE7E089A189884206DAB8
:101AA0004FF4004000F0D4FB08B10120C1E7607E94
:101AB000217E884225DA208AFF2806DC4FF48050F8
:101AC00000F0E2FA08B10120B3E7607E401C6076C6
:101AD000607E217E88420FDA0020208201220521CB
:101AE00029A001F0C9F9A060A06850B14FF480505E
:101AF00000F0CAFA01209CE70122052122A001F092
:101B0000BBF9606800F57A70A8421FD200F01AFA9B
:101B10006560A07E401CA07600BF00BFA17E0D487E
:101B200090F8B32090F8B23090F8B100CDE90132CE
:101B300003910090074890F8AF3090F8AE20B0F8CD
:101B4000AC1013A008F016FE00BF00BF002070E725
:101B5000A06D0020046A002025642D25642D2564D5
:101B60002C2025643A25643A2564207374726561DB
:101B70006D696E67206973206E6F7420616C6C6F85
:101B80007765640D0A00000065706F6368000000EF
:101B900025642D25642D25642C2025643A25643A7E
:101BA0002564205B424C455D2061637469766974ED
:101BB000792073747265616D696E672028256429C8
:101BC0000D0A00000120704710B50F4C4FF4006063
:101BD000A0810020E08105210CA000F0FEFE20760F
:101BE00000206076207E38B10022052107A001F098
:101BF00043F9A060002020820021064880F8F011FF
:101C000080F8F11110BD0000A06D002065706F63B9
:101C100068000000046A002010B50848006850B948
:101C200014210748FEF799FC054804490860084656
:101C3000006800F007F80148006810BD5424002037
:101C40004C86002070B5044614B94FF0FF3070BDCB
:101C500011482060114860601148A0601148E060A0
:101C60001148206104201CF015FA1049486008460C
:101C7000406808B1012000E00020054600BF0322B3
:101C8000002101201CF02AFA0849886000BF0020CA
:101C90008881086100BFDAE7118503007DAB03008E
:101CA0005DAC0300F5B00300CD3A0300348600209C
:101CB00010B54FF443611648FEF74FFC002114485D
:101CC00080F83C1001743221417400214173407B43
:101CD0000007010E0E484173407B0D4948733721C0
:101CE0000B488173202180F8A8100A480849C1F8E0
:101CF000A000D1F8A000AC3105F0B6F8044890F887
:101D0000AF1080F8A91090F8B21080F8AA1010BD9A
:101D1000046A002020797C5310B504490023012275
:101D2000486802211CF02AFD10BD00003476002016
:101D300010B505F0DFFE10BD2DE9F0470746DFF8CE
:101D4000B880A8F5BC793D4609F1DC0428782081EB
:101D500020894FF6FF7101EA0020208120896978EF
:101D60000844208120894FF6E57188420AD100207D
:101D7000C8F80000C8F80400A878A072E81C0DF0AC
:101D800065FE36E020894FF6E67188421CD10020BE
:101D9000C8F80000C8F80400E87820602068000255
:101DA00020602979206808432060206800022060B4
:101DB0006979206808432060A879A0720022A91DD3
:101DC00020460EF021FB14E020894FF6E77188428F
:101DD00003D02089491C88420BD1EE78360228793D
:101DE00006433602687906433246A91D20460EF0A6
:101DF0000BFBBDE8F0870000AC6C002070B5344DE3
:101E00002C1DA078401CA070FF20E070E221217101
:101E1000A1786171062044F8A40F2068401C20605E
:101E200054F8A409010CA171B4F8A400010AE171ED
:101E300094F8A4102172002044F89C0F6074E060B4
:101E4000207120740B21227C501C20749C3C04F1D6
:101E5000190081540B206070012020702870A5F5B6
:101E6000987090F8621394F8AC20501C84F8AC0081
:101E700004F119008154A5F5987090F8631314F8D3
:101E8000AC2F2078401C04F8AC0904F119008154EF
:101E900094F8AC100144A5F59870D0F85803086088
:101EA00094F8AC00001D84F8AC00102204F1190174
:101EB00004F10900FEF72AFB9C34607C103060744A
:101EC0002068103044F89C090220287070BD000082
:101ED000346B002070B51A4D2C1DA078401CA070EA
:101EE0001020C4F8A400FF20E070E121217100203F
:101EF00004F8AC0F00212278501C04F8AC0904F15E
:101F00001900815494F8AC100844A5F225110A6810
:101F100002604A684260097A017294F8AC000930A4
:101F200084F8AC000020607001202070022028702E
:101F300094F8AC2004F11901601DFEF7E7FA70BDBA
:101F4000346B0020F0B54E4B002003F10A011E79DE
:101F500006B1F0BD4FF0FF0C0646471CF8B201F881
:101F600006C04FF0E10C0646471CF8B201F806C067
:101F70004FF0160C0646471CF8B201F806C0414E59
:101F8000D6F8A060360E074600F1010C0CF0FF00F9
:101F9000CE553C4ED6F8A060C6F3074C0646471C0B
:101FA000F8B201F806C0374EB6F8A060C6F3072CA9
:101FB0000646471CF8B201F806C0324E96F8A0C09B
:101FC0000646471CF8B201F806C02E4E766C2D4F1F
:101FD0003F6CF219160E074600F1010C0CF0FF00E1
:101FE000CE55C2F3074C0646471CF8B201F806C0AE
:101FF000C2F3072C0646471CF8B201F806C0064695
:10200000471CF8B28A554FF0000C0646471CF8B240
:1020100001F806C00646471CF8B201F806C0194E82
:10202000F66C3409C4F3072C0646471CF8B201F8D5
:1020300006C00646471CF8B28C55124EB66C3509E0
:10204000C5F3072C0646471CF8B201F806C0074640
:10205000461CF0B2CD554FF0000C0646471CF8B2B6
:1020600001F806C00646471CF8B201F806C006464D
:10207000471CF8B201F806C001261E7100BF68E7D0
:10208000F06B0020046A00202DE9F04F89B08046F3
:102090006D4D0DF1140B01A8009005AC01AE28792F
:1020A00018B1012009B0BDE8F08F687908B10120AE
:1020B000F8E7A87968B34FF0000A24E06348B0F865
:1020C000AC030701474500D320E06049D1F8A413D1
:1020D000C819042205A900F0A3FF206820F00040E1
:1020E00020605A49D1F8A413C819042205A901F0A7
:1020F00003F85648B0F8AC03401C81B25348A0F82E
:10210000AC130AF1010A28895045D7D800BF002036
:10211000A8714E48B0F8AC030701474501D3002031
:10212000C0E7012028811FE04849D1F8A413C8194D
:102130001022594600F074FF9BF80000FF2808D0D9
:10214000206800F0004020B1206820F000402060AE
:102150000CE03E48B0F8AC03401C81B23B48A0F80C
:10216000AC13B0F8AC0307014745DDD300BF4745CA
:1021700052D23648B0F8AC03401C4FEA001948E090
:102180003249D1F8A41301EB09001022009900F0A4
:1021900047FF00980078FF2800D13CE0306800F04D
:1021A000004000B937E0306820F00040306030680F
:1021B0002168884200D82EE0307A217A884200D007
:1021C00029E0707A617A884200D024E0B07AA17A5E
:1021D000884200D01FE0F07AE17A884200D01AE00D
:1021E000307B217B884200D015E0F088E18888426E
:1021F00000D010E0707B617B884200D00BE0B07BA8
:10220000A17B884200D006E02889401C288109F182
:102210001009C145B4D300BF2889012807DD2B89E7
:102220000922214605F10A000AF09EFD06E000237E
:102230000822214605F10A000AF096FD01202871C6
:10224000687100BF2EE70000F06B0020046A0020D8
:102250002DE9F04F89B08046684D0DF1140B01A8AF
:10226000009005AC01AE287918B1012009B0BDE895
:10227000F08F687908B10120F8E7A87948B34FF0EA
:10228000000A20E05E48B0F8AA030701474500D3E2
:102290001CE0042205A907F5804000F073FE2068C9
:1022A00020F000402060042205A907F5804000F0DE
:1022B000DDFE5348B0F8AA03401C81B25048A0F894
:1022C000AA130AF1010A28895045DBD800BF002073
:1022D000A8714B48B0F8AA030701474501D3002075
:1022E000C4E7012028811DE01022594607F58040EF
:1022F00000F048FE9BF80000FF2808D0206800F09E
:10230000004020B1206820F0004020600CE03C48F4
:10231000B0F8AA03401C81B23948A0F8AA13B0F85B
:10232000AA0307014745DFD300BF47454FD23448D2
:10233000B0F8AA03401C4FEA001945E0102209F545
:102340008040009900F01EFE00980078FF2800D120
:102350003CE0306800F0004000B937E0306820F021
:102360000040306030682168884200D82EE0307A22
:10237000217A884200D029E0707A617A884200D0C0
:1023800024E0B07AA17A884200D01FE0F07AE17AA6
:10239000884200D01AE0307B217B884200D015E0D3
:1023A000F088E188884200D010E0707B617B884231
:1023B00000D00BE0B07BA17B884200D006E02889EA
:1023C000401C288109F11009C145B7D300BF2889F5
:1023D000012807DD2B890922214605F10A000AF0B0
:1023E000C3FC06E000230822214605F10A000AF09A
:1023F000BBFC01202871687100BF37E7F06B00203B
:10240000046A002010B5002405E008F045FF00B97B
:1024100003E0601CC4B2052CF7DB00BF10BD000058
:10242000F0B504460D46114600260CE014F801CB29
:102430008CEA2120C7B2064830F8170080EA012054
:1024400081B2701C86B2AE42F0D381EA0300F0BDC7
:102450009CF2030070B505460C4628460EF020F8A5
:10246000054890F82800054921F81040012002494C
:1024700081F8290070BD00004476002074760020A9
:102480004FF49A20024AD18AC901401A70470000CD
:10249000447600207047000070B53D4890F8265003
:1024A0004FF6FF7000EA8515394890F827401AE08A
:1024B000384830F8140047F6FF71884212D14010B6
:1024C000344921F81400281985B23148C08A401CCB
:1024D0002F49C882601C81F82700012081F829005B
:1024E000284670BD641C402CE2D34FF41A6628487D
:1024F000C08AB04201D10020F3E7254890F82900B6
:1025000028B1234991F82600224900F0DDFD00267C
:1025100037E01F4890F826001D49C968884201D35A
:102520000020DEE71A4890F82600401C184981F880
:10253000260005F1400085B291F82600154900F00B
:1025400053FD00241AE0134830F8140047F6FF71D9
:10255000884212D140100F4921F81400281985B281
:102560000B48C08A401C0A49C882601C81F82700B9
:10257000012081F829002846B3E7641C402CE2D3EF
:10258000761C0348C068B042C3D80020A9E7000009
:10259000447600207476002010B5044620460DF0E5
:1025A0007FFF034890F82800024931F8100010BD61
:1025B000447600207476002010B50D4880680C49E0
:1025C000898BB0FBF1F00A49C8820BF0ADF800200E
:1025D000074981F8260091F82600064900F004FD1D
:1025E0000020034981F8270081F8290010BD000070
:1025F00044760020747600202DE9F041A0B0374CDD
:1026000000266946002000F0D8FC80202083684620
:1026100008F034FD8046B8F1010F03D0002020B04F
:10262000BDE8F0810DF10B0001F0DCFA218B88424E
:1026300001D00020F3E70DF1160001F0D3FAE060BD
:102640009DF8100084F82C0094F82C00012801D08B
:102650000020E4E79DF80D00A0830DF1110001F0CA
:10266000C1FAE0830DF1130001F0BCFA20840DF1F2
:102670000E0001F0B7FA6084208B4FF4803191FB9B
:10268000F0F5208CA84201D20020C8E7208C401B26
:10269000A18BB0FBF1F0A084022084F82A0070190D
:1026A000A060608C30442060E08B08B90020B6E761
:1026B00068086060A08C4700208B3844401E218B46
:1026C000B0FBF1F0E168884201D90020A7E74FF0A4
:1026D000FF3020610020A0820120A0E74476002086
:1026E00010B530210248FDF738FF00F003F810BDA7
:1026F000447600202DE9F04FA1B07C4C6D460220BD
:1027000084F82A0080212846FDF727FF294601206A
:1027100000F0C7FC2946022000F0C3FC8020208383
:102720006083608B218B90FBF1F0A0834FF48030AD
:1027300020902098C0F5BA20218BB0FBF1F02084C6
:10274000042060840002E083208B4FF4803191FBF1
:10275000F0F0218C081AA18B90FBF1F0A084A08CE2
:102760004000E060218BE0680844401EB0FBF1F0BF
:10277000E060012084F82C00608C2060208B4FF4F6
:10278000004191FBF0F06060208B490091FBF0F07C
:10279000A0604FF0F00980212846FDF7DEFE54A02E
:1027A000016829604168696001892981807AA8727D
:1027B000207EE872208B010A2973207F687394F8C9
:1027C0002200A873608C010AE97394F82C00287425
:1027D000A07F6874E08B010AA97494F82000E87463
:1027E000208C010A297585F815903F202876002154
:1027F0006976FF20A876E976002028776977A9779F
:10280000E97712F0DEFD804685F82780C8F30721BE
:1028100028204155C8F30741292041554FEA186047
:102820002A214855207BA875A089010AE9758020D6
:1028300085F82400292085F8260013222FA105F110
:102840002B00FDF763FE2946002000F02AFC218BB7
:102850002846FDF782FE552085F87E00AA217F20BC
:1028600041552946032000F01CFC4FF0000B35E0D9
:10287000FF2280212846FDF769FE012602E07F2025
:10288000A855B61C802EFAD34F4667F0FF072F706D
:10289000380A6870380CA870380EE8702946002095
:1028A00000F012FC012614E0FF2280212846FDF7EB
:1028B0004DFE4FF0010A04E07F2005F80A000AF1FE
:1028C000020ABAF1800FF7D32946304600F0FCFB2C
:1028D000761CE068B042E7D80BF1010B94F82C00AD
:1028E0005845C5D821B0BDE8F08F000044760020DF
:1028F000EBFE904D53444F53352E30004E4F204E3B
:10290000414D4520202020464154202020202000F9
:1029100010B5064890F8290000B910BD034991F898
:102920002600034900F0D0FB00BFF6E74476002004
:10293000747600202DE9F041A8B006460027002457
:1029400000F0C6F804F08AF9804600203060B8F143
:10295000000F02D128B0BDE8F081002514E020A9C5
:10296000284604F01FF968B1781C87B269462846EA
:1029700004F032F96846FDF7FBFD401C0444241DB9
:10298000A41C641C681C85B24545E8D334603846F5
:10299000E0E770B5A8B0054600F09AF804F05EF9DB
:1029A00006460EB928B070BD002412E020A92046CA
:1029B00004F0F8F858B16946204604F00DF92946AC
:1029C0006846FDF7DCFD10B9204604F0C9F8601C2C
:1029D00084B2B442EADB00BFE4E72DE9F04FA9B0CE
:1029E000074688464FF0000917B1B8F1000F03D130
:1029F000484629B0BDE8F08F00F06AF804F02EF9DF
:102A000005460DB94846F4E70DF1040A002420E01C
:102A1000A0B221A904F0C6F8D0B1A0B201A904F077
:102A2000DBF84FF0010B002608E01AF80600B95D4C
:102A3000884202D04FF0000B02E0761C4645F4D3EA
:102A400000BFBBF1000F03D04FF0000B09F10109EB
:102A5000641CAC42DCD34846CBE700002DE9F041D2
:102A600004460CB9BDE8F081E67C002E2CD1A07C98
:102A700010B120460EF070FBE08904F0BFF8074665
:102A8000E089394604F02CF9218AE08904F004F940
:102A90000E48B0F8AC502D0490F8AE0005432D025E
:102AA0000A4890F8AF000543E089294604F006F98A
:102AB000E089216803F0FAFFFFF72AFF04F022F90A
:102AC0000020207504F0A6F800BFCBE7046A0020C0
:102AD00010B50548007D28B10348FFF7BFFF00206F
:102AE00003F0E2FC10BD0000F4760020014609B9B5
:102AF00000207047086808B10120FAE70020F8E7D5
:102B00002DE9F04FCDB08246884623A802900DF102
:102B10000C0B5046FDF72CFD401C0246514601901F
:102B200003A8FDF7F3FCFFF7D3FF434880F81380B9
:102B3000B8F1010F3ED104F091F806461EB900200D
:102B40004DB0BDE8F08F00240FE0A0B245A904F01D
:102B500029F848B1A0B2029904F03EF8594602980B
:102B6000FDF70DFD00B902E0641CB442EDD300BFD7
:102B7000B44202D23049CC8101E00020E0E72E4986
:102B8000C88943AA44A904F06FF82B490882802021
:102B900088740846C0890881BDF810014881BDF8D5
:102BA00010018881439808604398486000200875A8
:102BB0000846C5E7FFF700FDFFF762FC8146B9F55F
:102BC000205F01D20020BBE7FFF766FC07460FB984
:102BD0000020B5E7FFF760FC4490BDF8100120B974
:102BE0003846FFF757FC0020AAE7BDF81021394608
:102BF000584603F06DFF0546681C40B93846FFF79C
:102C000049FCBDF81001FFF745FC002098E74FF69E
:102C1000FF7009490882002088740D81BDF81001F9
:102C20004881BDF81001888100200860CD81012015
:102C30000875084684E70000F47600202DE9F04787
:102C400004468946174614B90020BDE8F0870026DF
:102C5000C8462068B84200D22778A07C802802D1DC
:102C600020460CF0D9FBA07C384480280BDAA07CED
:102C7000204A81183A464846FDF748FCA07C384473
:102C8000A0743E462CE0A07CC0F18000C5B2A07CC0
:102C9000184A81182A464046FDF738FC7019C6B21A
:102CA000A84420460CF0B8FB18E0B81B00F0FF0A5F
:102CB000BAF1800F01DB802000E0504605462A462D
:102CC0000C494046FDF722FC7019C6B2A844802D7D
:102CD00003D120460CF0A0FB00E0A574BE42E4DB6B
:102CE0002068B04200D226782068801B20603046E1
:102CF000ABE700008C7700202DE9F04704468846BA
:102D00001646C14614B90020BDE8F087228A314634
:102D1000404605F08BF820820027A07C30448028B4
:102D20000CDAA17C204A881832464946FDF7EEFBB2
:102D3000A07C3044A074B819C7B233E0A07CC0F1C5
:102D40008000C5B2A17C184A88182A464946FDF77A
:102D5000DDFB7819C7B2A9448020A07420460EF08C
:102D6000FBF9F8B11BE0F01B00F0FF0ABAF1800F8D
:102D700001DB802000E0504605462A4649460A48C5
:102D8000FDF7C4FB7819C7B2A944802D06D1802075
:102D9000A07420460EF0E0F908B902E0A574B7422D
:102DA000E1DB00BF3846AFE70C7700202DE9F04F9C
:102DB000A9B082460D4614464FF0000BFFF788FE7F
:102DC00003F04CFF2890D84651E020A9404603F07C
:102DD000E9FE002847D0D34541D12198000E214675
:102DE000641C68542198C0F307422046641C2A548E
:102DF0002198C0F307222046641C2A542198C2B2AD
:102E00002046641C2A54BDF88800020A2046641C2F
:102E10002A54BDF88800C2B22046641C2A546F466A
:102E20003946404603F0D8FE3846FDF7A1FB401C6A
:102E300086B2C4F17F001FFA80F94E4500DD4E4690
:102E40000020B8552046641C2E54281932463946B5
:102E5000FDF75CFB3444204629B0BDE8F08F0BF150
:102E600001001FFA80FB08F101001FFA80F8289882
:102E70008045AAD32046EFE72DE9F04FABB080465E
:102E8000894692460020029001200090FFF720FE24
:102E900003F0E4FE8346BBF1000F03D102982BB090
:102EA000BDE8F08F03AE002437E0A0B223A903F001
:102EB00079FE002830D0A0B203A903F08DFE0120D6
:102EC0000190002508E0705D18F80510884202D0D6
:102ED0000020019002E06D1C4D45F4D300BF019825
:102EE000D0B1BAF1000F07D0009828B1A0B203F01A
:102EF00037FE002000900EE001213046FFF700FE73
:102F0000074627B1B88900F50070C0010290384625
:102F1000FFF7A4FD03E000BF641C5C45C5D300BF00
:102F20000298BCE770B5A8B00546FFF7D1FD03F0E5
:102F300095FE064616B9002028B070BD002410E0AA
:102F4000A0B220A903F02EFE50B1A0B2694603F052
:102F500043FE29466846FDF712FB08B90120EBE75E
:102F6000641CB442ECD30020E6E7000010B5182141
:102F70000348FDF7F2FAFFF71FFB03F0D7FE10BD81
:102F8000F47600202DE9F04104460D461646E70987
:102F90003946042000F0DAF830B9FF2280212846B3
:102FA000FDF7D4FABDE8F08104F59A2432462946AB
:102FB000204602F0E7FB00BFF4E770B504460D467B
:102FC00026462146002000F0C1F828B9FF228021C2
:102FD0002846FDF7BBFA70BDF6018022294630462F
:102FE00002F0D0FB00BFF6E770B504460E4625465A
:102FF0002146012000F0AAF828B9FF22802130469E
:10300000FDF7A4FA70BD054800680544ED01802273
:103010003146284602F0B6FB00BFF3E744760020B5
:1030200070B504460D46164632462946204602F043
:10303000A9FB70BD70B504460E4625462146022008
:1030400000F084F828B9FF2280213046FDF77EFA8F
:1030500070BD054840680544ED0180223146284690
:1030600002F090FB00BFF3E744760020F0B5A1B07A
:1030700004460D461646E7093946042000F066F876
:1030800008B921B0F0BD3246294601A8FDF73EFA45
:1030900004F59A24324601A9204602F09BFB00BFAA
:1030A000EFE770B504460E4625462146002000F0A5
:1030B0004DF800B970BDED0180223146284602F07E
:1030C00089FB00BFF6E7000070B504460E462546B2
:1030D0002146012000F03AF800B970BD05480068AB
:1030E0000544ED0180223146284602F073FB00BF03
:1030F000F3E700004476002070B5A0B004460D460A
:103100001646324629466846FDF700FA32466946B9
:10311000204602F05FFB20B070BD000070B5044691
:103120000E4625462146022000F010F800B970BD79
:10313000054840680544ED0180223146284602F0EA
:1031400049FB00BFF3E700004476002070B586B06D
:1031500005460C460026052D1AD2DFE805F00307C8
:103160000B0F1400042C00D3012612E0FC2C00D31A
:1031700001260EE0FF2C00D901260AE0B4F5806F8D
:1031800000D3012605E0B4F5007F00D3012600E05E
:1031900000BF00BF3EB300BF00BF144890F8B3109B
:1031A00090F8B20001AA33C2104890F8B100009024
:1031B0000E4890F8AF3090F8AE20B0F8AC100C4844
:1031C00007F0D8FA00BF00BF00F07EFD18B1002064
:1031D00000F04EF802E0012000F04AF805F0A2F8F5
:1031E000002006B070BD0120FBE70000046A00204B
:1031F000F80F04001FB5044604F59A2400BF00BF71
:103200000D4890F8B31090F8B22090F8B100CDE9D5
:103210000214CDE90002084890F8AF3090F8AE20D3
:10322000B0F8AC1005A007F0A5FA00BF00BF03215D
:10323000204602F0B1FA1FBD046A002025642D2546
:10324000642D25642C2025643A25643A2564205B8E
:1032500046535D2041707020666C61736820657212
:103260006173652028344B293A2025640D0A00003B
:1032700070B5054600F018F80446284600F004F83A
:10328000204484B2204670BD70B504460025002657
:103290000CB9284670BD4FF49A26102531462846B1
:1032A00008F06CF82846F5E770B500254D2429464E
:1032B000204608F063F8204670BD000070B5054652
:1032C0000E462C4629460320FFF740FF28B9FF226F
:1032D00080213046FDF73AF970BD00BF054880688F
:1032E0000444E40180223146204602F04BFA00BF3C
:1032F000F2E700004476002070B505460E462C46E5
:1033000029460320FFF722FF00B970BD00BF054822
:1033100080680444E40180223146204602F05AFAD3
:1033200000BFF2E7447600202DE9F04F89B04FF05E
:103330000008002008904FF48070079001260024B8
:1033400013E0079814F0FEFC48B100BF8148006804
:10335000304020B1079814F0E7FC48EA06087600F0
:103360000798001D80B20790641C082CE9D34FF425
:10337000BE7014F0E7FC50B14FF4BE7014F0D4FCF2
:1033800048F0004808AA0121002014F0B3FC08F01E
:10339000FF0000B3012600241BE006EA0800B0B1DC
:1033A00000BF6D4850F82400C0F30420074600BF5A
:1033B000694850F82400C0F30140814620460FF0D0
:1033C000E5FE054615B149463846A84700BF7600D8
:1033D000641C082CE1D308F0004000287ED00020B7
:1033E00006900590002505E04FF0FF3004A941F854
:1033F00025006D1C002DF7D000BF00200690002492
:103400006FE05648005D0390039820F0C0075348D2
:103410000057401C002863D004A9384613F026FD4D
:1034200000285DD003984FEA901A38460FF0F6FE58
:1034300081460FF0ABFE0290029810B9BAF1030F6B
:103440004BD1BAF1030F11D1394605A80246CB087A
:1034500001F0070112F803C04FF0010E0EFA01FE51
:103460004CEA0E0C02F803C000BF00BF00BF00BF53
:103470004FF0A041084600F5E06151F82710C1F374
:10348000014900BF08A9384613F0F0FC8346BBF1A0
:10349000000F02D0B9F1020F05D0BBF1000F1BD114
:1034A000B9F1030F18D1BAF1030F0FD1B9F1020F1F
:1034B00001D1032000E0022001903846019914F068
:1034C0008DFB0698401CC0B2069000BF029818B150
:1034D00051463846029A904700BF00E036E000BFF0
:1034E000641C042C8DD3069858B3012703AA01212C
:1034F000002014F0FFFB00250AE003A850F8250087
:1035000008A951F82510884201D0002702E06D1C5F
:10351000002DF2D000BF17B10020069010E000256A
:103520000CE003A850F8250008A941F8250005A8DB
:1035300050F8250004A941F825006D1C002DF0D09D
:1035400000BF069800287FF458AF00BF09B0BDE85F
:10355000F08F00000463004010650040B45D00205F
:103560007047704710B504461CB1122016F0D2F80F
:1035700002E0122016F0D5F810BD000010B5084882
:10358000006848B90748064908603821FCF7E5FF9C
:103590000348006800F008F80148006810BD00000A
:1035A000682400207086002038B5044614B94FF016
:1035B000FF3038BD04201AF06DFD1949C860084677
:1035C000C06808B1012000E0002010B94FF0FF30C2
:1035D000EFE714480023012242F21071009012A07C
:1035E0001BF0D6FB0E490861124860621248A062C7
:1035F0001248E060124820611248A0601248206220
:103600001248E06212486063124860611248A0618B
:103610001248206012482063084644610020C8E731
:103620007024002061150300626C655F74696D652C
:1036300072000000ADC60300CDC6030039BC030014
:103640002152030055BD03002D3E0300C941030074
:10365000BDAC030005BE030051BE030019B1030059
:10366000D51303003EB5504C00F02EFB10B30621DD
:10367000A4F62C4080F8971300BF00BF90F8B31059
:1036800090F8B22090F8B100CDE901210090A4F6A5
:103690002C4090F8AF3090F8AE20B0F8AC1043A0BA
:1036A00007F068F800BF00BF0121A4F62C4080F8A5
:1036B000DD1B1FE048480078012803D1012147485D
:1036C00080F8DD1B00BF00BF444890F8B31090F8AD
:1036D000B22090F8B100CDE9012100903F4890F868
:1036E000AF3090F8AE20B0F8AC103DA007F042F833
:1036F00000BF00BF394890F8DD0B012852D10020EF
:103700003549087002F098FDFEF712FB3349C1F805
:10371000C40306F011FA00B300210A2006F09EFB54
:1037200000BF00BF2D4890F8B31090F8B22090F879
:10373000B100CDE901210090284890F8AF3090F811
:10374000AE20B0F8AC1031A007F014F800BF00BFF5
:103750000021224880F8961322E0FDF76FFFF8B9A8
:103760000021072006F07AFB00BF00BF1B4890F83D
:10377000B31090F8B22090F8B100CDE9012100908B
:10378000164890F8AF3090F8AE20B0F8AC102EA0EC
:1037900006F0F0FF00BF00BF0121104880F896132B
:1037A00001203EBD0020FCE73076002025642D2559
:1037B000642D25642C2025643A25643A2564205B19
:1037C000484F4D454B45595D20636C69636B202D17
:1037D0002D2D2D2D2D0D0A00E4230020046A00203C
:1037E00025642D25642D25642C2025643A25643A12
:1037F000256420484F4D454B45593A20204B65796B
:1038000020707265737365640D0A000025642D25B0
:10381000642D25642C2025643A25643A2564205BB8
:103820004B45595D207365742055493A2062757483
:10383000746F6E20636C69636B65642028676C61CC
:103840006E6365290D0A000025642D25642D25640D
:103850002C2025643A25643A2564205B4B45595D4C
:10386000207365742055493A20627574746F6E2018
:10387000636C69636B6564202873656E73696E673A
:10388000290D0A0000B50948006858B908480749D9
:1038900008600021016041608160C16003480068E8
:1038A00000F008F80148006800BD0000A4240020D2
:1038B0004C870020014605484860054808600548D7
:1038C00088600548C8600020704700007D3D030007
:1038D000D33E0300CD3E0300253E030010B508484B
:1038E000006850B90748064908600021016041603E
:1038F00081600348006800F007F80148006810BDC7
:10390000A82400205C87002010B504460548A0606C
:10391000054820600548606013F010FD12F0CAF8F9
:10392000002010BDE5B00300A53E0300013E0300EA
:1039300010B50848006848B90748064908603021B2
:10394000FCF70BFE0348006800F008F80148006827
:1039500010BD000094240020DC8600203EB5044603
:1039600014B94FF0FF303EBD174820601748606023
:103970001748A0601748E0601748A0611748E06149
:10398000174820621748A0621748606217482061F4
:103990001748E06200BF00BF164890F8B31090F8D7
:1039A000B22090F8B100CDE901210090114890F8C3
:1039B000AF3090F8AE20B0F8AC100F4806F0DAFE49
:1039C00000BF00BF0020CEE797DC030091DC0300BE
:1039D00067540300615403006DAC0300F9860300D3
:1039E0005B3F0300613F0300573F0300BD530300EB
:1039F000453F0300046A00203814040010B508484D
:103A0000006850B90748064908600021016041601C
:103A100081600348006800F007F80148006810BDA5
:103A2000982400200C8700203EB504461948A06069
:103A30001948606000202060184908601848002379
:103A400001224FF4FA61009016A01BF0A1F913496E
:103A5000086008460068D0B900BF00BF144890F85D
:103A6000B31090F8B22090F8B100CDE90121009098
:103A70000F4890F8AF3090F8AE20B0F8AC100DA021
:103A800006F078FE00BF00BF4FF0FF303EBD0020C3
:103A9000FCE70000D5B00300E9C503009C2400202A
:103AA000116303007274635F74696D6572000000D6
:103AB000046A002025642D25642D25642C202564AE
:103AC0003A25643A2564205B48414C5F54494D4592
:103AD000525D205274632054696D65722043726593
:103AE00061746564204661696C6564200D0A00009C
:103AF0000446204600F000F800BF00BF00BF00BF32
:103B000000BFBFF34F8F00BF00BF00BF0948006870
:103B100000F4E06008490843001D0649086000BF42
:103B200000BF00BFBFF34F8F00BF00BF00BF00BF8B
:103B300000BFFDE70CED00E00000FA0510B50848F5
:103B4000006848B90748064908601C21FCF705FDD4
:103B50000348006800F008F80148006810BD000044
:103B600090240020C086002070B5044614B94FF0A0
:103B7000FF3070BD134820611348E0601348606156
:103B80001348A061134820601348A0601348606088
:103B900004201AF07FFA124948600846406808B1CC
:103BA000012000E00020054600BF03220021012083
:103BB0001AF094FA0A49886000BF002088810861E1
:103BC00000BFD6E74DAC0300CDDA030061DE030091
:103BD000FD3A03001DA003006D540300C9A00300BB
:103BE000A8860020014648784FF6FF7202EA0020BE
:103BF0000A78104370470146C87800028A7810435B
:103C000000024A78104300020A781043704700000F
:103C100070B5074C25460020FFF7ECFA4FF48050B2
:103C2000FFF7E8FA0020207628606860A86070BD81
:103C3000506D002030B587B0184D2C460FF0ACF910
:103C40000C2221460020FFF79DF900BF00BF6288CB
:103C50002388A4F5537090F8B3006168CDE903326E
:103C600005910290A4F5537090F8B21090F8B1004D
:103C7000CDE90001A4F5537090F8AF3090F8AE2074
:103C8000B0F8AC1006A006F075FD00BF00BF002024
:103C9000E8752876A87507B030BD0000506D00208B
:103CA00025642D25642D25642C2025643A25643A4D
:103CB0002564205B4C494E4B5D2025782C202578CF
:103CC0002C2025780D0A000001207047014890F84B
:103CD00060037047046A00203EB50446FEF728F8EA
:103CE0001B49C1F85C03084680F8604300BF00BF71
:103CF00090F8B31090F8B22090F8B100CDE901210E
:103D00000090134890F8AF3090F8AE20B0F8AC10A7
:103D1000104806F02FFD00BF00BF02F08DFA012110
:103D20000B4880F8DD1BFEF703F80949C1F8C4030E
:103D300005F002FF20B100210A2006F08FF806E00E
:103D4000FDF77CFC18B90021072006F087F83EBD7E
:103D5000046A00204010040000B593B0FD481290A2
:103D6000FDF7E6FF1190022004F014FB1298007E8C
:103D7000112881F02F84DFE810F011005F016F023D
:103D8000E9024F035A046305E406CE076808F20807
:103D90002D0A2D0C8C0AD90A260B4E0BEE48C07A40
:103DA00000F02000202865D1EC491198086001211D
:103DB0001298017620211298417500BF00BFE64895
:103DC00090F8B31090F8B22090F8B100CDE901213D
:103DD0000090E14890F8AF000E90DF4890F8AE00F8
:103DE0000D90DD48B0F8AC000C900146DCA0DDE998
:103DF0000D2306F0BFFC00BF00BF02F07BFB00F507
:103E00000070E0490860084600688030DE490860BC
:103E1000084600684030DD49086000BF1AF01EFD0A
:103E20000023012202210E901AF0A8FC00BF00BF5F
:103E300040F23B13C84890F8B31090F8B22090F8C5
:103E4000B100CDE90213CDE90002C34890F8AF00FC
:103E50000E90C14890F8AE000D90BF48B0F8AC008D
:103E60000C900146CAA0DDE90D2306F083FC00BFDB
:103E700000BFDFE0B848C07A00F04000402865D1BC
:103E8000B649119808600521129801764021B24880
:103E900080F8611300BF00BF90F8B31090F8B22013
:103EA00090F8B100CDE901210090AB4890F8AF0047
:103EB0000E90A94890F8AE000D90A748B0F8AC005D
:103EC0000C900146BEA0DDE90D2306F053FC00BFB7
:103ED00000BF02F00FFB00F50070AA490860084619
:103EE00000688030A8490860084600684030A7494B
:103EF000086000BF1AF0B2FC0023012202210E90DC
:103F00001AF03CFC00BF00BF40F24913924890F801
:103F1000B31090F8B22090F8B100CDE90213CDE9CA
:103F200000028D4890F8AF000E908B4890F8AE00DC
:103F30000D908948B0F8AC000C90014694A0DDE9E2
:103F40000D2306F017FC00BF00BF73E08248C07A63
:103F500000F00200022869D18049119808606FF0D2
:103F60000040A04908600D211298017602217A488C
:103F700080F8611300BF00BF90F8B31090F8B22032
:103F800090F8B100CDE901210090734890F8AF009E
:103F90000E90714890F8AE000D906F48B0F8AC00EC
:103FA0000C90014690A0DDE90D2306F0E3FB00BF75
:103FB00000BF02F09FFA00F50070724908600846E1
:103FC00000688030704908600846006840306F49DA
:103FD000086000BF1AF042FC0023012202210E906B
:103FE0001AF0CCFB00BF00BF4FF4AC735A4890F8F6
:103FF000B31090F8B22090F8B100CDE90213CDE9EA
:104000000002554890F8AF000E90534890F8AE006B
:104010000D905148B0F8AC000C9001465CA0DDE971
:104020000D2306F0A7FB00BF00BF03E000214A48B4
:1040300080F8611301F0D5BA00BF00BF464890F880
:10404000B31090F8B22090F8B100CDE901210090B2
:10405000414890F8AF000C903F4890F8AE000B90AC
:104060003D48B0F8AC000A9001466AA0DDE90B2398
:1040700006F080FB00BF00BF0120FFF72DFE0120EE
:1040800072490870354911980860FFF777FA0D906A
:104090000D9800690EAA0C903C480168DDE90C30CF
:1040A00098473A4800681430694908606949684887
:1040B000006806F06FFB33480068344909680A68F5
:1040C00002604A6842600989018106212D48006822
:1040D0000A3008F073FD2C202A49096888720AF01A
:1040E000FFF828480268016827480068FDF7CAFB06
:1040F00002211298017600BF1AF0B0FB00230122C2
:1041000002210C901AF03AFB00BF00BF40F281136D
:10411000114890F8B31090F8B22090F8B100CDE9B2
:104120000213CDE900020C4890F8AF000C900A4849
:1041300090F8AE000B900848B0F8AC000A90014629
:1041400013A0DDE90B2306F015FB00BF00BF00BF85
:1041500070E70000506D0020046A00200024002059
:1041600025642D25642D25642C2025643A25643A88
:104170002564205B4C494E4B5D204131202E2E2E74
:104180000D0A0000F0230020F4230020EC2300207F
:1041900025642D25642D25642C2025643A25643A58
:1041A0002564205B6C696E6B5D3A206C696E6520DE
:1041B0006E756D626572203D2025640D0A00000059
:1041C00025642D25642D25642C2025643A25643A28
:1041D0002564205B4C494E4B5D204132202E2E2E13
:1041E0000D0A00000424002025642D25642D25647B
:1041F0002C2025643A25643A2564205B4C494E4BBB
:104200005D20666F7263652061757468202E2E2EA6
:104210000D0A000025642D25642D25642C202564BD
:104220003A25643A2564205B4C494E4B5D204C494D
:104230004E4B5F535F53544152545F415554484570
:104240004E5449434154494F4E0D0A00E823002083
:104250000C24002006F2030000BF00BFFD4890F8C8
:10426000B31090F8B22090F8B100CDE90121009090
:10427000F84890F8AF000E90F64890F8AE000D9018
:10428000F448B0F8AC000C900146F3A0DDE90D2332
:1042900006F070FA00BF00BFFE4800681930FE4902
:1042A0000860102208460168FC48006806F0A4F97E
:1042B000FA480068F749096851F80A2F02604A680D
:1042C0004260098901810621F44800680A3008F03B
:1042D00075FC2C20F14909688872F0480268016871
:1042E000EF480068FDF7CEFA03211298017600BF6F
:1042F0001AF0B4FA0023012202210E901AF03EFABD
:1043000000BF00BF40F29913D24890F8B31090F864
:10431000B22090F8B100CDE90213CDE90002CD48FA
:1043200090F8AF000E90CB4890F8AE000D90C948C1
:10433000B0F8AC000C900146AFF2AC10DDE90D23F3
:1043400006F018FA00BF00BF00BF73E600BF00BF51
:10435000C04890F8B31090F8B22090F8B100CDE9C1
:1043600001210090BB4890F8AF000E90B94890F83A
:10437000AE000D90B748B0F8AC000C900146C9A053
:10438000DDE90D2306F0F6F900BF00BF2C20C1497E
:10439000096881F83900BF4800683A30BE490860B2
:1043A000102208460168BD48006806F025F904217E
:1043B000129801760020CA49088000BF1AF04EFA10
:1043C0000023012202210E901AF0D8F900BF00BF8D
:1043D00040F2A7139F4890F8B31090F8B22090F8DD
:1043E000B100CDE90213CDE900029A4890F8AF0080
:1043F0000E90984890F8AE000D909648B0F8AC003A
:104400000C900146AFF27820DDE90D2306F0B2F9F9
:1044100000BF00BF00BF0DE600BF00BF8D4890F891
:10442000B31090F8B22090F8B100CDE901210090CE
:10443000884890F8AF000E90864890F8AE000D9036
:104440008448B0F8AC000C900146A6A0DDE90D232D
:1044500006F090F900BF00BF022003F051FF0028D2
:1044600071D006F0D5FE00BF00BF7A4890F8B310B7
:1044700090F8B22090F8B100CDE901210090754884
:1044800090F8AF000E90734890F8AE000D90714810
:10449000B0F8AC000C900146A0A0DDE90D2306F0B9
:1044A00069F900BF00BF0021AAA0FEF729FB109008
:1044B00010985A220E90774801680E98FEF71CFC5F
:1044C00010980E90FEF7CAFA022003F063FF002155
:1044D00012980176A449119808600020A349087039
:1044E0005C48C07A20F020005A49C87200207C49FC
:1044F0000880584890F8610320282CD10121129897
:104500008175891E1298C160002098490870FDF7D6
:1045100075FC00BF00BF4F4890F8B31090F8B22070
:1045200090F8B100CDE9012100904A4890F8AF0021
:104530000E90484890F8AE000D904648B0F8AC0098
:104540000C90014600E034E089A0DDE90D2306F07F
:1045500011F900BF00BF00BF1AF080F9002301224B
:1045600002210E901AF00AF900BF00BF4FF4E37366
:10457000384890F8B31090F8B22090F8B100CDE927
:104580000213CDE90002334890F8AF000E90314895
:1045900090F8AE000D902F48B0F8AC000C9001469A
:1045A000AFF21440DDE90D2306F0E4F800BF00BFD0
:1045B0003CE04B4801880088401C494A1080B1F516
:1045C0007A7F33DD0B21129801760E211298C17586
:1045D00000BF1AF043F90023012202210E901AF0C5
:1045E000CDF800BF00BF4FF4E6731A4890F8B3103F
:1045F00090F8B22090F8B100CDE90213CDE90002A5
:10460000144890F8AF000E90124890F8AE000D904C
:104610001048B0F8AC000C900146AFF28C40DDE9D8
:104620000D2306F0A7F800BF00BF00BF02E500BFE2
:1046300000BF084890F8B31090F8B22090F8B1008D
:10464000CDE901210090034890F8AF000E90014899
:10465000A0E00000046A002025642D25642D256457
:104660002C2025643A25643A2564205B4C494E4B46
:104670005D204C494E4B5F535F47454E4552415478
:10468000455F454E43525950545F424C4F434B3166
:104690000D0A0000EC2300200C240020F023002051
:1046A000F423002025642D25642D25642C20256409
:1046B0003A25643A2564205B4C494E4B5D204C49B9
:1046C0004E4B5F535F47454E45524154455F454E03
:1046D00043525950545F424C4F434B320D0A000035
:1046E0000A24002025642D25642D25642C202564B2
:1046F0003A25643A2564205B4C494E4B5D204C4979
:104700004E4B5F535F57524954455F454E43525994
:1047100050545F46494C450D0A00000025642D2584
:10472000642D25642C2025643A25643A2564205B99
:104730004C494E4B5D3A20636865636B207365633B
:1047400075726974795F6465766963652E747874CF
:104750000D0A000073656375726974795F6465762C
:104760006963652E74787400FC230020E823002020
:1047700025642D25642D25642C2025643A25643A72
:104780002564205B4C494E4B5D20413120646F6EA7
:10479000650D0A0090F8AE000D90F748B0F8AC0037
:1047A0000C900146F5A0DDE90D2305F0E3FF00BF05
:1047B00000BF0120FFF790FAEF48C07A00F04000F8
:1047C00040283CD10621129801760020F949087052
:1047D0000120F94908700020F8490880F84911982B
:1047E000086000BF1AF03AF80023012202210E905F
:1047F00019F0C4FF00BF00BF4FF4F173DE4890F81A
:10480000B31090F8B22090F8B100CDE90213CDE9D1
:104810000002D94890F8AF000E90D74890F8AE004B
:104820000D90D548B0F8AC000C900146AFF2A060F6
:10483000DDE90D2305F09EFF00BF00BF00BF87E448
:10484000022003F05DFD00287ED00020DB490880B7
:10485000DCA0FEF767FB012877D10121D9A0FEF784
:104860004FF90E900E98406862283BD00E980C903D
:10487000FEF7F4F804211298C1750B211298017605
:10488000022003F087FD00BF19F0E8FF002301229A
:1048900002210C9019F072FF00BF00BF40F2FF131D
:1048A000B54890F8B31090F8B22090F8B100CDE977
:1048B0000213CDE90002B04890F8AF000C90AE486A
:1048C00090F8AE000B90AC48B0F8AC000A900146EE
:1048D000AFF24470DDE90B2305F04CFF00BF00BFD1
:1048E00000BF35E40E9862220C90BC4801680C9819
:1048F000FEF7A4F90E980C90FEF7B0F8B7480068E0
:1049000090F820002C2805D1B448006890F84100A8
:104910002C283AD005211298C1750B2112980176E6
:10492000022003F037FD00BF19F098FF0023012299
:1049300002210C9019F022FF00BF00BF40F20D23AE
:104940008D4890F8B31001E0BCE080E090F8B22010
:1049500090F8B100CDE90213CDE90002864890F845
:10496000AF000C90844890F8AE000B908248B0F8ED
:10497000AC000A900146AFF2E870DDE90B2305F0C8
:10498000F9FE00BF00BF00BFDFE400BF00BF7A48F0
:1049900090F8B31090F8B22090F8B100CDE9012161
:1049A0000090754890F8AF000C90734890F8AE00F6
:1049B0000B907148B0F8AC000A90014688A0DDE980
:1049C0000B2305F0D7FE00BF00BF20228F480168EF
:1049D0008248006805F045FD09F082FC8B480268BA
:1049E00001688B480068FCF731FF072112980176B7
:1049F00000BF19F033FF0023012202210C9019F0AF
:104A0000BDFE00BF00BF40F21E235B4890F8B3100C
:104A100090F8B22090F8B100CDE90213CDE9000280
:104A2000554890F8AF000C90534890F8AE000B90AA
:104A30005148B0F8AC000A900146AFF6AC00DDE991
:104A40000B2305F097FE00BF00BF00BF36E00B212F
:104A50001298017600205849087003211298C175F8
:104A600000BF19F0FBFE0023012202210E9019F075
:104A700085FE00BF00BF40F227233F4890F8B310E7
:104A800090F8B22090F8B100CDE90213CDE9000210
:104A9000394890F8AF000E90374890F8AE000D906E
:104AA0003548B0F8AC000C900146AFF61C10DDE9BB
:104AB0000D2305F05FFE00BF00BF00BF022003F022
:104AC00069FC3DE03D480088401C3C4908800846A0
:104AD0000088B0F57A7F33DD0B21129801760F2123
:104AE0001298C17500BF19F0B9FE002301220221FE
:104AF0000E9019F043FE00BF00BF40F231231E4864
:104B000090F8B31090F8B22090F8B100CDE90213FC
:104B1000CDE90002184890F8AF000E90164890F8C2
:104B2000AE000D901448B0F8AC000C900146AFF602
:104B3000A010DDE90D2305F01DFE00BF00BF00BF82
:104B400069E400BF00BF0C4890F8B31090F8B220A1
:104B500090F8B100CDE901210090074890F8AF002E
:104B60000E90054890F8AE000D900348B0F8AC00E8
:104B70000C9001464EE00000046A002025642D25BB
:104B8000642D25642C2025643A25643A2564205B35
:104B90004C494E4B5D204C494E4B5F535F5741494A
:104BA000545F464F525F434845434B5F464C414735
:104BB0000D0A0000EA230020E92300200A24002037
:104BC0000024002073656375726974795F73657280
:104BD000766963652E74787400000000EC23002071
:104BE00025642D25642D25642C2025643A25643AFE
:104BF0002564205B4C494E4B5D206465746563748D
:104C00006564203220272C270D0A0000F0230020A5
:104C1000F4230020F4A0DDE90D2305F0ABFD00BF77
:104C200000BF1022FB480168FB480068FBF76EFCE0
:104C30002022F8480168F8480068213005F011FC8E
:104C400009F04EFBF34802680168F4480068FCF77D
:104C5000FDFD00BF00BFEF480068C078ED4909685E
:104C60008978EC4A12685278EA4B1B681B78CDE9C8
:104C70000332CDE90510EA4890F8B31090F8B2205D
:104C800090F8B100CDE901210090E54890F8AF001F
:104C90000E90E34890F8AE000D90E148B0F8AC00FB
:104CA0000C900146DF48DDE90D2305F063FD00BFF0
:104CB00000BF08211298017600BF19F0CFFD002334
:104CC000012202210E9019F059FD00BF00BF40F2F1
:104CD0004923D34890F8B31090F8B22090F8B1006F
:104CE000CDE90213CDE90002CD4890F8AF000E9057
:104CF000CB4890F8AE000D90C948B0F8AC000C90CD
:104D00000146AFF67430DDE90D2305F033FD00BF39
:104D100000BF00BF8AE400BF00BFC14890F8B310D5
:104D200090F8B22090F8B100CDE901210090BC4884
:104D300090F8AF000E90BA4890F8AE000D90B848C9
:104D4000B0F8AC000C900146B7A0DDE90D2305F0EA
:104D500011FD00BF00BF1022AE480168AE480068D8
:104D60000A30FBF7D3FB2022AA480168AA48006852
:104D7000423005F076FB09F0B3FAA64802680168F4
:104D8000A6480068FCF762FD00BF00BFA1480068AC
:104D9000C178A048006882789E48006840789D4BA2
:104DA0001B681B78CDE90330CDE905219C4890F8BC
:104DB000B32090F8B21090F8B1008DE80700984841
:104DC00090F8AF000E90964890F8AE000D90944881
:104DD000B0F8AC000C9001469248DDE90D2305F0D7
:104DE000C9FC00BF00BF09211298017600BF19F06D
:104DF00035FD0023012202210E9019F0BFFC00BFF7
:104E000000BF40F25E23864890F8B31090F8B220BD
:104E100090F8B100CDE90213CDE90002804890F886
:104E2000AF000E907E4890F8AE000D907C48B0F830
:104E3000AC000C900146AFF6A840DDE90D2305F06B
:104E400099FC00BF00BF00BFCBE300BF00BF7448A8
:104E500090F8B31090F8B22090F8B100CDE901219C
:104E600000906F4890F8AF000E906D4890F8AE003B
:104E70000D906B48B0F8AC000C90014675A0DDE9D0
:104E80000D2305F077FC00BF00BF102261480168C8
:104E9000614800682030FBF739FB0A21129801763F
:104EA00000BF00BF5B480068C1785A48006880783E
:104EB000584A12685278574B1B681B78CDE9033269
:104EC000CDE90501564890F8B31090F8B22090F85B
:104ED000B100CDE901210090514890F8AF000E904B
:104EE0004F4890F8AE000D904D48B0F8AC000C90D3
:104EF00001464C48DDE90D2305F03CFC00BF00BF36
:104F000000BF19F0ABFC0023012202210E9019F022
:104F100035FC00BF00BF40F26923414890F8B31050
:104F200090F8B22090F8B100CDE90213CDE900026B
:104F30003B4890F8AF000E90394890F8AE000D90C5
:104F40003748B0F8AC000C900146AFF6BC50DDE934
:104F50000D2305F00FFC00BF00BF00BF41E314218B
:104F60002D4800680BF0DAFB2C202B4909680875E6
:104F700015200D9020200E9015E0274801680E980E
:104F8000085C2C2800D111E0234801680E980A5CC7
:104F90000D98411CC9B20D911F4909680A540E9819
:104FA000401CC0B20E900E982D28E6DB00BF00BF5B
:104FB00000BF1B4890F8B32090F8B23090F8B100D1
:104FC0000D99CDE9013203910090154890F8AF009A
:104FD0000990134890F8AE0008901148B0F8AC0062
:104FE000079001464CE0000025642D25642D2564C2
:104FF0002C2025643A25643A2564205B4C494E4BAD
:105000005D204445435259505420424C4F42310D8B
:105010000A000000F0230020EC230020F4230020ED
:10502000046A00208410040025642D25642D256465
:105030002C2025643A25643A2564205B4C494E4B6C
:105040005D204445435259505420424C4F42320D4A
:105050000A00000025642D25642D25642C2025647C
:105060003A25643A2564205B4C494E4B5D2044450B
:10507000435259505420424C4F42330D0A00000015
:10508000F4A0DDE9082305F075FB00BF00BFFE4971
:105090000D980880FEF772FA0A900A9800690BAA28
:1050A0000990FA4801684031DDE909309847142237
:1050B000F648016840310068FBF785FA80B20C9031
:1050C0000C9858B300BF00BFF14890F8B31090F8A7
:1050D000B22090F8B100CDE901210090EC4890F8A1
:1050E000AF000990EA4890F8AE000890E848B0F8A0
:1050F000AC0007900146E7A0DDE9082305F03AFB84
:1051000000BF00BF6FF00041E148C0F85013092113
:105110001298C1750B211298017653E00120099075
:105120000021E94801600D98401EC0B20E9023E0B6
:10513000D64801680E98085C3038089008980A280C
:1051400002DC0898002806DA0A211298C1750B21A2
:105150001298017613E0DC480268DDE9080100FBE3
:105160000120D9490860099800EB800040000990AF
:105170000E98401EC0B20E900E981528D8DA00BFC7
:1051800000BF00BFD0480368C14890F8B32090F832
:10519000B21090F8B1008DE80F00BD4890F8AF0054
:1051A0000790BB4890F8AE000690B948B0F8AC0044
:1051B00005900146C5A0DDE9062305F0DBFA00BF36
:1051C00000BF00BF1298007E0B2802D00D2112985C
:1051D000017606E20020C8490870C849087002201C
:1051E00003F08EF820B9C6480088B0F57A7F4ADD12
:1051F000022003F0CFF8002112980176A448C07A6B
:1052000020F02000A249C8720846C07A20F0400071
:10521000C8720846C07A20F00200C8720020B64961
:105220000870B6490870B649088000BF00BF1298E0
:10523000C17D974890F8B32090F8B23090F8B10053
:10524000CDE9013203910090914890F8AF000E90A3
:105250008F4890F8AE000D908D48B0F8AC000C90DF
:105260000146A8A0DDE90D2305F084FA00BF00BFC8
:10527000042112988175491F1298C160FCF7BEFD88
:1052800005F0C6FF04E09E480088401C9C49088049
:10529000A7E100BF00BF7E4890F8B31090F8B2209D
:1052A00090F8B100CDE901210090794890F8AF0065
:1052B0000E90774890F8AE000D907548B0F8AC00AD
:1052C0000C9001469AA0DDE90D2305F053FA00BFCA
:1052D00000BF0120FEF700FD6D48D0F8A010C0F817
:1052E0005413794801686A48C0F8501347F6A5700E
:1052F0006749A1F84C0341F234216548A0F84E13E8
:105300000E21129801766248C07A20F04000604970
:10531000C8720846C07A20F00200C87204F06EFB22
:10532000012001F08BF904F0A3FB5AE10F21129840
:105330000176574890F86103402806D1022112985F
:10534000817500206D4908700BE0514890F86103A9
:10535000022803D103211298817502E004211298DA
:1053600081754B48D0F850131298C160FCF746FD88
:10537000FCF7DEFC794908600020FEF7ADFC00BFB9
:1053800000BF1298C168424890F8B32090F8B2303C
:1053900090F8B100CDE90132039100903C4890F8BB
:1053A000AF000E903A4890F8AE000D903848B0F833
:1053B000AC000C9001466AA0DDE90D2305F0DAF996
:1053C00000BF00BF0DE10021314880F8641300BF29
:1053D00000BF90F8B31090F8B22090F8B100CDE97A
:1053E000012100902A4890F8AF000E90284890F8CC
:1053F000AE000D902648B0F8AC000C90014665A0B8
:10540000DDE90D2305F0B6F900BF00BF2049119872
:10541000C1F85C03E5E002F0C7FF00211C4880F8FA
:10542000641300BF00BF90F8B31090F8B22090F85A
:10543000B100CDE901210090154890F8AF000E9021
:10544000134890F8AE000D901148B0F8AC000C90E5
:105450000146B7E025642D25642D25642C202564A4
:105460003A25643A2564205B4C494E4B5D207573A8
:10547000657220696420706F736974696F6E3A2079
:1054800025640D0A0000000008240020EC23002001
:10549000046A002025642D25642D25642C202564B4
:1054A0003A25643A2564205B4C494E4B5D20757368
:1054B000657220696420646F6573206E6F74206D5F
:1054C000617463680D0A00000424002025642D2502
:1054D000642D25642C2025643A25643A2564205BDC
:1054E0004C494E4B5D207573657220696420697369
:1054F0003A2025640D0A0000E8230020E92300205B
:105500000A24002025642D25642D25642C20256483
:105510003A25643A2564205B4C494E4B5D20657208
:10552000726F722066696C653A25640D0A0000008E
:1055300025642D25642D25642C2025643A25643AA4
:105540002564205B4C494E4B5D2077726974652061
:105550006175746820696E666F0D0A000024002072
:1055600025642D25642D25642C2025643A25643A74
:105570002564205B4C494E4B5D20617574686F72E9
:10558000697A65642120207573657249443A202543
:10559000640D0A0025642D25642D25642C202564C6
:1055A0003A25643A2564205B4C494E4B5D20577286
:1055B0006974696E67206C696E6B20696E666F2115
:1055C000200D0A0009A0DDE90D2305F0D3F800BF86
:1055D00000BF06E00B211298017611211298C175C7
:1055E00000BF00BF002013B000BD000025642D25C2
:1055F000642D25642C2025643A25643A2564205BBB
:105600004C494E4B5D207265626F6F740D0A00004D
:1056100010B5312007F05CFF0148407810BD000054
:10562000A878002010B5472120200AF08DFA01202B
:10563000FBF766FE092121200AF086FA402122208C
:105640000AF082FA002123200AF07EFA4821242061
:105650000AF07AFA082132200AF076FA0121332082
:105660000AF072FA262007F033FF2A2130200AF0D0
:105670006BFA312007F02CFF002010BD10B5074851
:10568000006818B902F0CCFE0449086000F070F818
:10569000034981F8310000F013F810BD18240020F0
:1056A000046A002010B500242F2007F011FF0348E2
:1056B000407800F01F04204610BD0000A8780020AC
:1056C00010B5234890F8FB0098B13F2138200AF02C
:1056D0003BFA30213A200AF037FA10213B200AF039
:1056E00033FA0A213C200AF02FFA20213D200AF04B
:1056F0002BFA002132200AF027FA002133200AF089
:1057000023FA472120200AF01FFA002121200AF065
:105710001BFA0F4890F8FB0020B1842122200AF0E8
:1057200013FA03E0042122200AF00EFA18212320A4
:105730000AF00AFA482124200AF006FA99212E20BC
:105740000AF002FA022125200AF0FEF9002010BD1D
:10575000046A002010B50446282007F08FFE034895
:10576000016821608088A08010BD0000A978002019
:1057700010B50F2007F0ACFE0148407810BD0000C6
:10578000A878002070B504460D46164620462A46E5
:10579000314600F04DF970BD70B504460D46032D3D
:1057A00003D1204600F07EF812E0022D03D12046FE
:1057B00000F048F80CE0012D03D1204600F0A2F8DB
:1057C00006E015B900F014F802E0204600F06AF88F
:1057D000002070BD70B504460D46164620462A4688
:1057E000314600F0D7F870BD10B500F0BBF810BD21
:1057F0001CB51148007820B100200F49087000F056
:1058000091F900F09FF9C7200C4908700020009022
:105810000B4B012201900FF013F90BF009FA00F085
:1058200035FE38B90448007820B9012002490870D3
:1058300000F0EEF81CBD00001C240020B878002009
:10584000C27800201CB504461348007820B100201F
:105850001149087000F066F900F074F952200F4900
:105860000870200C4870200A8870CC7000200090CE
:105870000B4B042201900FF0E3F80BF0D9F900F084
:1058800005FE38B90448007820B9012002490870A3
:1058900000F0BEF81CBD00001C240020B8780020D9
:1058A000C27800201CB504461348007820B10020BF
:1058B0001149087000F036F900F044F920200F4932
:1058C0000870200C4870200A8870CC70002000906E
:1058D0000B4B042201900FF0B3F80BF0A9F900F084
:1058E000D5FD38B90448007820B901200249087074
:1058F00000F08EF81CBD00001C240020B8780020A9
:10590000C27800201CB504461348007820B100205E
:105910001149087000F006F900F014F9D8200F4979
:105920000870200C4870200A8870CC70002000900D
:105930000B4B042201900FF083F80BF079F900F083
:10594000A5FD38B90448007820B901200249087043
:1059500000F05EF81CBD00001C240020B878002078
:10596000C27800200EB500F053F8012007490870F6
:10597000684600F093F89DF80010054880F8331051
:105980009DF8011080F834100EBD00001C2400208A
:10599000046A00202DE9F04704460F46904626464B
:1059A000E019A0F101091948007820B10020174939
:1059B000087000F0B7F826F0FF0629F0FF094E4501
:1059C00005D142463946204609F08CF811E0A01B6B
:1059D000C0F58075A9B24246204609F083F82C44F0
:1059E000A7EB050A08EB05021FFA8AF1204609F029
:1059F00079F800F04BFD38B90448007820B901204F
:105A00000249087000F004F8BDE8F0871C2400206B
:105A10001CB5B9200449087000200090034B0122F6
:105A200001900FF00DF81CBDB8780020C27800205E
:105A300070B5C4B004460D4616461648007820B12D
:105A400000201449087000F06DF803201249087016
:105A5000200C4870200A8870CC700021281D80B26C
:105A600003AB0422CDE900010B4900200EF0E8FF52
:105A70002A4604A93046FAF749FD00F007FD38B977
:105A80000448007820B9012002490870FFF7C0FFE0
:105A900044B070BD1C240020B87800201CB504461A
:105AA0001248007820B100201049087000F03AF840
:105AB00090200F490870002006210E4B0122CDE9ED
:105AC00000100B490EF0BCFF0A480079207009480D
:105AD0004079607000F0DAFC38B90448007820B9E9
:105AE000012002490870FFF793FF1CBD1C24002011
:105AF000B8780020C27800201CB50520074908703E
:105B0000AA20487000200221054B0A46CDE900106A
:105B100002490EF095FF024840781CBDB87800207D
:105B2000C27800201CB5AB2004490870002000900A
:105B3000034B012201900EF083FF1CBDB8780020BA
:105B4000C27800201CB50A48007820B1002008491E
:105B50000870FFF7E7FF0620064908700020009054
:105B6000054B012201900EF06BFF0BF061F81CBD9C
:105B70001C240020B8780020C278002030B585B001
:105B8000FCF7D6F80446012500F080FC68B1BB485C
:105B900090F82A0C30B10021B84880F82A1C002067
:105BA000FDF7E0FC002005B030BDB44890F82A0CA9
:105BB00007286AD2DFE800F00406287BABE7FD0087
:105BC000002558E10221AD4880F82A1C002180F808
:105BD000261C00BF00BF90F8271C90F8B32090F857
:105BE000B23090F8B100CDE9013203910090A348A2
:105BF00090F8AF3090F8AE20B0F8AC10A0A004F050
:105C0000B9FD00BF00BF36E100BF00BF9B4890F860
:105C1000B31090F8B22090F8B100CDE90214CDE9AC
:105C20000002964890F8AF3090F8AE20B0F8AC1073
:105C3000A1A004F09FFD00BF00BF0120FDF792FC72
:105C400003218E4880F82A1CA8480068002827D124
:105C5000A749642001F07CFFA44908600846006859
:105C600018BB00BF00BF854890F8B31090F8B22071
:105C700090F8B100CDE901210090804890F8AF3054
:105C800090F8AE20B0F8AC1000E0D1E099A004F09C
:105C900071FD00BF00BF0021784880F82A1CEAE0AF
:105CA00064219248006801F0A7FF0025E3E000BFEF
:105CB00000BF724890F8B31090F8B22090F8B1008D
:105CC000CDE90214CDE900026C4890F8AF3090F8AD
:105CD000AE20B0F8AC1095A004F04CFD00BF00BFA2
:105CE0000020FDF73FFC0421644880F82A1C0025B1
:105CF0004FF4C8717D48006801F07EFF5F4890F85E
:105D0000250C401CC1B25D4880F8251CB3E05B48FF
:105D100090F8251C90F8280C814212DB0521574889
:105D200080F82A1C90F8260C401CC1B2534880F819
:105D3000261C00254FF4FA616C48006801F05CFFF6
:105D400003E002214D4880F82A1C00BF00BF4B48E9
:105D500090F8251C90F8B32090F8B200CDE9031418
:105D6000CDE90102454890F8B1000090434890F811
:105D7000AF3090F8AE20B0F8AC1079A004F0FAFC87
:105D800000BF00BF77E03D4890F8261C90F8270C34
:105D9000814223DB0021394880F82A1C00BF00BF64
:105DA00090F8261C90F8B32090F8B23090F8B1002B
:105DB00000E035E0CDE90132039100902F4890F8E2
